{
	"contracts/Events.sol": {
		"Modifiers": {
			"abi": [
				{
					"inputs": [],
					"stateMutability": "nonpayable",
					"type": "constructor"
				},
				{
					"inputs": [],
					"name": "AmountToSmall",
					"type": "error"
				},
				{
					"anonymous": false,
					"inputs": [
						{
							"indexed": false,
							"internalType": "address",
							"name": "user",
							"type": "address"
						},
						{
							"indexed": false,
							"internalType": "uint256",
							"name": "amount",
							"type": "uint256"
						}
					],
					"name": "FundsDeposited",
					"type": "event"
				},
				{
					"anonymous": false,
					"inputs": [
						{
							"indexed": false,
							"internalType": "address",
							"name": "user",
							"type": "address"
						}
					],
					"name": "ProfileUpdated",
					"type": "event"
				},
				{
					"inputs": [
						{
							"internalType": "uint256",
							"name": "_amount",
							"type": "uint256"
						}
					],
					"name": "addFund",
					"outputs": [],
					"stateMutability": "nonpayable",
					"type": "function"
				},
				{
					"inputs": [],
					"name": "checkBalance",
					"outputs": [
						{
							"internalType": "uint256",
							"name": "",
							"type": "uint256"
						}
					],
					"stateMutability": "view",
					"type": "function"
				},
				{
					"inputs": [
						{
							"internalType": "uint256",
							"name": "_amount",
							"type": "uint256"
						}
					],
					"name": "deposit",
					"outputs": [],
					"stateMutability": "nonpayable",
					"type": "function"
				},
				{
					"inputs": [],
					"name": "getUserDetail",
					"outputs": [
						{
							"components": [
								{
									"internalType": "string",
									"name": "name",
									"type": "string"
								},
								{
									"internalType": "uint256",
									"name": "age",
									"type": "uint256"
								},
								{
									"internalType": "uint256",
									"name": "balance",
									"type": "uint256"
								}
							],
							"internalType": "struct Modifiers.User",
							"name": "",
							"type": "tuple"
						}
					],
					"stateMutability": "view",
					"type": "function"
				},
				{
					"inputs": [],
					"name": "owner",
					"outputs": [
						{
							"internalType": "address",
							"name": "",
							"type": "address"
						}
					],
					"stateMutability": "view",
					"type": "function"
				},
				{
					"inputs": [
						{
							"internalType": "string",
							"name": "name",
							"type": "string"
						},
						{
							"internalType": "uint256",
							"name": "age",
							"type": "uint256"
						}
					],
					"name": "setUserDetails",
					"outputs": [],
					"stateMutability": "nonpayable",
					"type": "function"
				},
				{
					"inputs": [
						{
							"internalType": "address",
							"name": "",
							"type": "address"
						}
					],
					"name": "usersData",
					"outputs": [
						{
							"internalType": "string",
							"name": "name",
							"type": "string"
						},
						{
							"internalType": "uint256",
							"name": "age",
							"type": "uint256"
						},
						{
							"internalType": "uint256",
							"name": "balance",
							"type": "uint256"
						}
					],
					"stateMutability": "view",
					"type": "function"
				},
				{
					"inputs": [],
					"name": "withdraw",
					"outputs": [],
					"stateMutability": "nonpayable",
					"type": "function"
				}
			],
			"devdoc": {
				"kind": "dev",
				"methods": {},
				"version": 1
			},
			"evm": {
				"assembly": "    /* \"contracts/Events.sol\":100:2291  contract Modifiers {\r... */\n  mstore(0x40, 0x80)\n    /* \"contracts/Events.sol\":437:439  10 */\n  0x0a\n    /* \"contracts/Events.sol\":417:439  uint private Feed = 10 */\n  0x00\n  sstore\n    /* \"contracts/Events.sol\":1064:1114  constructor(){\r... */\n  callvalue\n  dup1\n  iszero\n  tag_1\n  jumpi\n  0x00\n  dup1\n  revert\ntag_1:\n  pop\n    /* \"contracts/Events.sol\":1096:1106  msg.sender */\n  caller\n    /* \"contracts/Events.sol\":1088:1093  owner */\n  0x01\n  0x00\n    /* \"contracts/Events.sol\":1088:1106  owner = msg.sender */\n  0x0100\n  exp\n  dup2\n  sload\n  dup2\n  0xffffffffffffffffffffffffffffffffffffffff\n  mul\n  not\n  and\n  swap1\n  dup4\n  0xffffffffffffffffffffffffffffffffffffffff\n  and\n  mul\n  or\n  swap1\n  sstore\n  pop\n    /* \"contracts/Events.sol\":100:2291  contract Modifiers {\r... */\n  dataSize(sub_0)\n  dup1\n  dataOffset(sub_0)\n  0x00\n  codecopy\n  0x00\n  return\nstop\n\nsub_0: assembly {\n        /* \"contracts/Events.sol\":100:2291  contract Modifiers {\r... */\n      mstore(0x40, 0x80)\n      callvalue\n      dup1\n      iszero\n      tag_1\n      jumpi\n      0x00\n      dup1\n      revert\n    tag_1:\n      pop\n      jumpi(tag_2, lt(calldatasize, 0x04))\n      shr(0xe0, calldataload(0x00))\n      dup1\n      0x8b326ec2\n      gt\n      tag_11\n      jumpi\n      dup1\n      0x8b326ec2\n      eq\n      tag_7\n      jumpi\n      dup1\n      0x8da5cb5b\n      eq\n      tag_8\n      jumpi\n      dup1\n      0xb6b55f25\n      eq\n      tag_9\n      jumpi\n      dup1\n      0xc71daccb\n      eq\n      tag_10\n      jumpi\n      jump(tag_2)\n    tag_11:\n      dup1\n      0x0560ab69\n      eq\n      tag_3\n      jumpi\n      dup1\n      0x08f6f76e\n      eq\n      tag_4\n      jumpi\n      dup1\n      0x346c96e9\n      eq\n      tag_5\n      jumpi\n      dup1\n      0x3ccfd60b\n      eq\n      tag_6\n      jumpi\n    tag_2:\n      0x00\n      dup1\n      revert\n        /* \"contracts/Events.sol\":475:516  mapping(address => User) public usersData */\n    tag_3:\n      tag_12\n      0x04\n      dup1\n      calldatasize\n      sub\n      dup2\n      add\n      swap1\n      tag_13\n      swap2\n      swap1\n      tag_14\n      jump\t// in\n    tag_13:\n      tag_15\n      jump\t// in\n    tag_12:\n      mload(0x40)\n      tag_16\n      swap4\n      swap3\n      swap2\n      swap1\n      tag_17\n      jump\t// in\n    tag_16:\n      mload(0x40)\n      dup1\n      swap2\n      sub\n      swap1\n      return\n        /* \"contracts/Events.sol\":1468:1637  function setUserDetails(string calldata name, uint256 age) public {\r... */\n    tag_4:\n      tag_18\n      0x04\n      dup1\n      calldatasize\n      sub\n      dup2\n      add\n      swap1\n      tag_19\n      swap2\n      swap1\n      tag_20\n      jump\t// in\n    tag_19:\n      tag_21\n      jump\t// in\n    tag_18:\n      stop\n        /* \"contracts/Events.sol\":2077:2287  function addFund(uint256 _amount) public hasDeposit mayorThanFee(_amount) {\r... */\n    tag_5:\n      tag_22\n      0x04\n      dup1\n      calldatasize\n      sub\n      dup2\n      add\n      swap1\n      tag_23\n      swap2\n      swap1\n      tag_24\n      jump\t// in\n    tag_23:\n      tag_25\n      jump\t// in\n    tag_22:\n      stop\n        /* \"contracts/Events.sol\":1803:1969  function withdraw() public onlyOwner {\r... */\n    tag_6:\n      tag_26\n      tag_27\n      jump\t// in\n    tag_26:\n      stop\n        /* \"contracts/Events.sol\":1645:1750  function getUserDetail() public view returns (User memory){\r... */\n    tag_7:\n      tag_28\n      tag_29\n      jump\t// in\n    tag_28:\n      mload(0x40)\n      tag_30\n      swap2\n      swap1\n      tag_31\n      jump\t// in\n    tag_30:\n      mload(0x40)\n      dup1\n      swap2\n      sub\n      swap1\n      return\n        /* \"contracts/Events.sol\":446:466  address public owner */\n    tag_8:\n      tag_32\n      tag_33\n      jump\t// in\n    tag_32:\n      mload(0x40)\n      tag_34\n      swap2\n      swap1\n      tag_35\n      jump\t// in\n    tag_34:\n      mload(0x40)\n      dup1\n      swap2\n      sub\n      swap1\n      return\n        /* \"contracts/Events.sol\":1122:1307  function deposit(uint256 _amount) public {\r... */\n    tag_9:\n      tag_36\n      0x04\n      dup1\n      calldatasize\n      sub\n      dup2\n      add\n      swap1\n      tag_37\n      swap2\n      swap1\n      tag_24\n      jump\t// in\n    tag_37:\n      tag_38\n      jump\t// in\n    tag_36:\n      stop\n        /* \"contracts/Events.sol\":1315:1424  function checkBalance() public view returns (uint256) {\r... */\n    tag_10:\n      tag_39\n      tag_40\n      jump\t// in\n    tag_39:\n      mload(0x40)\n      tag_41\n      swap2\n      swap1\n      tag_42\n      jump\t// in\n    tag_41:\n      mload(0x40)\n      dup1\n      swap2\n      sub\n      swap1\n      return\n        /* \"contracts/Events.sol\":475:516  mapping(address => User) public usersData */\n    tag_15:\n      mstore(0x20, 0x02)\n      dup1\n      0x00\n      mstore\n      keccak256(0x00, 0x40)\n      0x00\n      swap2\n      pop\n      swap1\n      pop\n      dup1\n      0x00\n      add\n      dup1\n      sload\n      tag_43\n      swap1\n      tag_44\n      jump\t// in\n    tag_43:\n      dup1\n      0x1f\n      add\n      0x20\n      dup1\n      swap2\n      div\n      mul\n      0x20\n      add\n      mload(0x40)\n      swap1\n      dup2\n      add\n      0x40\n      mstore\n      dup1\n      swap3\n      swap2\n      swap1\n      dup2\n      dup2\n      mstore\n      0x20\n      add\n      dup3\n      dup1\n      sload\n      tag_45\n      swap1\n      tag_44\n      jump\t// in\n    tag_45:\n      dup1\n      iszero\n      tag_46\n      jumpi\n      dup1\n      0x1f\n      lt\n      tag_47\n      jumpi\n      0x0100\n      dup1\n      dup4\n      sload\n      div\n      mul\n      dup4\n      mstore\n      swap2\n      0x20\n      add\n      swap2\n      jump(tag_46)\n    tag_47:\n      dup3\n      add\n      swap2\n      swap1\n      0x00\n      mstore\n      keccak256(0x00, 0x20)\n      swap1\n    tag_48:\n      dup2\n      sload\n      dup2\n      mstore\n      swap1\n      0x01\n      add\n      swap1\n      0x20\n      add\n      dup1\n      dup4\n      gt\n      tag_48\n      jumpi\n      dup3\n      swap1\n      sub\n      0x1f\n      and\n      dup3\n      add\n      swap2\n    tag_46:\n      pop\n      pop\n      pop\n      pop\n      pop\n      swap1\n      dup1\n      0x01\n      add\n      sload\n      swap1\n      dup1\n      0x02\n      add\n      sload\n      swap1\n      pop\n      dup4\n      jump\t// out\n        /* \"contracts/Events.sol\":1468:1637  function setUserDetails(string calldata name, uint256 age) public {\r... */\n    tag_21:\n        /* \"contracts/Events.sol\":1569:1587  User(name, age, 0) */\n      mload(0x40)\n      dup1\n      0x60\n      add\n      0x40\n      mstore\n      dup1\n        /* \"contracts/Events.sol\":1574:1578  name */\n      dup5\n      dup5\n        /* \"contracts/Events.sol\":1569:1587  User(name, age, 0) */\n      dup1\n      dup1\n      0x1f\n      add\n      0x20\n      dup1\n      swap2\n      div\n      mul\n      0x20\n      add\n      mload(0x40)\n      swap1\n      dup2\n      add\n      0x40\n      mstore\n      dup1\n      swap4\n      swap3\n      swap2\n      swap1\n      dup2\n      dup2\n      mstore\n      0x20\n      add\n      dup4\n      dup4\n      dup1\n      dup3\n      dup5\n      calldatacopy\n      0x00\n      dup2\n      dup5\n      add\n      mstore\n      not(0x1f)\n      0x1f\n      dup3\n      add\n      and\n      swap1\n      pop\n      dup1\n      dup4\n      add\n      swap3\n      pop\n      pop\n      pop\n      pop\n      pop\n      pop\n      pop\n      dup2\n      mstore\n      0x20\n      add\n        /* \"contracts/Events.sol\":1580:1583  age */\n      dup3\n        /* \"contracts/Events.sol\":1569:1587  User(name, age, 0) */\n      dup2\n      mstore\n      0x20\n      add\n        /* \"contracts/Events.sol\":1585:1586  0 */\n      0x00\n        /* \"contracts/Events.sol\":1569:1587  User(name, age, 0) */\n      dup2\n      mstore\n      pop\n        /* \"contracts/Events.sol\":1545:1554  usersData */\n      0x02\n        /* \"contracts/Events.sol\":1545:1566  usersData[msg.sender] */\n      0x00\n        /* \"contracts/Events.sol\":1555:1565  msg.sender */\n      caller\n        /* \"contracts/Events.sol\":1545:1566  usersData[msg.sender] */\n      0xffffffffffffffffffffffffffffffffffffffff\n      and\n      0xffffffffffffffffffffffffffffffffffffffff\n      and\n      dup2\n      mstore\n      0x20\n      add\n      swap1\n      dup2\n      mstore\n      0x20\n      add\n      0x00\n      keccak256\n        /* \"contracts/Events.sol\":1545:1587  usersData[msg.sender] = User(name, age, 0) */\n      0x00\n      dup3\n      add\n      mload\n      dup2\n      0x00\n      add\n      swap1\n      dup1\n      mload\n      swap1\n      0x20\n      add\n      swap1\n      tag_50\n      swap3\n      swap2\n      swap1\n      tag_51\n      jump\t// in\n    tag_50:\n      pop\n      0x20\n      dup3\n      add\n      mload\n      dup2\n      0x01\n      add\n      sstore\n      0x40\n      dup3\n      add\n      mload\n      dup2\n      0x02\n      add\n      sstore\n      swap1\n      pop\n      pop\n        /* \"contracts/Events.sol\":1603:1629  ProfileUpdated(msg.sender) */\n      0xbe4ec58a792f909e102ee3d745d0c3b34a4d437a54d903c4db098d31c556422f\n        /* \"contracts/Events.sol\":1618:1628  msg.sender */\n      caller\n        /* \"contracts/Events.sol\":1603:1629  ProfileUpdated(msg.sender) */\n      mload(0x40)\n      tag_52\n      swap2\n      swap1\n      tag_35\n      jump\t// in\n    tag_52:\n      mload(0x40)\n      dup1\n      swap2\n      sub\n      swap1\n      log1\n        /* \"contracts/Events.sol\":1468:1637  function setUserDetails(string calldata name, uint256 age) public {\r... */\n      pop\n      pop\n      pop\n      jump\t// out\n        /* \"contracts/Events.sol\":2077:2287  function addFund(uint256 _amount) public hasDeposit mayorThanFee(_amount) {\r... */\n    tag_25:\n        /* \"contracts/Events.sol\":713:729  User memory user */\n      0x00\n        /* \"contracts/Events.sol\":732:741  usersData */\n      0x02\n        /* \"contracts/Events.sol\":732:753  usersData[msg.sender] */\n      0x00\n        /* \"contracts/Events.sol\":742:752  msg.sender */\n      caller\n        /* \"contracts/Events.sol\":732:753  usersData[msg.sender] */\n      0xffffffffffffffffffffffffffffffffffffffff\n      and\n      0xffffffffffffffffffffffffffffffffffffffff\n      and\n      dup2\n      mstore\n      0x20\n      add\n      swap1\n      dup2\n      mstore\n      0x20\n      add\n      0x00\n      keccak256\n        /* \"contracts/Events.sol\":713:753  User memory user = usersData[msg.sender] */\n      mload(0x40)\n      dup1\n      0x60\n      add\n      0x40\n      mstore\n      swap1\n      dup2\n      0x00\n      dup3\n      add\n      dup1\n      sload\n      tag_54\n      swap1\n      tag_44\n      jump\t// in\n    tag_54:\n      dup1\n      0x1f\n      add\n      0x20\n      dup1\n      swap2\n      div\n      mul\n      0x20\n      add\n      mload(0x40)\n      swap1\n      dup2\n      add\n      0x40\n      mstore\n      dup1\n      swap3\n      swap2\n      swap1\n      dup2\n      dup2\n      mstore\n      0x20\n      add\n      dup3\n      dup1\n      sload\n      tag_55\n      swap1\n      tag_44\n      jump\t// in\n    tag_55:\n      dup1\n      iszero\n      tag_56\n      jumpi\n      dup1\n      0x1f\n      lt\n      tag_57\n      jumpi\n      0x0100\n      dup1\n      dup4\n      sload\n      div\n      mul\n      dup4\n      mstore\n      swap2\n      0x20\n      add\n      swap2\n      jump(tag_56)\n    tag_57:\n      dup3\n      add\n      swap2\n      swap1\n      0x00\n      mstore\n      keccak256(0x00, 0x20)\n      swap1\n    tag_58:\n      dup2\n      sload\n      dup2\n      mstore\n      swap1\n      0x01\n      add\n      swap1\n      0x20\n      add\n      dup1\n      dup4\n      gt\n      tag_58\n      jumpi\n      dup3\n      swap1\n      sub\n      0x1f\n      and\n      dup3\n      add\n      swap2\n    tag_56:\n      pop\n      pop\n      pop\n      pop\n      pop\n      dup2\n      mstore\n      0x20\n      add\n      0x01\n      dup3\n      add\n      sload\n      dup2\n      mstore\n      0x20\n      add\n      0x02\n      dup3\n      add\n      sload\n      dup2\n      mstore\n      pop\n      pop\n      swap1\n      pop\n        /* \"contracts/Events.sol\":787:788  0 */\n      0x00\n        /* \"contracts/Events.sol\":772:776  user */\n      dup2\n        /* \"contracts/Events.sol\":772:784  user.balance */\n      0x40\n      add\n      mload\n        /* \"contracts/Events.sol\":772:788  user.balance > 0 */\n      gt\n        /* \"contracts/Events.sol\":764:812  require(user.balance > 0, \"You have to deposit\") */\n      tag_59\n      jumpi\n      mload(0x40)\n      0x08c379a000000000000000000000000000000000000000000000000000000000\n      dup2\n      mstore\n      0x04\n      add\n      tag_60\n      swap1\n      tag_61\n      jump\t// in\n    tag_60:\n      mload(0x40)\n      dup1\n      swap2\n      sub\n      swap1\n      revert\n    tag_59:\n        /* \"contracts/Events.sol\":2142:2149  _amount */\n      dup2\n        /* \"contracts/Events.sol\":983:987  Feed */\n      sload(0x00)\n        /* \"contracts/Events.sol\":972:979  _amount */\n      dup2\n        /* \"contracts/Events.sol\":972:987  _amount <= Feed */\n      gt\n        /* \"contracts/Events.sol\":969:1037  if(_amount <= Feed){\r... */\n      tag_63\n      jumpi\n        /* \"contracts/Events.sol\":1010:1025  AmountToSmall() */\n      mload(0x40)\n      0xe07d327100000000000000000000000000000000000000000000000000000000\n      dup2\n      mstore\n      0x04\n      add\n      mload(0x40)\n      dup1\n      swap2\n      sub\n      swap1\n      revert\n        /* \"contracts/Events.sol\":969:1037  if(_amount <= Feed){\r... */\n    tag_63:\n        /* \"contracts/Events.sol\":2162:2179  User storage user */\n      0x00\n        /* \"contracts/Events.sol\":2182:2191  usersData */\n      0x02\n        /* \"contracts/Events.sol\":2182:2203  usersData[msg.sender] */\n      0x00\n        /* \"contracts/Events.sol\":2192:2202  msg.sender */\n      caller\n        /* \"contracts/Events.sol\":2182:2203  usersData[msg.sender] */\n      0xffffffffffffffffffffffffffffffffffffffff\n      and\n      0xffffffffffffffffffffffffffffffffffffffff\n      and\n      dup2\n      mstore\n      0x20\n      add\n      swap1\n      dup2\n      mstore\n      0x20\n      add\n      0x00\n      keccak256\n        /* \"contracts/Events.sol\":2162:2203  User storage user = usersData[msg.sender] */\n      swap1\n      pop\n        /* \"contracts/Events.sol\":2230:2237  _amount */\n      dup4\n        /* \"contracts/Events.sol\":2214:2218  user */\n      dup2\n        /* \"contracts/Events.sol\":2214:2226  user.balance */\n      0x02\n      add\n      0x00\n        /* \"contracts/Events.sol\":2214:2237  user.balance += _amount */\n      dup3\n      dup3\n      sload\n      tag_65\n      swap2\n      swap1\n      tag_66\n      jump\t// in\n    tag_65:\n      swap3\n      pop\n      pop\n      dup2\n      swap1\n      sstore\n      pop\n        /* \"contracts/Events.sol\":2253:2279  ProfileUpdated(msg.sender) */\n      0xbe4ec58a792f909e102ee3d745d0c3b34a4d437a54d903c4db098d31c556422f\n        /* \"contracts/Events.sol\":2268:2278  msg.sender */\n      caller\n        /* \"contracts/Events.sol\":2253:2279  ProfileUpdated(msg.sender) */\n      mload(0x40)\n      tag_67\n      swap2\n      swap1\n      tag_35\n      jump\t// in\n    tag_67:\n      mload(0x40)\n      dup1\n      swap2\n      sub\n      swap1\n      log1\n        /* \"contracts/Events.sol\":2151:2287  {\r... */\n      pop\n        /* \"contracts/Events.sol\":823:824  _ */\n      pop\n        /* \"contracts/Events.sol\":702:832  {\r... */\n      pop\n        /* \"contracts/Events.sol\":2077:2287  function addFund(uint256 _amount) public hasDeposit mayorThanFee(_amount) {\r... */\n      pop\n      jump\t// out\n        /* \"contracts/Events.sol\":1803:1969  function withdraw() public onlyOwner {\r... */\n    tag_27:\n        /* \"contracts/Events.sol\":579:584  owner */\n      0x01\n      0x00\n      swap1\n      sload\n      swap1\n      0x0100\n      exp\n      swap1\n      div\n      0xffffffffffffffffffffffffffffffffffffffff\n      and\n        /* \"contracts/Events.sol\":565:584  msg.sender == owner */\n      0xffffffffffffffffffffffffffffffffffffffff\n      and\n        /* \"contracts/Events.sol\":565:575  msg.sender */\n      caller\n        /* \"contracts/Events.sol\":565:584  msg.sender == owner */\n      0xffffffffffffffffffffffffffffffffffffffff\n      and\n      eq\n        /* \"contracts/Events.sol\":557:598  require(msg.sender == owner, \"Not owner\") */\n      tag_69\n      jumpi\n      mload(0x40)\n      0x08c379a000000000000000000000000000000000000000000000000000000000\n      dup2\n      mstore\n      0x04\n      add\n      tag_70\n      swap1\n      tag_71\n      jump\t// in\n    tag_70:\n      mload(0x40)\n      dup1\n      swap2\n      sub\n      swap1\n      revert\n    tag_69:\n        /* \"contracts/Events.sol\":1851:1868  User storage user */\n      0x00\n        /* \"contracts/Events.sol\":1871:1880  usersData */\n      0x02\n        /* \"contracts/Events.sol\":1871:1892  usersData[msg.sender] */\n      0x00\n        /* \"contracts/Events.sol\":1881:1891  msg.sender */\n      caller\n        /* \"contracts/Events.sol\":1871:1892  usersData[msg.sender] */\n      0xffffffffffffffffffffffffffffffffffffffff\n      and\n      0xffffffffffffffffffffffffffffffffffffffff\n      and\n      dup2\n      mstore\n      0x20\n      add\n      swap1\n      dup2\n      mstore\n      0x20\n      add\n      0x00\n      keccak256\n        /* \"contracts/Events.sol\":1851:1892  User storage user = usersData[msg.sender] */\n      swap1\n      pop\n        /* \"contracts/Events.sol\":1918:1919  0 */\n      0x00\n        /* \"contracts/Events.sol\":1903:1907  user */\n      dup2\n        /* \"contracts/Events.sol\":1903:1915  user.balance */\n      0x02\n      add\n        /* \"contracts/Events.sol\":1903:1919  user.balance = 0 */\n      dup2\n      swap1\n      sstore\n      pop\n        /* \"contracts/Events.sol\":1935:1961  ProfileUpdated(msg.sender) */\n      0xbe4ec58a792f909e102ee3d745d0c3b34a4d437a54d903c4db098d31c556422f\n        /* \"contracts/Events.sol\":1950:1960  msg.sender */\n      caller\n        /* \"contracts/Events.sol\":1935:1961  ProfileUpdated(msg.sender) */\n      mload(0x40)\n      tag_73\n      swap2\n      swap1\n      tag_35\n      jump\t// in\n    tag_73:\n      mload(0x40)\n      dup1\n      swap2\n      sub\n      swap1\n      log1\n        /* \"contracts/Events.sol\":1840:1969  {\r... */\n      pop\n        /* \"contracts/Events.sol\":1803:1969  function withdraw() public onlyOwner {\r... */\n      jump\t// out\n        /* \"contracts/Events.sol\":1645:1750  function getUserDetail() public view returns (User memory){\r... */\n    tag_29:\n        /* \"contracts/Events.sol\":1691:1702  User memory */\n      tag_74\n      tag_75\n      jump\t// in\n    tag_74:\n        /* \"contracts/Events.sol\":1721:1730  usersData */\n      0x02\n        /* \"contracts/Events.sol\":1721:1742  usersData[msg.sender] */\n      0x00\n        /* \"contracts/Events.sol\":1731:1741  msg.sender */\n      caller\n        /* \"contracts/Events.sol\":1721:1742  usersData[msg.sender] */\n      0xffffffffffffffffffffffffffffffffffffffff\n      and\n      0xffffffffffffffffffffffffffffffffffffffff\n      and\n      dup2\n      mstore\n      0x20\n      add\n      swap1\n      dup2\n      mstore\n      0x20\n      add\n      0x00\n      keccak256\n        /* \"contracts/Events.sol\":1714:1742  return usersData[msg.sender] */\n      mload(0x40)\n      dup1\n      0x60\n      add\n      0x40\n      mstore\n      swap1\n      dup2\n      0x00\n      dup3\n      add\n      dup1\n      sload\n      tag_77\n      swap1\n      tag_44\n      jump\t// in\n    tag_77:\n      dup1\n      0x1f\n      add\n      0x20\n      dup1\n      swap2\n      div\n      mul\n      0x20\n      add\n      mload(0x40)\n      swap1\n      dup2\n      add\n      0x40\n      mstore\n      dup1\n      swap3\n      swap2\n      swap1\n      dup2\n      dup2\n      mstore\n      0x20\n      add\n      dup3\n      dup1\n      sload\n      tag_78\n      swap1\n      tag_44\n      jump\t// in\n    tag_78:\n      dup1\n      iszero\n      tag_79\n      jumpi\n      dup1\n      0x1f\n      lt\n      tag_80\n      jumpi\n      0x0100\n      dup1\n      dup4\n      sload\n      div\n      mul\n      dup4\n      mstore\n      swap2\n      0x20\n      add\n      swap2\n      jump(tag_79)\n    tag_80:\n      dup3\n      add\n      swap2\n      swap1\n      0x00\n      mstore\n      keccak256(0x00, 0x20)\n      swap1\n    tag_81:\n      dup2\n      sload\n      dup2\n      mstore\n      swap1\n      0x01\n      add\n      swap1\n      0x20\n      add\n      dup1\n      dup4\n      gt\n      tag_81\n      jumpi\n      dup3\n      swap1\n      sub\n      0x1f\n      and\n      dup3\n      add\n      swap2\n    tag_79:\n      pop\n      pop\n      pop\n      pop\n      pop\n      dup2\n      mstore\n      0x20\n      add\n      0x01\n      dup3\n      add\n      sload\n      dup2\n      mstore\n      0x20\n      add\n      0x02\n      dup3\n      add\n      sload\n      dup2\n      mstore\n      pop\n      pop\n      swap1\n      pop\n        /* \"contracts/Events.sol\":1645:1750  function getUserDetail() public view returns (User memory){\r... */\n      swap1\n      jump\t// out\n        /* \"contracts/Events.sol\":446:466  address public owner */\n    tag_33:\n      0x01\n      0x00\n      swap1\n      sload\n      swap1\n      0x0100\n      exp\n      swap1\n      div\n      0xffffffffffffffffffffffffffffffffffffffff\n      and\n      dup2\n      jump\t// out\n        /* \"contracts/Events.sol\":1122:1307  function deposit(uint256 _amount) public {\r... */\n    tag_38:\n        /* \"contracts/Events.sol\":1174:1191  User storage user */\n      0x00\n        /* \"contracts/Events.sol\":1194:1203  usersData */\n      0x02\n        /* \"contracts/Events.sol\":1194:1215  usersData[msg.sender] */\n      0x00\n        /* \"contracts/Events.sol\":1204:1214  msg.sender */\n      caller\n        /* \"contracts/Events.sol\":1194:1215  usersData[msg.sender] */\n      0xffffffffffffffffffffffffffffffffffffffff\n      and\n      0xffffffffffffffffffffffffffffffffffffffff\n      and\n      dup2\n      mstore\n      0x20\n      add\n      swap1\n      dup2\n      mstore\n      0x20\n      add\n      0x00\n      keccak256\n        /* \"contracts/Events.sol\":1174:1215  User storage user = usersData[msg.sender] */\n      swap1\n      pop\n        /* \"contracts/Events.sol\":1241:1248  _amount */\n      dup2\n        /* \"contracts/Events.sol\":1226:1230  user */\n      dup2\n        /* \"contracts/Events.sol\":1226:1238  user.balance */\n      0x02\n      add\n        /* \"contracts/Events.sol\":1226:1248  user.balance = _amount */\n      dup2\n      swap1\n      sstore\n      pop\n        /* \"contracts/Events.sol\":1264:1299  FundsDeposited(msg.sender, _amount) */\n      0x543ba50a5eec5e6178218e364b1d0f396157b3c8fa278522c2cb7fd99407d474\n        /* \"contracts/Events.sol\":1279:1289  msg.sender */\n      caller\n        /* \"contracts/Events.sol\":1291:1298  _amount */\n      dup4\n        /* \"contracts/Events.sol\":1264:1299  FundsDeposited(msg.sender, _amount) */\n      mload(0x40)\n      tag_83\n      swap3\n      swap2\n      swap1\n      tag_84\n      jump\t// in\n    tag_83:\n      mload(0x40)\n      dup1\n      swap2\n      sub\n      swap1\n      log1\n        /* \"contracts/Events.sol\":1163:1307  {\r... */\n      pop\n        /* \"contracts/Events.sol\":1122:1307  function deposit(uint256 _amount) public {\r... */\n      pop\n      jump\t// out\n        /* \"contracts/Events.sol\":1315:1424  function checkBalance() public view returns (uint256) {\r... */\n    tag_40:\n        /* \"contracts/Events.sol\":1360:1367  uint256 */\n      0x00\n        /* \"contracts/Events.sol\":1387:1396  usersData */\n      0x02\n        /* \"contracts/Events.sol\":1387:1408  usersData[msg.sender] */\n      0x00\n        /* \"contracts/Events.sol\":1397:1407  msg.sender */\n      caller\n        /* \"contracts/Events.sol\":1387:1408  usersData[msg.sender] */\n      0xffffffffffffffffffffffffffffffffffffffff\n      and\n      0xffffffffffffffffffffffffffffffffffffffff\n      and\n      dup2\n      mstore\n      0x20\n      add\n      swap1\n      dup2\n      mstore\n      0x20\n      add\n      0x00\n      keccak256\n        /* \"contracts/Events.sol\":1387:1416  usersData[msg.sender].balance */\n      0x02\n      add\n      sload\n        /* \"contracts/Events.sol\":1380:1416  return usersData[msg.sender].balance */\n      swap1\n      pop\n        /* \"contracts/Events.sol\":1315:1424  function checkBalance() public view returns (uint256) {\r... */\n      swap1\n      jump\t// out\n    tag_51:\n      dup3\n      dup1\n      sload\n      tag_86\n      swap1\n      tag_44\n      jump\t// in\n    tag_86:\n      swap1\n      0x00\n      mstore\n      keccak256(0x00, 0x20)\n      swap1\n      0x1f\n      add\n      0x20\n      swap1\n      div\n      dup2\n      add\n      swap3\n      dup3\n      tag_88\n      jumpi\n      0x00\n      dup6\n      sstore\n      jump(tag_87)\n    tag_88:\n      dup3\n      0x1f\n      lt\n      tag_89\n      jumpi\n      dup1\n      mload\n      not(0xff)\n      and\n      dup4\n      dup1\n      add\n      or\n      dup6\n      sstore\n      jump(tag_87)\n    tag_89:\n      dup3\n      dup1\n      add\n      0x01\n      add\n      dup6\n      sstore\n      dup3\n      iszero\n      tag_87\n      jumpi\n      swap2\n      dup3\n      add\n    tag_90:\n      dup3\n      dup2\n      gt\n      iszero\n      tag_91\n      jumpi\n      dup3\n      mload\n      dup3\n      sstore\n      swap2\n      0x20\n      add\n      swap2\n      swap1\n      0x01\n      add\n      swap1\n      jump(tag_90)\n    tag_91:\n    tag_87:\n      pop\n      swap1\n      pop\n      tag_92\n      swap2\n      swap1\n      tag_93\n      jump\t// in\n    tag_92:\n      pop\n      swap1\n      jump\t// out\n    tag_75:\n      mload(0x40)\n      dup1\n      0x60\n      add\n      0x40\n      mstore\n      dup1\n      0x60\n      dup2\n      mstore\n      0x20\n      add\n      0x00\n      dup2\n      mstore\n      0x20\n      add\n      0x00\n      dup2\n      mstore\n      pop\n      swap1\n      jump\t// out\n    tag_93:\n    tag_94:\n      dup1\n      dup3\n      gt\n      iszero\n      tag_95\n      jumpi\n      0x00\n      dup2\n      0x00\n      swap1\n      sstore\n      pop\n      0x01\n      add\n      jump(tag_94)\n    tag_95:\n      pop\n      swap1\n      jump\t// out\n        /* \"#utility.yul\":7:146   */\n    tag_97:\n        /* \"#utility.yul\":53:58   */\n      0x00\n        /* \"#utility.yul\":91:97   */\n      dup2\n        /* \"#utility.yul\":78:98   */\n      calldataload\n        /* \"#utility.yul\":69:98   */\n      swap1\n      pop\n        /* \"#utility.yul\":107:140   */\n      tag_99\n        /* \"#utility.yul\":134:139   */\n      dup2\n        /* \"#utility.yul\":107:140   */\n      tag_100\n      jump\t// in\n    tag_99:\n        /* \"#utility.yul\":7:146   */\n      swap3\n      swap2\n      pop\n      pop\n      jump\t// out\n        /* \"#utility.yul\":166:719   */\n    tag_101:\n        /* \"#utility.yul\":224:232   */\n      0x00\n        /* \"#utility.yul\":234:240   */\n      dup1\n        /* \"#utility.yul\":284:287   */\n      dup4\n        /* \"#utility.yul\":277:281   */\n      0x1f\n        /* \"#utility.yul\":269:275   */\n      dup5\n        /* \"#utility.yul\":265:282   */\n      add\n        /* \"#utility.yul\":261:288   */\n      slt\n        /* \"#utility.yul\":251:373   */\n      tag_103\n      jumpi\n        /* \"#utility.yul\":292:371   */\n      tag_104\n      tag_105\n      jump\t// in\n    tag_104:\n        /* \"#utility.yul\":251:373   */\n    tag_103:\n        /* \"#utility.yul\":405:411   */\n      dup3\n        /* \"#utility.yul\":392:412   */\n      calldataload\n        /* \"#utility.yul\":382:412   */\n      swap1\n      pop\n        /* \"#utility.yul\":435:453   */\n      0xffffffffffffffff\n        /* \"#utility.yul\":427:433   */\n      dup2\n        /* \"#utility.yul\":424:454   */\n      gt\n        /* \"#utility.yul\":421:538   */\n      iszero\n      tag_106\n      jumpi\n        /* \"#utility.yul\":457:536   */\n      tag_107\n      tag_108\n      jump\t// in\n    tag_107:\n        /* \"#utility.yul\":421:538   */\n    tag_106:\n        /* \"#utility.yul\":571:575   */\n      0x20\n        /* \"#utility.yul\":563:569   */\n      dup4\n        /* \"#utility.yul\":559:576   */\n      add\n        /* \"#utility.yul\":547:576   */\n      swap2\n      pop\n        /* \"#utility.yul\":625:628   */\n      dup4\n        /* \"#utility.yul\":617:621   */\n      0x01\n        /* \"#utility.yul\":609:615   */\n      dup3\n        /* \"#utility.yul\":605:622   */\n      mul\n        /* \"#utility.yul\":595:603   */\n      dup4\n        /* \"#utility.yul\":591:623   */\n      add\n        /* \"#utility.yul\":588:629   */\n      gt\n        /* \"#utility.yul\":585:713   */\n      iszero\n      tag_109\n      jumpi\n        /* \"#utility.yul\":632:711   */\n      tag_110\n      tag_111\n      jump\t// in\n    tag_110:\n        /* \"#utility.yul\":585:713   */\n    tag_109:\n        /* \"#utility.yul\":166:719   */\n      swap3\n      pop\n      swap3\n      swap1\n      pop\n      jump\t// out\n        /* \"#utility.yul\":725:864   */\n    tag_112:\n        /* \"#utility.yul\":771:776   */\n      0x00\n        /* \"#utility.yul\":809:815   */\n      dup2\n        /* \"#utility.yul\":796:816   */\n      calldataload\n        /* \"#utility.yul\":787:816   */\n      swap1\n      pop\n        /* \"#utility.yul\":825:858   */\n      tag_114\n        /* \"#utility.yul\":852:857   */\n      dup2\n        /* \"#utility.yul\":825:858   */\n      tag_115\n      jump\t// in\n    tag_114:\n        /* \"#utility.yul\":725:864   */\n      swap3\n      swap2\n      pop\n      pop\n      jump\t// out\n        /* \"#utility.yul\":870:1199   */\n    tag_14:\n        /* \"#utility.yul\":929:935   */\n      0x00\n        /* \"#utility.yul\":978:980   */\n      0x20\n        /* \"#utility.yul\":966:975   */\n      dup3\n        /* \"#utility.yul\":957:964   */\n      dup5\n        /* \"#utility.yul\":953:976   */\n      sub\n        /* \"#utility.yul\":949:981   */\n      slt\n        /* \"#utility.yul\":946:1065   */\n      iszero\n      tag_117\n      jumpi\n        /* \"#utility.yul\":984:1063   */\n      tag_118\n      tag_119\n      jump\t// in\n    tag_118:\n        /* \"#utility.yul\":946:1065   */\n    tag_117:\n        /* \"#utility.yul\":1104:1105   */\n      0x00\n        /* \"#utility.yul\":1129:1182   */\n      tag_120\n        /* \"#utility.yul\":1174:1181   */\n      dup5\n        /* \"#utility.yul\":1165:1171   */\n      dup3\n        /* \"#utility.yul\":1154:1163   */\n      dup6\n        /* \"#utility.yul\":1150:1172   */\n      add\n        /* \"#utility.yul\":1129:1182   */\n      tag_97\n      jump\t// in\n    tag_120:\n        /* \"#utility.yul\":1119:1182   */\n      swap2\n      pop\n        /* \"#utility.yul\":1075:1192   */\n      pop\n        /* \"#utility.yul\":870:1199   */\n      swap3\n      swap2\n      pop\n      pop\n      jump\t// out\n        /* \"#utility.yul\":1205:1879   */\n    tag_20:\n        /* \"#utility.yul\":1285:1291   */\n      0x00\n        /* \"#utility.yul\":1293:1299   */\n      dup1\n        /* \"#utility.yul\":1301:1307   */\n      0x00\n        /* \"#utility.yul\":1350:1352   */\n      0x40\n        /* \"#utility.yul\":1338:1347   */\n      dup5\n        /* \"#utility.yul\":1329:1336   */\n      dup7\n        /* \"#utility.yul\":1325:1348   */\n      sub\n        /* \"#utility.yul\":1321:1353   */\n      slt\n        /* \"#utility.yul\":1318:1437   */\n      iszero\n      tag_122\n      jumpi\n        /* \"#utility.yul\":1356:1435   */\n      tag_123\n      tag_119\n      jump\t// in\n    tag_123:\n        /* \"#utility.yul\":1318:1437   */\n    tag_122:\n        /* \"#utility.yul\":1504:1505   */\n      0x00\n        /* \"#utility.yul\":1493:1502   */\n      dup5\n        /* \"#utility.yul\":1489:1506   */\n      add\n        /* \"#utility.yul\":1476:1507   */\n      calldataload\n        /* \"#utility.yul\":1534:1552   */\n      0xffffffffffffffff\n        /* \"#utility.yul\":1526:1532   */\n      dup2\n        /* \"#utility.yul\":1523:1553   */\n      gt\n        /* \"#utility.yul\":1520:1637   */\n      iszero\n      tag_124\n      jumpi\n        /* \"#utility.yul\":1556:1635   */\n      tag_125\n      tag_126\n      jump\t// in\n    tag_125:\n        /* \"#utility.yul\":1520:1637   */\n    tag_124:\n        /* \"#utility.yul\":1669:1734   */\n      tag_127\n        /* \"#utility.yul\":1726:1733   */\n      dup7\n        /* \"#utility.yul\":1717:1723   */\n      dup3\n        /* \"#utility.yul\":1706:1715   */\n      dup8\n        /* \"#utility.yul\":1702:1724   */\n      add\n        /* \"#utility.yul\":1669:1734   */\n      tag_101\n      jump\t// in\n    tag_127:\n        /* \"#utility.yul\":1651:1734   */\n      swap4\n      pop\n      swap4\n      pop\n        /* \"#utility.yul\":1447:1744   */\n      pop\n        /* \"#utility.yul\":1783:1785   */\n      0x20\n        /* \"#utility.yul\":1809:1862   */\n      tag_128\n        /* \"#utility.yul\":1854:1861   */\n      dup7\n        /* \"#utility.yul\":1845:1851   */\n      dup3\n        /* \"#utility.yul\":1834:1843   */\n      dup8\n        /* \"#utility.yul\":1830:1852   */\n      add\n        /* \"#utility.yul\":1809:1862   */\n      tag_112\n      jump\t// in\n    tag_128:\n        /* \"#utility.yul\":1799:1862   */\n      swap2\n      pop\n        /* \"#utility.yul\":1754:1872   */\n      pop\n        /* \"#utility.yul\":1205:1879   */\n      swap3\n      pop\n      swap3\n      pop\n      swap3\n      jump\t// out\n        /* \"#utility.yul\":1885:2214   */\n    tag_24:\n        /* \"#utility.yul\":1944:1950   */\n      0x00\n        /* \"#utility.yul\":1993:1995   */\n      0x20\n        /* \"#utility.yul\":1981:1990   */\n      dup3\n        /* \"#utility.yul\":1972:1979   */\n      dup5\n        /* \"#utility.yul\":1968:1991   */\n      sub\n        /* \"#utility.yul\":1964:1996   */\n      slt\n        /* \"#utility.yul\":1961:2080   */\n      iszero\n      tag_130\n      jumpi\n        /* \"#utility.yul\":1999:2078   */\n      tag_131\n      tag_119\n      jump\t// in\n    tag_131:\n        /* \"#utility.yul\":1961:2080   */\n    tag_130:\n        /* \"#utility.yul\":2119:2120   */\n      0x00\n        /* \"#utility.yul\":2144:2197   */\n      tag_132\n        /* \"#utility.yul\":2189:2196   */\n      dup5\n        /* \"#utility.yul\":2180:2186   */\n      dup3\n        /* \"#utility.yul\":2169:2178   */\n      dup6\n        /* \"#utility.yul\":2165:2187   */\n      add\n        /* \"#utility.yul\":2144:2197   */\n      tag_112\n      jump\t// in\n    tag_132:\n        /* \"#utility.yul\":2134:2197   */\n      swap2\n      pop\n        /* \"#utility.yul\":2090:2207   */\n      pop\n        /* \"#utility.yul\":1885:2214   */\n      swap3\n      swap2\n      pop\n      pop\n      jump\t// out\n        /* \"#utility.yul\":2220:2338   */\n    tag_133:\n        /* \"#utility.yul\":2307:2331   */\n      tag_135\n        /* \"#utility.yul\":2325:2330   */\n      dup2\n        /* \"#utility.yul\":2307:2331   */\n      tag_136\n      jump\t// in\n    tag_135:\n        /* \"#utility.yul\":2302:2305   */\n      dup3\n        /* \"#utility.yul\":2295:2332   */\n      mstore\n        /* \"#utility.yul\":2220:2338   */\n      pop\n      pop\n      jump\t// out\n        /* \"#utility.yul\":2344:2688   */\n    tag_137:\n        /* \"#utility.yul\":2422:2425   */\n      0x00\n        /* \"#utility.yul\":2450:2489   */\n      tag_139\n        /* \"#utility.yul\":2483:2488   */\n      dup3\n        /* \"#utility.yul\":2450:2489   */\n      tag_140\n      jump\t// in\n    tag_139:\n        /* \"#utility.yul\":2505:2566   */\n      tag_141\n        /* \"#utility.yul\":2559:2565   */\n      dup2\n        /* \"#utility.yul\":2554:2557   */\n      dup6\n        /* \"#utility.yul\":2505:2566   */\n      tag_142\n      jump\t// in\n    tag_141:\n        /* \"#utility.yul\":2498:2566   */\n      swap4\n      pop\n        /* \"#utility.yul\":2575:2627   */\n      tag_143\n        /* \"#utility.yul\":2620:2626   */\n      dup2\n        /* \"#utility.yul\":2615:2618   */\n      dup6\n        /* \"#utility.yul\":2608:2612   */\n      0x20\n        /* \"#utility.yul\":2601:2606   */\n      dup7\n        /* \"#utility.yul\":2597:2613   */\n      add\n        /* \"#utility.yul\":2575:2627   */\n      tag_144\n      jump\t// in\n    tag_143:\n        /* \"#utility.yul\":2652:2681   */\n      tag_145\n        /* \"#utility.yul\":2674:2680   */\n      dup2\n        /* \"#utility.yul\":2652:2681   */\n      tag_146\n      jump\t// in\n    tag_145:\n        /* \"#utility.yul\":2647:2650   */\n      dup5\n        /* \"#utility.yul\":2643:2682   */\n      add\n        /* \"#utility.yul\":2636:2682   */\n      swap2\n      pop\n        /* \"#utility.yul\":2426:2688   */\n      pop\n        /* \"#utility.yul\":2344:2688   */\n      swap3\n      swap2\n      pop\n      pop\n      jump\t// out\n        /* \"#utility.yul\":2694:3058   */\n    tag_147:\n        /* \"#utility.yul\":2782:2785   */\n      0x00\n        /* \"#utility.yul\":2810:2849   */\n      tag_149\n        /* \"#utility.yul\":2843:2848   */\n      dup3\n        /* \"#utility.yul\":2810:2849   */\n      tag_140\n      jump\t// in\n    tag_149:\n        /* \"#utility.yul\":2865:2936   */\n      tag_150\n        /* \"#utility.yul\":2929:2935   */\n      dup2\n        /* \"#utility.yul\":2924:2927   */\n      dup6\n        /* \"#utility.yul\":2865:2936   */\n      tag_151\n      jump\t// in\n    tag_150:\n        /* \"#utility.yul\":2858:2936   */\n      swap4\n      pop\n        /* \"#utility.yul\":2945:2997   */\n      tag_152\n        /* \"#utility.yul\":2990:2996   */\n      dup2\n        /* \"#utility.yul\":2985:2988   */\n      dup6\n        /* \"#utility.yul\":2978:2982   */\n      0x20\n        /* \"#utility.yul\":2971:2976   */\n      dup7\n        /* \"#utility.yul\":2967:2983   */\n      add\n        /* \"#utility.yul\":2945:2997   */\n      tag_144\n      jump\t// in\n    tag_152:\n        /* \"#utility.yul\":3022:3051   */\n      tag_153\n        /* \"#utility.yul\":3044:3050   */\n      dup2\n        /* \"#utility.yul\":3022:3051   */\n      tag_146\n      jump\t// in\n    tag_153:\n        /* \"#utility.yul\":3017:3020   */\n      dup5\n        /* \"#utility.yul\":3013:3052   */\n      add\n        /* \"#utility.yul\":3006:3052   */\n      swap2\n      pop\n        /* \"#utility.yul\":2786:3058   */\n      pop\n        /* \"#utility.yul\":2694:3058   */\n      swap3\n      swap2\n      pop\n      pop\n      jump\t// out\n        /* \"#utility.yul\":3064:3430   */\n    tag_154:\n        /* \"#utility.yul\":3206:3209   */\n      0x00\n        /* \"#utility.yul\":3227:3294   */\n      tag_156\n        /* \"#utility.yul\":3291:3293   */\n      0x13\n        /* \"#utility.yul\":3286:3289   */\n      dup4\n        /* \"#utility.yul\":3227:3294   */\n      tag_151\n      jump\t// in\n    tag_156:\n        /* \"#utility.yul\":3220:3294   */\n      swap2\n      pop\n        /* \"#utility.yul\":3303:3396   */\n      tag_157\n        /* \"#utility.yul\":3392:3395   */\n      dup3\n        /* \"#utility.yul\":3303:3396   */\n      tag_158\n      jump\t// in\n    tag_157:\n        /* \"#utility.yul\":3421:3423   */\n      0x20\n        /* \"#utility.yul\":3416:3419   */\n      dup3\n        /* \"#utility.yul\":3412:3424   */\n      add\n        /* \"#utility.yul\":3405:3424   */\n      swap1\n      pop\n        /* \"#utility.yul\":3064:3430   */\n      swap2\n      swap1\n      pop\n      jump\t// out\n        /* \"#utility.yul\":3436:3801   */\n    tag_159:\n        /* \"#utility.yul\":3578:3581   */\n      0x00\n        /* \"#utility.yul\":3599:3665   */\n      tag_161\n        /* \"#utility.yul\":3663:3664   */\n      0x09\n        /* \"#utility.yul\":3658:3661   */\n      dup4\n        /* \"#utility.yul\":3599:3665   */\n      tag_151\n      jump\t// in\n    tag_161:\n        /* \"#utility.yul\":3592:3665   */\n      swap2\n      pop\n        /* \"#utility.yul\":3674:3767   */\n      tag_162\n        /* \"#utility.yul\":3763:3766   */\n      dup3\n        /* \"#utility.yul\":3674:3767   */\n      tag_163\n      jump\t// in\n    tag_162:\n        /* \"#utility.yul\":3792:3794   */\n      0x20\n        /* \"#utility.yul\":3787:3790   */\n      dup3\n        /* \"#utility.yul\":3783:3795   */\n      add\n        /* \"#utility.yul\":3776:3795   */\n      swap1\n      pop\n        /* \"#utility.yul\":3436:3801   */\n      swap2\n      swap1\n      pop\n      jump\t// out\n        /* \"#utility.yul\":3861:4633   */\n    tag_164:\n        /* \"#utility.yul\":3970:3973   */\n      0x00\n        /* \"#utility.yul\":4006:4010   */\n      0x60\n        /* \"#utility.yul\":4001:4004   */\n      dup4\n        /* \"#utility.yul\":3997:4011   */\n      add\n        /* \"#utility.yul\":4093:4097   */\n      0x00\n        /* \"#utility.yul\":4086:4091   */\n      dup4\n        /* \"#utility.yul\":4082:4098   */\n      add\n        /* \"#utility.yul\":4076:4099   */\n      mload\n        /* \"#utility.yul\":4146:4149   */\n      dup5\n        /* \"#utility.yul\":4140:4144   */\n      dup3\n        /* \"#utility.yul\":4136:4150   */\n      sub\n        /* \"#utility.yul\":4129:4133   */\n      0x00\n        /* \"#utility.yul\":4124:4127   */\n      dup7\n        /* \"#utility.yul\":4120:4134   */\n      add\n        /* \"#utility.yul\":4113:4151   */\n      mstore\n        /* \"#utility.yul\":4172:4245   */\n      tag_166\n        /* \"#utility.yul\":4240:4244   */\n      dup3\n        /* \"#utility.yul\":4226:4238   */\n      dup3\n        /* \"#utility.yul\":4172:4245   */\n      tag_137\n      jump\t// in\n    tag_166:\n        /* \"#utility.yul\":4164:4245   */\n      swap2\n      pop\n        /* \"#utility.yul\":4021:4256   */\n      pop\n        /* \"#utility.yul\":4337:4341   */\n      0x20\n        /* \"#utility.yul\":4330:4335   */\n      dup4\n        /* \"#utility.yul\":4326:4342   */\n      add\n        /* \"#utility.yul\":4320:4343   */\n      mload\n        /* \"#utility.yul\":4356:4419   */\n      tag_167\n        /* \"#utility.yul\":4413:4417   */\n      0x20\n        /* \"#utility.yul\":4408:4411   */\n      dup7\n        /* \"#utility.yul\":4404:4418   */\n      add\n        /* \"#utility.yul\":4390:4402   */\n      dup3\n        /* \"#utility.yul\":4356:4419   */\n      tag_168\n      jump\t// in\n    tag_167:\n        /* \"#utility.yul\":4266:4429   */\n      pop\n        /* \"#utility.yul\":4514:4518   */\n      0x40\n        /* \"#utility.yul\":4507:4512   */\n      dup4\n        /* \"#utility.yul\":4503:4519   */\n      add\n        /* \"#utility.yul\":4497:4520   */\n      mload\n        /* \"#utility.yul\":4533:4596   */\n      tag_169\n        /* \"#utility.yul\":4590:4594   */\n      0x40\n        /* \"#utility.yul\":4585:4588   */\n      dup7\n        /* \"#utility.yul\":4581:4595   */\n      add\n        /* \"#utility.yul\":4567:4579   */\n      dup3\n        /* \"#utility.yul\":4533:4596   */\n      tag_168\n      jump\t// in\n    tag_169:\n        /* \"#utility.yul\":4439:4606   */\n      pop\n        /* \"#utility.yul\":4623:4627   */\n      dup1\n        /* \"#utility.yul\":4616:4627   */\n      swap2\n      pop\n        /* \"#utility.yul\":3975:4633   */\n      pop\n        /* \"#utility.yul\":3861:4633   */\n      swap3\n      swap2\n      pop\n      pop\n      jump\t// out\n        /* \"#utility.yul\":4639:4747   */\n    tag_168:\n        /* \"#utility.yul\":4716:4740   */\n      tag_171\n        /* \"#utility.yul\":4734:4739   */\n      dup2\n        /* \"#utility.yul\":4716:4740   */\n      tag_172\n      jump\t// in\n    tag_171:\n        /* \"#utility.yul\":4711:4714   */\n      dup3\n        /* \"#utility.yul\":4704:4741   */\n      mstore\n        /* \"#utility.yul\":4639:4747   */\n      pop\n      pop\n      jump\t// out\n        /* \"#utility.yul\":4753:4871   */\n    tag_173:\n        /* \"#utility.yul\":4840:4864   */\n      tag_175\n        /* \"#utility.yul\":4858:4863   */\n      dup2\n        /* \"#utility.yul\":4840:4864   */\n      tag_172\n      jump\t// in\n    tag_175:\n        /* \"#utility.yul\":4835:4838   */\n      dup3\n        /* \"#utility.yul\":4828:4865   */\n      mstore\n        /* \"#utility.yul\":4753:4871   */\n      pop\n      pop\n      jump\t// out\n        /* \"#utility.yul\":4877:5099   */\n    tag_35:\n        /* \"#utility.yul\":4970:4974   */\n      0x00\n        /* \"#utility.yul\":5008:5010   */\n      0x20\n        /* \"#utility.yul\":4997:5006   */\n      dup3\n        /* \"#utility.yul\":4993:5011   */\n      add\n        /* \"#utility.yul\":4985:5011   */\n      swap1\n      pop\n        /* \"#utility.yul\":5021:5092   */\n      tag_177\n        /* \"#utility.yul\":5089:5090   */\n      0x00\n        /* \"#utility.yul\":5078:5087   */\n      dup4\n        /* \"#utility.yul\":5074:5091   */\n      add\n        /* \"#utility.yul\":5065:5071   */\n      dup5\n        /* \"#utility.yul\":5021:5092   */\n      tag_133\n      jump\t// in\n    tag_177:\n        /* \"#utility.yul\":4877:5099   */\n      swap3\n      swap2\n      pop\n      pop\n      jump\t// out\n        /* \"#utility.yul\":5105:5437   */\n    tag_84:\n        /* \"#utility.yul\":5226:5230   */\n      0x00\n        /* \"#utility.yul\":5264:5266   */\n      0x40\n        /* \"#utility.yul\":5253:5262   */\n      dup3\n        /* \"#utility.yul\":5249:5267   */\n      add\n        /* \"#utility.yul\":5241:5267   */\n      swap1\n      pop\n        /* \"#utility.yul\":5277:5348   */\n      tag_179\n        /* \"#utility.yul\":5345:5346   */\n      0x00\n        /* \"#utility.yul\":5334:5343   */\n      dup4\n        /* \"#utility.yul\":5330:5347   */\n      add\n        /* \"#utility.yul\":5321:5327   */\n      dup6\n        /* \"#utility.yul\":5277:5348   */\n      tag_133\n      jump\t// in\n    tag_179:\n        /* \"#utility.yul\":5358:5430   */\n      tag_180\n        /* \"#utility.yul\":5426:5428   */\n      0x20\n        /* \"#utility.yul\":5415:5424   */\n      dup4\n        /* \"#utility.yul\":5411:5429   */\n      add\n        /* \"#utility.yul\":5402:5408   */\n      dup5\n        /* \"#utility.yul\":5358:5430   */\n      tag_173\n      jump\t// in\n    tag_180:\n        /* \"#utility.yul\":5105:5437   */\n      swap4\n      swap3\n      pop\n      pop\n      pop\n      jump\t// out\n        /* \"#utility.yul\":5443:5976   */\n    tag_17:\n        /* \"#utility.yul\":5612:5616   */\n      0x00\n        /* \"#utility.yul\":5650:5652   */\n      0x60\n        /* \"#utility.yul\":5639:5648   */\n      dup3\n        /* \"#utility.yul\":5635:5653   */\n      add\n        /* \"#utility.yul\":5627:5653   */\n      swap1\n      pop\n        /* \"#utility.yul\":5699:5708   */\n      dup2\n        /* \"#utility.yul\":5693:5697   */\n      dup2\n        /* \"#utility.yul\":5689:5709   */\n      sub\n        /* \"#utility.yul\":5685:5686   */\n      0x00\n        /* \"#utility.yul\":5674:5683   */\n      dup4\n        /* \"#utility.yul\":5670:5687   */\n      add\n        /* \"#utility.yul\":5663:5710   */\n      mstore\n        /* \"#utility.yul\":5727:5805   */\n      tag_182\n        /* \"#utility.yul\":5800:5804   */\n      dup2\n        /* \"#utility.yul\":5791:5797   */\n      dup7\n        /* \"#utility.yul\":5727:5805   */\n      tag_147\n      jump\t// in\n    tag_182:\n        /* \"#utility.yul\":5719:5805   */\n      swap1\n      pop\n        /* \"#utility.yul\":5815:5887   */\n      tag_183\n        /* \"#utility.yul\":5883:5885   */\n      0x20\n        /* \"#utility.yul\":5872:5881   */\n      dup4\n        /* \"#utility.yul\":5868:5886   */\n      add\n        /* \"#utility.yul\":5859:5865   */\n      dup6\n        /* \"#utility.yul\":5815:5887   */\n      tag_173\n      jump\t// in\n    tag_183:\n        /* \"#utility.yul\":5897:5969   */\n      tag_184\n        /* \"#utility.yul\":5965:5967   */\n      0x40\n        /* \"#utility.yul\":5954:5963   */\n      dup4\n        /* \"#utility.yul\":5950:5968   */\n      add\n        /* \"#utility.yul\":5941:5947   */\n      dup5\n        /* \"#utility.yul\":5897:5969   */\n      tag_173\n      jump\t// in\n    tag_184:\n        /* \"#utility.yul\":5443:5976   */\n      swap5\n      swap4\n      pop\n      pop\n      pop\n      pop\n      jump\t// out\n        /* \"#utility.yul\":5982:6401   */\n    tag_61:\n        /* \"#utility.yul\":6148:6152   */\n      0x00\n        /* \"#utility.yul\":6186:6188   */\n      0x20\n        /* \"#utility.yul\":6175:6184   */\n      dup3\n        /* \"#utility.yul\":6171:6189   */\n      add\n        /* \"#utility.yul\":6163:6189   */\n      swap1\n      pop\n        /* \"#utility.yul\":6235:6244   */\n      dup2\n        /* \"#utility.yul\":6229:6233   */\n      dup2\n        /* \"#utility.yul\":6225:6245   */\n      sub\n        /* \"#utility.yul\":6221:6222   */\n      0x00\n        /* \"#utility.yul\":6210:6219   */\n      dup4\n        /* \"#utility.yul\":6206:6223   */\n      add\n        /* \"#utility.yul\":6199:6246   */\n      mstore\n        /* \"#utility.yul\":6263:6394   */\n      tag_186\n        /* \"#utility.yul\":6389:6393   */\n      dup2\n        /* \"#utility.yul\":6263:6394   */\n      tag_154\n      jump\t// in\n    tag_186:\n        /* \"#utility.yul\":6255:6394   */\n      swap1\n      pop\n        /* \"#utility.yul\":5982:6401   */\n      swap2\n      swap1\n      pop\n      jump\t// out\n        /* \"#utility.yul\":6407:6826   */\n    tag_71:\n        /* \"#utility.yul\":6573:6577   */\n      0x00\n        /* \"#utility.yul\":6611:6613   */\n      0x20\n        /* \"#utility.yul\":6600:6609   */\n      dup3\n        /* \"#utility.yul\":6596:6614   */\n      add\n        /* \"#utility.yul\":6588:6614   */\n      swap1\n      pop\n        /* \"#utility.yul\":6660:6669   */\n      dup2\n        /* \"#utility.yul\":6654:6658   */\n      dup2\n        /* \"#utility.yul\":6650:6670   */\n      sub\n        /* \"#utility.yul\":6646:6647   */\n      0x00\n        /* \"#utility.yul\":6635:6644   */\n      dup4\n        /* \"#utility.yul\":6631:6648   */\n      add\n        /* \"#utility.yul\":6624:6671   */\n      mstore\n        /* \"#utility.yul\":6688:6819   */\n      tag_188\n        /* \"#utility.yul\":6814:6818   */\n      dup2\n        /* \"#utility.yul\":6688:6819   */\n      tag_159\n      jump\t// in\n    tag_188:\n        /* \"#utility.yul\":6680:6819   */\n      swap1\n      pop\n        /* \"#utility.yul\":6407:6826   */\n      swap2\n      swap1\n      pop\n      jump\t// out\n        /* \"#utility.yul\":6832:7185   */\n    tag_31:\n        /* \"#utility.yul\":6965:6969   */\n      0x00\n        /* \"#utility.yul\":7003:7005   */\n      0x20\n        /* \"#utility.yul\":6992:7001   */\n      dup3\n        /* \"#utility.yul\":6988:7006   */\n      add\n        /* \"#utility.yul\":6980:7006   */\n      swap1\n      pop\n        /* \"#utility.yul\":7052:7061   */\n      dup2\n        /* \"#utility.yul\":7046:7050   */\n      dup2\n        /* \"#utility.yul\":7042:7062   */\n      sub\n        /* \"#utility.yul\":7038:7039   */\n      0x00\n        /* \"#utility.yul\":7027:7036   */\n      dup4\n        /* \"#utility.yul\":7023:7040   */\n      add\n        /* \"#utility.yul\":7016:7063   */\n      mstore\n        /* \"#utility.yul\":7080:7178   */\n      tag_190\n        /* \"#utility.yul\":7173:7177   */\n      dup2\n        /* \"#utility.yul\":7164:7170   */\n      dup5\n        /* \"#utility.yul\":7080:7178   */\n      tag_164\n      jump\t// in\n    tag_190:\n        /* \"#utility.yul\":7072:7178   */\n      swap1\n      pop\n        /* \"#utility.yul\":6832:7185   */\n      swap3\n      swap2\n      pop\n      pop\n      jump\t// out\n        /* \"#utility.yul\":7191:7413   */\n    tag_42:\n        /* \"#utility.yul\":7284:7288   */\n      0x00\n        /* \"#utility.yul\":7322:7324   */\n      0x20\n        /* \"#utility.yul\":7311:7320   */\n      dup3\n        /* \"#utility.yul\":7307:7325   */\n      add\n        /* \"#utility.yul\":7299:7325   */\n      swap1\n      pop\n        /* \"#utility.yul\":7335:7406   */\n      tag_192\n        /* \"#utility.yul\":7403:7404   */\n      0x00\n        /* \"#utility.yul\":7392:7401   */\n      dup4\n        /* \"#utility.yul\":7388:7405   */\n      add\n        /* \"#utility.yul\":7379:7385   */\n      dup5\n        /* \"#utility.yul\":7335:7406   */\n      tag_173\n      jump\t// in\n    tag_192:\n        /* \"#utility.yul\":7191:7413   */\n      swap3\n      swap2\n      pop\n      pop\n      jump\t// out\n        /* \"#utility.yul\":7500:7599   */\n    tag_140:\n        /* \"#utility.yul\":7552:7558   */\n      0x00\n        /* \"#utility.yul\":7586:7591   */\n      dup2\n        /* \"#utility.yul\":7580:7592   */\n      mload\n        /* \"#utility.yul\":7570:7592   */\n      swap1\n      pop\n        /* \"#utility.yul\":7500:7599   */\n      swap2\n      swap1\n      pop\n      jump\t// out\n        /* \"#utility.yul\":7605:7764   */\n    tag_142:\n        /* \"#utility.yul\":7679:7690   */\n      0x00\n        /* \"#utility.yul\":7713:7719   */\n      dup3\n        /* \"#utility.yul\":7708:7711   */\n      dup3\n        /* \"#utility.yul\":7701:7720   */\n      mstore\n        /* \"#utility.yul\":7753:7757   */\n      0x20\n        /* \"#utility.yul\":7748:7751   */\n      dup3\n        /* \"#utility.yul\":7744:7758   */\n      add\n        /* \"#utility.yul\":7729:7758   */\n      swap1\n      pop\n        /* \"#utility.yul\":7605:7764   */\n      swap3\n      swap2\n      pop\n      pop\n      jump\t// out\n        /* \"#utility.yul\":7770:7939   */\n    tag_151:\n        /* \"#utility.yul\":7854:7865   */\n      0x00\n        /* \"#utility.yul\":7888:7894   */\n      dup3\n        /* \"#utility.yul\":7883:7886   */\n      dup3\n        /* \"#utility.yul\":7876:7895   */\n      mstore\n        /* \"#utility.yul\":7928:7932   */\n      0x20\n        /* \"#utility.yul\":7923:7926   */\n      dup3\n        /* \"#utility.yul\":7919:7933   */\n      add\n        /* \"#utility.yul\":7904:7933   */\n      swap1\n      pop\n        /* \"#utility.yul\":7770:7939   */\n      swap3\n      swap2\n      pop\n      pop\n      jump\t// out\n        /* \"#utility.yul\":7945:8250   */\n    tag_66:\n        /* \"#utility.yul\":7985:7988   */\n      0x00\n        /* \"#utility.yul\":8004:8024   */\n      tag_199\n        /* \"#utility.yul\":8022:8023   */\n      dup3\n        /* \"#utility.yul\":8004:8024   */\n      tag_172\n      jump\t// in\n    tag_199:\n        /* \"#utility.yul\":7999:8024   */\n      swap2\n      pop\n        /* \"#utility.yul\":8038:8058   */\n      tag_200\n        /* \"#utility.yul\":8056:8057   */\n      dup4\n        /* \"#utility.yul\":8038:8058   */\n      tag_172\n      jump\t// in\n    tag_200:\n        /* \"#utility.yul\":8033:8058   */\n      swap3\n      pop\n        /* \"#utility.yul\":8192:8193   */\n      dup3\n        /* \"#utility.yul\":8124:8190   */\n      0xffffffffffffffffffffffffffffffffffffffffffffffffffffffffffffffff\n        /* \"#utility.yul\":8120:8194   */\n      sub\n        /* \"#utility.yul\":8117:8118   */\n      dup3\n        /* \"#utility.yul\":8114:8195   */\n      gt\n        /* \"#utility.yul\":8111:8218   */\n      iszero\n      tag_201\n      jumpi\n        /* \"#utility.yul\":8198:8216   */\n      tag_202\n      tag_203\n      jump\t// in\n    tag_202:\n        /* \"#utility.yul\":8111:8218   */\n    tag_201:\n        /* \"#utility.yul\":8242:8243   */\n      dup3\n        /* \"#utility.yul\":8239:8240   */\n      dup3\n        /* \"#utility.yul\":8235:8244   */\n      add\n        /* \"#utility.yul\":8228:8244   */\n      swap1\n      pop\n        /* \"#utility.yul\":7945:8250   */\n      swap3\n      swap2\n      pop\n      pop\n      jump\t// out\n        /* \"#utility.yul\":8256:8352   */\n    tag_136:\n        /* \"#utility.yul\":8293:8300   */\n      0x00\n        /* \"#utility.yul\":8322:8346   */\n      tag_205\n        /* \"#utility.yul\":8340:8345   */\n      dup3\n        /* \"#utility.yul\":8322:8346   */\n      tag_206\n      jump\t// in\n    tag_205:\n        /* \"#utility.yul\":8311:8346   */\n      swap1\n      pop\n        /* \"#utility.yul\":8256:8352   */\n      swap2\n      swap1\n      pop\n      jump\t// out\n        /* \"#utility.yul\":8358:8484   */\n    tag_206:\n        /* \"#utility.yul\":8395:8402   */\n      0x00\n        /* \"#utility.yul\":8435:8477   */\n      0xffffffffffffffffffffffffffffffffffffffff\n        /* \"#utility.yul\":8428:8433   */\n      dup3\n        /* \"#utility.yul\":8424:8478   */\n      and\n        /* \"#utility.yul\":8413:8478   */\n      swap1\n      pop\n        /* \"#utility.yul\":8358:8484   */\n      swap2\n      swap1\n      pop\n      jump\t// out\n        /* \"#utility.yul\":8490:8567   */\n    tag_172:\n        /* \"#utility.yul\":8527:8534   */\n      0x00\n        /* \"#utility.yul\":8556:8561   */\n      dup2\n        /* \"#utility.yul\":8545:8561   */\n      swap1\n      pop\n        /* \"#utility.yul\":8490:8567   */\n      swap2\n      swap1\n      pop\n      jump\t// out\n        /* \"#utility.yul\":8573:8880   */\n    tag_144:\n        /* \"#utility.yul\":8641:8642   */\n      0x00\n        /* \"#utility.yul\":8651:8764   */\n    tag_210:\n        /* \"#utility.yul\":8665:8671   */\n      dup4\n        /* \"#utility.yul\":8662:8663   */\n      dup2\n        /* \"#utility.yul\":8659:8672   */\n      lt\n        /* \"#utility.yul\":8651:8764   */\n      iszero\n      tag_212\n      jumpi\n        /* \"#utility.yul\":8750:8751   */\n      dup1\n        /* \"#utility.yul\":8745:8748   */\n      dup3\n        /* \"#utility.yul\":8741:8752   */\n      add\n        /* \"#utility.yul\":8735:8753   */\n      mload\n        /* \"#utility.yul\":8731:8732   */\n      dup2\n        /* \"#utility.yul\":8726:8729   */\n      dup5\n        /* \"#utility.yul\":8722:8733   */\n      add\n        /* \"#utility.yul\":8715:8754   */\n      mstore\n        /* \"#utility.yul\":8687:8689   */\n      0x20\n        /* \"#utility.yul\":8684:8685   */\n      dup2\n        /* \"#utility.yul\":8680:8690   */\n      add\n        /* \"#utility.yul\":8675:8690   */\n      swap1\n      pop\n        /* \"#utility.yul\":8651:8764   */\n      jump(tag_210)\n    tag_212:\n        /* \"#utility.yul\":8782:8788   */\n      dup4\n        /* \"#utility.yul\":8779:8780   */\n      dup2\n        /* \"#utility.yul\":8776:8789   */\n      gt\n        /* \"#utility.yul\":8773:8874   */\n      iszero\n      tag_213\n      jumpi\n        /* \"#utility.yul\":8862:8863   */\n      0x00\n        /* \"#utility.yul\":8853:8859   */\n      dup5\n        /* \"#utility.yul\":8848:8851   */\n      dup5\n        /* \"#utility.yul\":8844:8860   */\n      add\n        /* \"#utility.yul\":8837:8864   */\n      mstore\n        /* \"#utility.yul\":8773:8874   */\n    tag_213:\n        /* \"#utility.yul\":8622:8880   */\n      pop\n        /* \"#utility.yul\":8573:8880   */\n      pop\n      pop\n      pop\n      jump\t// out\n        /* \"#utility.yul\":8886:9206   */\n    tag_44:\n        /* \"#utility.yul\":8930:8936   */\n      0x00\n        /* \"#utility.yul\":8967:8968   */\n      0x02\n        /* \"#utility.yul\":8961:8965   */\n      dup3\n        /* \"#utility.yul\":8957:8969   */\n      div\n        /* \"#utility.yul\":8947:8969   */\n      swap1\n      pop\n        /* \"#utility.yul\":9014:9015   */\n      0x01\n        /* \"#utility.yul\":9008:9012   */\n      dup3\n        /* \"#utility.yul\":9004:9016   */\n      and\n        /* \"#utility.yul\":9035:9053   */\n      dup1\n        /* \"#utility.yul\":9025:9106   */\n      tag_215\n      jumpi\n        /* \"#utility.yul\":9091:9095   */\n      0x7f\n        /* \"#utility.yul\":9083:9089   */\n      dup3\n        /* \"#utility.yul\":9079:9096   */\n      and\n        /* \"#utility.yul\":9069:9096   */\n      swap2\n      pop\n        /* \"#utility.yul\":9025:9106   */\n    tag_215:\n        /* \"#utility.yul\":9153:9155   */\n      0x20\n        /* \"#utility.yul\":9145:9151   */\n      dup3\n        /* \"#utility.yul\":9142:9156   */\n      lt\n        /* \"#utility.yul\":9122:9140   */\n      dup2\n        /* \"#utility.yul\":9119:9157   */\n      eq\n        /* \"#utility.yul\":9116:9200   */\n      iszero\n      tag_216\n      jumpi\n        /* \"#utility.yul\":9172:9190   */\n      tag_217\n      tag_218\n      jump\t// in\n    tag_217:\n        /* \"#utility.yul\":9116:9200   */\n    tag_216:\n        /* \"#utility.yul\":8937:9206   */\n      pop\n        /* \"#utility.yul\":8886:9206   */\n      swap2\n      swap1\n      pop\n      jump\t// out\n        /* \"#utility.yul\":9212:9392   */\n    tag_203:\n        /* \"#utility.yul\":9260:9337   */\n      0x4e487b7100000000000000000000000000000000000000000000000000000000\n        /* \"#utility.yul\":9257:9258   */\n      0x00\n        /* \"#utility.yul\":9250:9338   */\n      mstore\n        /* \"#utility.yul\":9357:9361   */\n      0x11\n        /* \"#utility.yul\":9354:9355   */\n      0x04\n        /* \"#utility.yul\":9347:9362   */\n      mstore\n        /* \"#utility.yul\":9381:9385   */\n      0x24\n        /* \"#utility.yul\":9378:9379   */\n      0x00\n        /* \"#utility.yul\":9371:9386   */\n      revert\n        /* \"#utility.yul\":9398:9578   */\n    tag_218:\n        /* \"#utility.yul\":9446:9523   */\n      0x4e487b7100000000000000000000000000000000000000000000000000000000\n        /* \"#utility.yul\":9443:9444   */\n      0x00\n        /* \"#utility.yul\":9436:9524   */\n      mstore\n        /* \"#utility.yul\":9543:9547   */\n      0x22\n        /* \"#utility.yul\":9540:9541   */\n      0x04\n        /* \"#utility.yul\":9533:9548   */\n      mstore\n        /* \"#utility.yul\":9567:9571   */\n      0x24\n        /* \"#utility.yul\":9564:9565   */\n      0x00\n        /* \"#utility.yul\":9557:9572   */\n      revert\n        /* \"#utility.yul\":9584:9701   */\n    tag_108:\n        /* \"#utility.yul\":9693:9694   */\n      0x00\n        /* \"#utility.yul\":9690:9691   */\n      dup1\n        /* \"#utility.yul\":9683:9695   */\n      revert\n        /* \"#utility.yul\":9707:9824   */\n    tag_105:\n        /* \"#utility.yul\":9816:9817   */\n      0x00\n        /* \"#utility.yul\":9813:9814   */\n      dup1\n        /* \"#utility.yul\":9806:9818   */\n      revert\n        /* \"#utility.yul\":9830:9947   */\n    tag_111:\n        /* \"#utility.yul\":9939:9940   */\n      0x00\n        /* \"#utility.yul\":9936:9937   */\n      dup1\n        /* \"#utility.yul\":9929:9941   */\n      revert\n        /* \"#utility.yul\":9953:10070   */\n    tag_126:\n        /* \"#utility.yul\":10062:10063   */\n      0x00\n        /* \"#utility.yul\":10059:10060   */\n      dup1\n        /* \"#utility.yul\":10052:10064   */\n      revert\n        /* \"#utility.yul\":10076:10193   */\n    tag_119:\n        /* \"#utility.yul\":10185:10186   */\n      0x00\n        /* \"#utility.yul\":10182:10183   */\n      dup1\n        /* \"#utility.yul\":10175:10187   */\n      revert\n        /* \"#utility.yul\":10199:10301   */\n    tag_146:\n        /* \"#utility.yul\":10240:10246   */\n      0x00\n        /* \"#utility.yul\":10291:10293   */\n      0x1f\n        /* \"#utility.yul\":10287:10294   */\n      not\n        /* \"#utility.yul\":10282:10284   */\n      0x1f\n        /* \"#utility.yul\":10275:10280   */\n      dup4\n        /* \"#utility.yul\":10271:10285   */\n      add\n        /* \"#utility.yul\":10267:10295   */\n      and\n        /* \"#utility.yul\":10257:10295   */\n      swap1\n      pop\n        /* \"#utility.yul\":10199:10301   */\n      swap2\n      swap1\n      pop\n      jump\t// out\n        /* \"#utility.yul\":10307:10476   */\n    tag_158:\n        /* \"#utility.yul\":10447:10468   */\n      0x596f75206861766520746f206465706f73697400000000000000000000000000\n        /* \"#utility.yul\":10443:10444   */\n      0x00\n        /* \"#utility.yul\":10435:10441   */\n      dup3\n        /* \"#utility.yul\":10431:10445   */\n      add\n        /* \"#utility.yul\":10424:10469   */\n      mstore\n        /* \"#utility.yul\":10307:10476   */\n      pop\n      jump\t// out\n        /* \"#utility.yul\":10482:10641   */\n    tag_163:\n        /* \"#utility.yul\":10622:10633   */\n      0x4e6f74206f776e65720000000000000000000000000000000000000000000000\n        /* \"#utility.yul\":10618:10619   */\n      0x00\n        /* \"#utility.yul\":10610:10616   */\n      dup3\n        /* \"#utility.yul\":10606:10620   */\n      add\n        /* \"#utility.yul\":10599:10634   */\n      mstore\n        /* \"#utility.yul\":10482:10641   */\n      pop\n      jump\t// out\n        /* \"#utility.yul\":10647:10769   */\n    tag_100:\n        /* \"#utility.yul\":10720:10744   */\n      tag_230\n        /* \"#utility.yul\":10738:10743   */\n      dup2\n        /* \"#utility.yul\":10720:10744   */\n      tag_136\n      jump\t// in\n    tag_230:\n        /* \"#utility.yul\":10713:10718   */\n      dup2\n        /* \"#utility.yul\":10710:10745   */\n      eq\n        /* \"#utility.yul\":10700:10763   */\n      tag_231\n      jumpi\n        /* \"#utility.yul\":10759:10760   */\n      0x00\n        /* \"#utility.yul\":10756:10757   */\n      dup1\n        /* \"#utility.yul\":10749:10761   */\n      revert\n        /* \"#utility.yul\":10700:10763   */\n    tag_231:\n        /* \"#utility.yul\":10647:10769   */\n      pop\n      jump\t// out\n        /* \"#utility.yul\":10775:10897   */\n    tag_115:\n        /* \"#utility.yul\":10848:10872   */\n      tag_233\n        /* \"#utility.yul\":10866:10871   */\n      dup2\n        /* \"#utility.yul\":10848:10872   */\n      tag_172\n      jump\t// in\n    tag_233:\n        /* \"#utility.yul\":10841:10846   */\n      dup2\n        /* \"#utility.yul\":10838:10873   */\n      eq\n        /* \"#utility.yul\":10828:10891   */\n      tag_234\n      jumpi\n        /* \"#utility.yul\":10887:10888   */\n      0x00\n        /* \"#utility.yul\":10884:10885   */\n      dup1\n        /* \"#utility.yul\":10877:10889   */\n      revert\n        /* \"#utility.yul\":10828:10891   */\n    tag_234:\n        /* \"#utility.yul\":10775:10897   */\n      pop\n      jump\t// out\n\n    auxdata: 0xa26469706673582212206025cc26d44770592f3a5ed31514dc793f8d1594a26b4520b165d8fff5ca78c264736f6c63430008070033\n}\n",
				"bytecode": {
					"linkReferences": {},
					"object": "6080604052600a60005534801561001557600080fd5b5033600160006101000a81548173ffffffffffffffffffffffffffffffffffffffff021916908373ffffffffffffffffffffffffffffffffffffffff160217905550610eeb806100666000396000f3fe608060405234801561001057600080fd5b50600436106100885760003560e01c80638b326ec21161005b5780638b326ec2146101015780638da5cb5b1461011f578063b6b55f251461013d578063c71daccb1461015957610088565b80630560ab691461008d57806308f6f76e146100bf578063346c96e9146100db5780633ccfd60b146100f7575b600080fd5b6100a760048036038101906100a2919061099b565b610177565b6040516100b693929190610bce565b60405180910390f35b6100d960048036038101906100d491906109c8565b610229565b005b6100f560048036038101906100f09190610a28565b610338565b005b6100ff61054a565b005b610109610661565b6040516101169190610c4c565b60405180910390f35b61012761075e565b6040516101349190610b8a565b60405180910390f35b61015760048036038101906101529190610a28565b610784565b005b61016161080d565b60405161016e9190610c6e565b60405180910390f35b600260205280600052604060002060009150905080600001805461019a90610d7b565b80601f01602080910402602001604051908101604052809291908181526020018280546101c690610d7b565b80156102135780601f106101e857610100808354040283529160200191610213565b820191906000526020600020905b8154815290600101906020018083116101f657829003601f168201915b5050505050908060010154908060020154905083565b604051806060016040528084848080601f016020809104026020016040519081016040528093929190818152602001838380828437600081840152601f19601f8201169050808301925050505050505081526020018281526020016000815250600260003373ffffffffffffffffffffffffffffffffffffffff1673ffffffffffffffffffffffffffffffffffffffff16815260200190815260200160002060008201518160000190805190602001906102e4929190610857565b5060208201518160010155604082015181600201559050507fbe4ec58a792f909e102ee3d745d0c3b34a4d437a54d903c4db098d31c556422f3360405161032b9190610b8a565b60405180910390a1505050565b6000600260003373ffffffffffffffffffffffffffffffffffffffff1673ffffffffffffffffffffffffffffffffffffffff16815260200190815260200160002060405180606001604052908160008201805461039490610d7b565b80601f01602080910402602001604051908101604052809291908181526020018280546103c090610d7b565b801561040d5780601f106103e25761010080835404028352916020019161040d565b820191906000526020600020905b8154815290600101906020018083116103f057829003601f168201915b505050505081526020016001820154815260200160028201548152505090506000816040015111610473576040517f08c379a000000000000000000000000000000000000000000000000000000000815260040161046a90610c0c565b60405180910390fd5b8160005481116104af576040517fe07d327100000000000000000000000000000000000000000000000000000000815260040160405180910390fd5b6000600260003373ffffffffffffffffffffffffffffffffffffffff1673ffffffffffffffffffffffffffffffffffffffff1681526020019081526020016000209050838160020160008282546105069190610cb6565b925050819055507fbe4ec58a792f909e102ee3d745d0c3b34a4d437a54d903c4db098d31c556422f3360405161053c9190610b8a565b60405180910390a150505050565b600160009054906101000a900473ffffffffffffffffffffffffffffffffffffffff1673ffffffffffffffffffffffffffffffffffffffff163373ffffffffffffffffffffffffffffffffffffffff16146105da576040517f08c379a00000000000000000000000000000000000000000000000000000000081526004016105d190610c2c565b60405180910390fd5b6000600260003373ffffffffffffffffffffffffffffffffffffffff1673ffffffffffffffffffffffffffffffffffffffff1681526020019081526020016000209050600081600201819055507fbe4ec58a792f909e102ee3d745d0c3b34a4d437a54d903c4db098d31c556422f336040516106569190610b8a565b60405180910390a150565b6106696108dd565b600260003373ffffffffffffffffffffffffffffffffffffffff1673ffffffffffffffffffffffffffffffffffffffff1681526020019081526020016000206040518060600160405290816000820180546106c390610d7b565b80601f01602080910402602001604051908101604052809291908181526020018280546106ef90610d7b565b801561073c5780601f106107115761010080835404028352916020019161073c565b820191906000526020600020905b81548152906001019060200180831161071f57829003601f168201915b5050505050815260200160018201548152602001600282015481525050905090565b600160009054906101000a900473ffffffffffffffffffffffffffffffffffffffff1681565b6000600260003373ffffffffffffffffffffffffffffffffffffffff1673ffffffffffffffffffffffffffffffffffffffff16815260200190815260200160002090508181600201819055507f543ba50a5eec5e6178218e364b1d0f396157b3c8fa278522c2cb7fd99407d4743383604051610801929190610ba5565b60405180910390a15050565b6000600260003373ffffffffffffffffffffffffffffffffffffffff1673ffffffffffffffffffffffffffffffffffffffff16815260200190815260200160002060020154905090565b82805461086390610d7b565b90600052602060002090601f01602090048101928261088557600085556108cc565b82601f1061089e57805160ff19168380011785556108cc565b828001600101855582156108cc579182015b828111156108cb5782518255916020019190600101906108b0565b5b5090506108d991906108fe565b5090565b60405180606001604052806060815260200160008152602001600081525090565b5b808211156109175760008160009055506001016108ff565b5090565b60008135905061092a81610e87565b92915050565b60008083601f84011261094657610945610e10565b5b8235905067ffffffffffffffff81111561096357610962610e0b565b5b60208301915083600182028301111561097f5761097e610e15565b5b9250929050565b60008135905061099581610e9e565b92915050565b6000602082840312156109b1576109b0610e1f565b5b60006109bf8482850161091b565b91505092915050565b6000806000604084860312156109e1576109e0610e1f565b5b600084013567ffffffffffffffff8111156109ff576109fe610e1a565b5b610a0b86828701610930565b93509350506020610a1e86828701610986565b9150509250925092565b600060208284031215610a3e57610a3d610e1f565b5b6000610a4c84828501610986565b91505092915050565b610a5e81610d0c565b82525050565b6000610a6f82610c89565b610a798185610c94565b9350610a89818560208601610d48565b610a9281610e24565b840191505092915050565b6000610aa882610c89565b610ab28185610ca5565b9350610ac2818560208601610d48565b610acb81610e24565b840191505092915050565b6000610ae3601383610ca5565b9150610aee82610e35565b602082019050919050565b6000610b06600983610ca5565b9150610b1182610e5e565b602082019050919050565b60006060830160008301518482036000860152610b398282610a64565b9150506020830151610b4e6020860182610b6c565b506040830151610b616040860182610b6c565b508091505092915050565b610b7581610d3e565b82525050565b610b8481610d3e565b82525050565b6000602082019050610b9f6000830184610a55565b92915050565b6000604082019050610bba6000830185610a55565b610bc76020830184610b7b565b9392505050565b60006060820190508181036000830152610be88186610a9d565b9050610bf76020830185610b7b565b610c046040830184610b7b565b949350505050565b60006020820190508181036000830152610c2581610ad6565b9050919050565b60006020820190508181036000830152610c4581610af9565b9050919050565b60006020820190508181036000830152610c668184610b1c565b905092915050565b6000602082019050610c836000830184610b7b565b92915050565b600081519050919050565b600082825260208201905092915050565b600082825260208201905092915050565b6000610cc182610d3e565b9150610ccc83610d3e565b9250827fffffffffffffffffffffffffffffffffffffffffffffffffffffffffffffffff03821115610d0157610d00610dad565b5b828201905092915050565b6000610d1782610d1e565b9050919050565b600073ffffffffffffffffffffffffffffffffffffffff82169050919050565b6000819050919050565b60005b83811015610d66578082015181840152602081019050610d4b565b83811115610d75576000848401525b50505050565b60006002820490506001821680610d9357607f821691505b60208210811415610da757610da6610ddc565b5b50919050565b7f4e487b7100000000000000000000000000000000000000000000000000000000600052601160045260246000fd5b7f4e487b7100000000000000000000000000000000000000000000000000000000600052602260045260246000fd5b600080fd5b600080fd5b600080fd5b600080fd5b600080fd5b6000601f19601f8301169050919050565b7f596f75206861766520746f206465706f73697400000000000000000000000000600082015250565b7f4e6f74206f776e65720000000000000000000000000000000000000000000000600082015250565b610e9081610d0c565b8114610e9b57600080fd5b50565b610ea781610d3e565b8114610eb257600080fd5b5056fea26469706673582212206025cc26d44770592f3a5ed31514dc793f8d1594a26b4520b165d8fff5ca78c264736f6c63430008070033",
					"opcodes": "PUSH1 0x80 PUSH1 0x40 MSTORE PUSH1 0xA PUSH1 0x0 SSTORE CALLVALUE DUP1 ISZERO PUSH2 0x15 JUMPI PUSH1 0x0 DUP1 REVERT JUMPDEST POP CALLER PUSH1 0x1 PUSH1 0x0 PUSH2 0x100 EXP DUP2 SLOAD DUP2 PUSH20 0xFFFFFFFFFFFFFFFFFFFFFFFFFFFFFFFFFFFFFFFF MUL NOT AND SWAP1 DUP4 PUSH20 0xFFFFFFFFFFFFFFFFFFFFFFFFFFFFFFFFFFFFFFFF AND MUL OR SWAP1 SSTORE POP PUSH2 0xEEB DUP1 PUSH2 0x66 PUSH1 0x0 CODECOPY PUSH1 0x0 RETURN INVALID PUSH1 0x80 PUSH1 0x40 MSTORE CALLVALUE DUP1 ISZERO PUSH2 0x10 JUMPI PUSH1 0x0 DUP1 REVERT JUMPDEST POP PUSH1 0x4 CALLDATASIZE LT PUSH2 0x88 JUMPI PUSH1 0x0 CALLDATALOAD PUSH1 0xE0 SHR DUP1 PUSH4 0x8B326EC2 GT PUSH2 0x5B JUMPI DUP1 PUSH4 0x8B326EC2 EQ PUSH2 0x101 JUMPI DUP1 PUSH4 0x8DA5CB5B EQ PUSH2 0x11F JUMPI DUP1 PUSH4 0xB6B55F25 EQ PUSH2 0x13D JUMPI DUP1 PUSH4 0xC71DACCB EQ PUSH2 0x159 JUMPI PUSH2 0x88 JUMP JUMPDEST DUP1 PUSH4 0x560AB69 EQ PUSH2 0x8D JUMPI DUP1 PUSH4 0x8F6F76E EQ PUSH2 0xBF JUMPI DUP1 PUSH4 0x346C96E9 EQ PUSH2 0xDB JUMPI DUP1 PUSH4 0x3CCFD60B EQ PUSH2 0xF7 JUMPI JUMPDEST PUSH1 0x0 DUP1 REVERT JUMPDEST PUSH2 0xA7 PUSH1 0x4 DUP1 CALLDATASIZE SUB DUP2 ADD SWAP1 PUSH2 0xA2 SWAP2 SWAP1 PUSH2 0x99B JUMP JUMPDEST PUSH2 0x177 JUMP JUMPDEST PUSH1 0x40 MLOAD PUSH2 0xB6 SWAP4 SWAP3 SWAP2 SWAP1 PUSH2 0xBCE JUMP JUMPDEST PUSH1 0x40 MLOAD DUP1 SWAP2 SUB SWAP1 RETURN JUMPDEST PUSH2 0xD9 PUSH1 0x4 DUP1 CALLDATASIZE SUB DUP2 ADD SWAP1 PUSH2 0xD4 SWAP2 SWAP1 PUSH2 0x9C8 JUMP JUMPDEST PUSH2 0x229 JUMP JUMPDEST STOP JUMPDEST PUSH2 0xF5 PUSH1 0x4 DUP1 CALLDATASIZE SUB DUP2 ADD SWAP1 PUSH2 0xF0 SWAP2 SWAP1 PUSH2 0xA28 JUMP JUMPDEST PUSH2 0x338 JUMP JUMPDEST STOP JUMPDEST PUSH2 0xFF PUSH2 0x54A JUMP JUMPDEST STOP JUMPDEST PUSH2 0x109 PUSH2 0x661 JUMP JUMPDEST PUSH1 0x40 MLOAD PUSH2 0x116 SWAP2 SWAP1 PUSH2 0xC4C JUMP JUMPDEST PUSH1 0x40 MLOAD DUP1 SWAP2 SUB SWAP1 RETURN JUMPDEST PUSH2 0x127 PUSH2 0x75E JUMP JUMPDEST PUSH1 0x40 MLOAD PUSH2 0x134 SWAP2 SWAP1 PUSH2 0xB8A JUMP JUMPDEST PUSH1 0x40 MLOAD DUP1 SWAP2 SUB SWAP1 RETURN JUMPDEST PUSH2 0x157 PUSH1 0x4 DUP1 CALLDATASIZE SUB DUP2 ADD SWAP1 PUSH2 0x152 SWAP2 SWAP1 PUSH2 0xA28 JUMP JUMPDEST PUSH2 0x784 JUMP JUMPDEST STOP JUMPDEST PUSH2 0x161 PUSH2 0x80D JUMP JUMPDEST PUSH1 0x40 MLOAD PUSH2 0x16E SWAP2 SWAP1 PUSH2 0xC6E JUMP JUMPDEST PUSH1 0x40 MLOAD DUP1 SWAP2 SUB SWAP1 RETURN JUMPDEST PUSH1 0x2 PUSH1 0x20 MSTORE DUP1 PUSH1 0x0 MSTORE PUSH1 0x40 PUSH1 0x0 KECCAK256 PUSH1 0x0 SWAP2 POP SWAP1 POP DUP1 PUSH1 0x0 ADD DUP1 SLOAD PUSH2 0x19A SWAP1 PUSH2 0xD7B JUMP JUMPDEST DUP1 PUSH1 0x1F ADD PUSH1 0x20 DUP1 SWAP2 DIV MUL PUSH1 0x20 ADD PUSH1 0x40 MLOAD SWAP1 DUP2 ADD PUSH1 0x40 MSTORE DUP1 SWAP3 SWAP2 SWAP1 DUP2 DUP2 MSTORE PUSH1 0x20 ADD DUP3 DUP1 SLOAD PUSH2 0x1C6 SWAP1 PUSH2 0xD7B JUMP JUMPDEST DUP1 ISZERO PUSH2 0x213 JUMPI DUP1 PUSH1 0x1F LT PUSH2 0x1E8 JUMPI PUSH2 0x100 DUP1 DUP4 SLOAD DIV MUL DUP4 MSTORE SWAP2 PUSH1 0x20 ADD SWAP2 PUSH2 0x213 JUMP JUMPDEST DUP3 ADD SWAP2 SWAP1 PUSH1 0x0 MSTORE PUSH1 0x20 PUSH1 0x0 KECCAK256 SWAP1 JUMPDEST DUP2 SLOAD DUP2 MSTORE SWAP1 PUSH1 0x1 ADD SWAP1 PUSH1 0x20 ADD DUP1 DUP4 GT PUSH2 0x1F6 JUMPI DUP3 SWAP1 SUB PUSH1 0x1F AND DUP3 ADD SWAP2 JUMPDEST POP POP POP POP POP SWAP1 DUP1 PUSH1 0x1 ADD SLOAD SWAP1 DUP1 PUSH1 0x2 ADD SLOAD SWAP1 POP DUP4 JUMP JUMPDEST PUSH1 0x40 MLOAD DUP1 PUSH1 0x60 ADD PUSH1 0x40 MSTORE DUP1 DUP5 DUP5 DUP1 DUP1 PUSH1 0x1F ADD PUSH1 0x20 DUP1 SWAP2 DIV MUL PUSH1 0x20 ADD PUSH1 0x40 MLOAD SWAP1 DUP2 ADD PUSH1 0x40 MSTORE DUP1 SWAP4 SWAP3 SWAP2 SWAP1 DUP2 DUP2 MSTORE PUSH1 0x20 ADD DUP4 DUP4 DUP1 DUP3 DUP5 CALLDATACOPY PUSH1 0x0 DUP2 DUP5 ADD MSTORE PUSH1 0x1F NOT PUSH1 0x1F DUP3 ADD AND SWAP1 POP DUP1 DUP4 ADD SWAP3 POP POP POP POP POP POP POP DUP2 MSTORE PUSH1 0x20 ADD DUP3 DUP2 MSTORE PUSH1 0x20 ADD PUSH1 0x0 DUP2 MSTORE POP PUSH1 0x2 PUSH1 0x0 CALLER PUSH20 0xFFFFFFFFFFFFFFFFFFFFFFFFFFFFFFFFFFFFFFFF AND PUSH20 0xFFFFFFFFFFFFFFFFFFFFFFFFFFFFFFFFFFFFFFFF AND DUP2 MSTORE PUSH1 0x20 ADD SWAP1 DUP2 MSTORE PUSH1 0x20 ADD PUSH1 0x0 KECCAK256 PUSH1 0x0 DUP3 ADD MLOAD DUP2 PUSH1 0x0 ADD SWAP1 DUP1 MLOAD SWAP1 PUSH1 0x20 ADD SWAP1 PUSH2 0x2E4 SWAP3 SWAP2 SWAP1 PUSH2 0x857 JUMP JUMPDEST POP PUSH1 0x20 DUP3 ADD MLOAD DUP2 PUSH1 0x1 ADD SSTORE PUSH1 0x40 DUP3 ADD MLOAD DUP2 PUSH1 0x2 ADD SSTORE SWAP1 POP POP PUSH32 0xBE4EC58A792F909E102EE3D745D0C3B34A4D437A54D903C4DB098D31C556422F CALLER PUSH1 0x40 MLOAD PUSH2 0x32B SWAP2 SWAP1 PUSH2 0xB8A JUMP JUMPDEST PUSH1 0x40 MLOAD DUP1 SWAP2 SUB SWAP1 LOG1 POP POP POP JUMP JUMPDEST PUSH1 0x0 PUSH1 0x2 PUSH1 0x0 CALLER PUSH20 0xFFFFFFFFFFFFFFFFFFFFFFFFFFFFFFFFFFFFFFFF AND PUSH20 0xFFFFFFFFFFFFFFFFFFFFFFFFFFFFFFFFFFFFFFFF AND DUP2 MSTORE PUSH1 0x20 ADD SWAP1 DUP2 MSTORE PUSH1 0x20 ADD PUSH1 0x0 KECCAK256 PUSH1 0x40 MLOAD DUP1 PUSH1 0x60 ADD PUSH1 0x40 MSTORE SWAP1 DUP2 PUSH1 0x0 DUP3 ADD DUP1 SLOAD PUSH2 0x394 SWAP1 PUSH2 0xD7B JUMP JUMPDEST DUP1 PUSH1 0x1F ADD PUSH1 0x20 DUP1 SWAP2 DIV MUL PUSH1 0x20 ADD PUSH1 0x40 MLOAD SWAP1 DUP2 ADD PUSH1 0x40 MSTORE DUP1 SWAP3 SWAP2 SWAP1 DUP2 DUP2 MSTORE PUSH1 0x20 ADD DUP3 DUP1 SLOAD PUSH2 0x3C0 SWAP1 PUSH2 0xD7B JUMP JUMPDEST DUP1 ISZERO PUSH2 0x40D JUMPI DUP1 PUSH1 0x1F LT PUSH2 0x3E2 JUMPI PUSH2 0x100 DUP1 DUP4 SLOAD DIV MUL DUP4 MSTORE SWAP2 PUSH1 0x20 ADD SWAP2 PUSH2 0x40D JUMP JUMPDEST DUP3 ADD SWAP2 SWAP1 PUSH1 0x0 MSTORE PUSH1 0x20 PUSH1 0x0 KECCAK256 SWAP1 JUMPDEST DUP2 SLOAD DUP2 MSTORE SWAP1 PUSH1 0x1 ADD SWAP1 PUSH1 0x20 ADD DUP1 DUP4 GT PUSH2 0x3F0 JUMPI DUP3 SWAP1 SUB PUSH1 0x1F AND DUP3 ADD SWAP2 JUMPDEST POP POP POP POP POP DUP2 MSTORE PUSH1 0x20 ADD PUSH1 0x1 DUP3 ADD SLOAD DUP2 MSTORE PUSH1 0x20 ADD PUSH1 0x2 DUP3 ADD SLOAD DUP2 MSTORE POP POP SWAP1 POP PUSH1 0x0 DUP2 PUSH1 0x40 ADD MLOAD GT PUSH2 0x473 JUMPI PUSH1 0x40 MLOAD PUSH32 0x8C379A000000000000000000000000000000000000000000000000000000000 DUP2 MSTORE PUSH1 0x4 ADD PUSH2 0x46A SWAP1 PUSH2 0xC0C JUMP JUMPDEST PUSH1 0x40 MLOAD DUP1 SWAP2 SUB SWAP1 REVERT JUMPDEST DUP2 PUSH1 0x0 SLOAD DUP2 GT PUSH2 0x4AF JUMPI PUSH1 0x40 MLOAD PUSH32 0xE07D327100000000000000000000000000000000000000000000000000000000 DUP2 MSTORE PUSH1 0x4 ADD PUSH1 0x40 MLOAD DUP1 SWAP2 SUB SWAP1 REVERT JUMPDEST PUSH1 0x0 PUSH1 0x2 PUSH1 0x0 CALLER PUSH20 0xFFFFFFFFFFFFFFFFFFFFFFFFFFFFFFFFFFFFFFFF AND PUSH20 0xFFFFFFFFFFFFFFFFFFFFFFFFFFFFFFFFFFFFFFFF AND DUP2 MSTORE PUSH1 0x20 ADD SWAP1 DUP2 MSTORE PUSH1 0x20 ADD PUSH1 0x0 KECCAK256 SWAP1 POP DUP4 DUP2 PUSH1 0x2 ADD PUSH1 0x0 DUP3 DUP3 SLOAD PUSH2 0x506 SWAP2 SWAP1 PUSH2 0xCB6 JUMP JUMPDEST SWAP3 POP POP DUP2 SWAP1 SSTORE POP PUSH32 0xBE4EC58A792F909E102EE3D745D0C3B34A4D437A54D903C4DB098D31C556422F CALLER PUSH1 0x40 MLOAD PUSH2 0x53C SWAP2 SWAP1 PUSH2 0xB8A JUMP JUMPDEST PUSH1 0x40 MLOAD DUP1 SWAP2 SUB SWAP1 LOG1 POP POP POP POP JUMP JUMPDEST PUSH1 0x1 PUSH1 0x0 SWAP1 SLOAD SWAP1 PUSH2 0x100 EXP SWAP1 DIV PUSH20 0xFFFFFFFFFFFFFFFFFFFFFFFFFFFFFFFFFFFFFFFF AND PUSH20 0xFFFFFFFFFFFFFFFFFFFFFFFFFFFFFFFFFFFFFFFF AND CALLER PUSH20 0xFFFFFFFFFFFFFFFFFFFFFFFFFFFFFFFFFFFFFFFF AND EQ PUSH2 0x5DA JUMPI PUSH1 0x40 MLOAD PUSH32 0x8C379A000000000000000000000000000000000000000000000000000000000 DUP2 MSTORE PUSH1 0x4 ADD PUSH2 0x5D1 SWAP1 PUSH2 0xC2C JUMP JUMPDEST PUSH1 0x40 MLOAD DUP1 SWAP2 SUB SWAP1 REVERT JUMPDEST PUSH1 0x0 PUSH1 0x2 PUSH1 0x0 CALLER PUSH20 0xFFFFFFFFFFFFFFFFFFFFFFFFFFFFFFFFFFFFFFFF AND PUSH20 0xFFFFFFFFFFFFFFFFFFFFFFFFFFFFFFFFFFFFFFFF AND DUP2 MSTORE PUSH1 0x20 ADD SWAP1 DUP2 MSTORE PUSH1 0x20 ADD PUSH1 0x0 KECCAK256 SWAP1 POP PUSH1 0x0 DUP2 PUSH1 0x2 ADD DUP2 SWAP1 SSTORE POP PUSH32 0xBE4EC58A792F909E102EE3D745D0C3B34A4D437A54D903C4DB098D31C556422F CALLER PUSH1 0x40 MLOAD PUSH2 0x656 SWAP2 SWAP1 PUSH2 0xB8A JUMP JUMPDEST PUSH1 0x40 MLOAD DUP1 SWAP2 SUB SWAP1 LOG1 POP JUMP JUMPDEST PUSH2 0x669 PUSH2 0x8DD JUMP JUMPDEST PUSH1 0x2 PUSH1 0x0 CALLER PUSH20 0xFFFFFFFFFFFFFFFFFFFFFFFFFFFFFFFFFFFFFFFF AND PUSH20 0xFFFFFFFFFFFFFFFFFFFFFFFFFFFFFFFFFFFFFFFF AND DUP2 MSTORE PUSH1 0x20 ADD SWAP1 DUP2 MSTORE PUSH1 0x20 ADD PUSH1 0x0 KECCAK256 PUSH1 0x40 MLOAD DUP1 PUSH1 0x60 ADD PUSH1 0x40 MSTORE SWAP1 DUP2 PUSH1 0x0 DUP3 ADD DUP1 SLOAD PUSH2 0x6C3 SWAP1 PUSH2 0xD7B JUMP JUMPDEST DUP1 PUSH1 0x1F ADD PUSH1 0x20 DUP1 SWAP2 DIV MUL PUSH1 0x20 ADD PUSH1 0x40 MLOAD SWAP1 DUP2 ADD PUSH1 0x40 MSTORE DUP1 SWAP3 SWAP2 SWAP1 DUP2 DUP2 MSTORE PUSH1 0x20 ADD DUP3 DUP1 SLOAD PUSH2 0x6EF SWAP1 PUSH2 0xD7B JUMP JUMPDEST DUP1 ISZERO PUSH2 0x73C JUMPI DUP1 PUSH1 0x1F LT PUSH2 0x711 JUMPI PUSH2 0x100 DUP1 DUP4 SLOAD DIV MUL DUP4 MSTORE SWAP2 PUSH1 0x20 ADD SWAP2 PUSH2 0x73C JUMP JUMPDEST DUP3 ADD SWAP2 SWAP1 PUSH1 0x0 MSTORE PUSH1 0x20 PUSH1 0x0 KECCAK256 SWAP1 JUMPDEST DUP2 SLOAD DUP2 MSTORE SWAP1 PUSH1 0x1 ADD SWAP1 PUSH1 0x20 ADD DUP1 DUP4 GT PUSH2 0x71F JUMPI DUP3 SWAP1 SUB PUSH1 0x1F AND DUP3 ADD SWAP2 JUMPDEST POP POP POP POP POP DUP2 MSTORE PUSH1 0x20 ADD PUSH1 0x1 DUP3 ADD SLOAD DUP2 MSTORE PUSH1 0x20 ADD PUSH1 0x2 DUP3 ADD SLOAD DUP2 MSTORE POP POP SWAP1 POP SWAP1 JUMP JUMPDEST PUSH1 0x1 PUSH1 0x0 SWAP1 SLOAD SWAP1 PUSH2 0x100 EXP SWAP1 DIV PUSH20 0xFFFFFFFFFFFFFFFFFFFFFFFFFFFFFFFFFFFFFFFF AND DUP2 JUMP JUMPDEST PUSH1 0x0 PUSH1 0x2 PUSH1 0x0 CALLER PUSH20 0xFFFFFFFFFFFFFFFFFFFFFFFFFFFFFFFFFFFFFFFF AND PUSH20 0xFFFFFFFFFFFFFFFFFFFFFFFFFFFFFFFFFFFFFFFF AND DUP2 MSTORE PUSH1 0x20 ADD SWAP1 DUP2 MSTORE PUSH1 0x20 ADD PUSH1 0x0 KECCAK256 SWAP1 POP DUP2 DUP2 PUSH1 0x2 ADD DUP2 SWAP1 SSTORE POP PUSH32 0x543BA50A5EEC5E6178218E364B1D0F396157B3C8FA278522C2CB7FD99407D474 CALLER DUP4 PUSH1 0x40 MLOAD PUSH2 0x801 SWAP3 SWAP2 SWAP1 PUSH2 0xBA5 JUMP JUMPDEST PUSH1 0x40 MLOAD DUP1 SWAP2 SUB SWAP1 LOG1 POP POP JUMP JUMPDEST PUSH1 0x0 PUSH1 0x2 PUSH1 0x0 CALLER PUSH20 0xFFFFFFFFFFFFFFFFFFFFFFFFFFFFFFFFFFFFFFFF AND PUSH20 0xFFFFFFFFFFFFFFFFFFFFFFFFFFFFFFFFFFFFFFFF AND DUP2 MSTORE PUSH1 0x20 ADD SWAP1 DUP2 MSTORE PUSH1 0x20 ADD PUSH1 0x0 KECCAK256 PUSH1 0x2 ADD SLOAD SWAP1 POP SWAP1 JUMP JUMPDEST DUP3 DUP1 SLOAD PUSH2 0x863 SWAP1 PUSH2 0xD7B JUMP JUMPDEST SWAP1 PUSH1 0x0 MSTORE PUSH1 0x20 PUSH1 0x0 KECCAK256 SWAP1 PUSH1 0x1F ADD PUSH1 0x20 SWAP1 DIV DUP2 ADD SWAP3 DUP3 PUSH2 0x885 JUMPI PUSH1 0x0 DUP6 SSTORE PUSH2 0x8CC JUMP JUMPDEST DUP3 PUSH1 0x1F LT PUSH2 0x89E JUMPI DUP1 MLOAD PUSH1 0xFF NOT AND DUP4 DUP1 ADD OR DUP6 SSTORE PUSH2 0x8CC JUMP JUMPDEST DUP3 DUP1 ADD PUSH1 0x1 ADD DUP6 SSTORE DUP3 ISZERO PUSH2 0x8CC JUMPI SWAP2 DUP3 ADD JUMPDEST DUP3 DUP2 GT ISZERO PUSH2 0x8CB JUMPI DUP3 MLOAD DUP3 SSTORE SWAP2 PUSH1 0x20 ADD SWAP2 SWAP1 PUSH1 0x1 ADD SWAP1 PUSH2 0x8B0 JUMP JUMPDEST JUMPDEST POP SWAP1 POP PUSH2 0x8D9 SWAP2 SWAP1 PUSH2 0x8FE JUMP JUMPDEST POP SWAP1 JUMP JUMPDEST PUSH1 0x40 MLOAD DUP1 PUSH1 0x60 ADD PUSH1 0x40 MSTORE DUP1 PUSH1 0x60 DUP2 MSTORE PUSH1 0x20 ADD PUSH1 0x0 DUP2 MSTORE PUSH1 0x20 ADD PUSH1 0x0 DUP2 MSTORE POP SWAP1 JUMP JUMPDEST JUMPDEST DUP1 DUP3 GT ISZERO PUSH2 0x917 JUMPI PUSH1 0x0 DUP2 PUSH1 0x0 SWAP1 SSTORE POP PUSH1 0x1 ADD PUSH2 0x8FF JUMP JUMPDEST POP SWAP1 JUMP JUMPDEST PUSH1 0x0 DUP2 CALLDATALOAD SWAP1 POP PUSH2 0x92A DUP2 PUSH2 0xE87 JUMP JUMPDEST SWAP3 SWAP2 POP POP JUMP JUMPDEST PUSH1 0x0 DUP1 DUP4 PUSH1 0x1F DUP5 ADD SLT PUSH2 0x946 JUMPI PUSH2 0x945 PUSH2 0xE10 JUMP JUMPDEST JUMPDEST DUP3 CALLDATALOAD SWAP1 POP PUSH8 0xFFFFFFFFFFFFFFFF DUP2 GT ISZERO PUSH2 0x963 JUMPI PUSH2 0x962 PUSH2 0xE0B JUMP JUMPDEST JUMPDEST PUSH1 0x20 DUP4 ADD SWAP2 POP DUP4 PUSH1 0x1 DUP3 MUL DUP4 ADD GT ISZERO PUSH2 0x97F JUMPI PUSH2 0x97E PUSH2 0xE15 JUMP JUMPDEST JUMPDEST SWAP3 POP SWAP3 SWAP1 POP JUMP JUMPDEST PUSH1 0x0 DUP2 CALLDATALOAD SWAP1 POP PUSH2 0x995 DUP2 PUSH2 0xE9E JUMP JUMPDEST SWAP3 SWAP2 POP POP JUMP JUMPDEST PUSH1 0x0 PUSH1 0x20 DUP3 DUP5 SUB SLT ISZERO PUSH2 0x9B1 JUMPI PUSH2 0x9B0 PUSH2 0xE1F JUMP JUMPDEST JUMPDEST PUSH1 0x0 PUSH2 0x9BF DUP5 DUP3 DUP6 ADD PUSH2 0x91B JUMP JUMPDEST SWAP2 POP POP SWAP3 SWAP2 POP POP JUMP JUMPDEST PUSH1 0x0 DUP1 PUSH1 0x0 PUSH1 0x40 DUP5 DUP7 SUB SLT ISZERO PUSH2 0x9E1 JUMPI PUSH2 0x9E0 PUSH2 0xE1F JUMP JUMPDEST JUMPDEST PUSH1 0x0 DUP5 ADD CALLDATALOAD PUSH8 0xFFFFFFFFFFFFFFFF DUP2 GT ISZERO PUSH2 0x9FF JUMPI PUSH2 0x9FE PUSH2 0xE1A JUMP JUMPDEST JUMPDEST PUSH2 0xA0B DUP7 DUP3 DUP8 ADD PUSH2 0x930 JUMP JUMPDEST SWAP4 POP SWAP4 POP POP PUSH1 0x20 PUSH2 0xA1E DUP7 DUP3 DUP8 ADD PUSH2 0x986 JUMP JUMPDEST SWAP2 POP POP SWAP3 POP SWAP3 POP SWAP3 JUMP JUMPDEST PUSH1 0x0 PUSH1 0x20 DUP3 DUP5 SUB SLT ISZERO PUSH2 0xA3E JUMPI PUSH2 0xA3D PUSH2 0xE1F JUMP JUMPDEST JUMPDEST PUSH1 0x0 PUSH2 0xA4C DUP5 DUP3 DUP6 ADD PUSH2 0x986 JUMP JUMPDEST SWAP2 POP POP SWAP3 SWAP2 POP POP JUMP JUMPDEST PUSH2 0xA5E DUP2 PUSH2 0xD0C JUMP JUMPDEST DUP3 MSTORE POP POP JUMP JUMPDEST PUSH1 0x0 PUSH2 0xA6F DUP3 PUSH2 0xC89 JUMP JUMPDEST PUSH2 0xA79 DUP2 DUP6 PUSH2 0xC94 JUMP JUMPDEST SWAP4 POP PUSH2 0xA89 DUP2 DUP6 PUSH1 0x20 DUP7 ADD PUSH2 0xD48 JUMP JUMPDEST PUSH2 0xA92 DUP2 PUSH2 0xE24 JUMP JUMPDEST DUP5 ADD SWAP2 POP POP SWAP3 SWAP2 POP POP JUMP JUMPDEST PUSH1 0x0 PUSH2 0xAA8 DUP3 PUSH2 0xC89 JUMP JUMPDEST PUSH2 0xAB2 DUP2 DUP6 PUSH2 0xCA5 JUMP JUMPDEST SWAP4 POP PUSH2 0xAC2 DUP2 DUP6 PUSH1 0x20 DUP7 ADD PUSH2 0xD48 JUMP JUMPDEST PUSH2 0xACB DUP2 PUSH2 0xE24 JUMP JUMPDEST DUP5 ADD SWAP2 POP POP SWAP3 SWAP2 POP POP JUMP JUMPDEST PUSH1 0x0 PUSH2 0xAE3 PUSH1 0x13 DUP4 PUSH2 0xCA5 JUMP JUMPDEST SWAP2 POP PUSH2 0xAEE DUP3 PUSH2 0xE35 JUMP JUMPDEST PUSH1 0x20 DUP3 ADD SWAP1 POP SWAP2 SWAP1 POP JUMP JUMPDEST PUSH1 0x0 PUSH2 0xB06 PUSH1 0x9 DUP4 PUSH2 0xCA5 JUMP JUMPDEST SWAP2 POP PUSH2 0xB11 DUP3 PUSH2 0xE5E JUMP JUMPDEST PUSH1 0x20 DUP3 ADD SWAP1 POP SWAP2 SWAP1 POP JUMP JUMPDEST PUSH1 0x0 PUSH1 0x60 DUP4 ADD PUSH1 0x0 DUP4 ADD MLOAD DUP5 DUP3 SUB PUSH1 0x0 DUP7 ADD MSTORE PUSH2 0xB39 DUP3 DUP3 PUSH2 0xA64 JUMP JUMPDEST SWAP2 POP POP PUSH1 0x20 DUP4 ADD MLOAD PUSH2 0xB4E PUSH1 0x20 DUP7 ADD DUP3 PUSH2 0xB6C JUMP JUMPDEST POP PUSH1 0x40 DUP4 ADD MLOAD PUSH2 0xB61 PUSH1 0x40 DUP7 ADD DUP3 PUSH2 0xB6C JUMP JUMPDEST POP DUP1 SWAP2 POP POP SWAP3 SWAP2 POP POP JUMP JUMPDEST PUSH2 0xB75 DUP2 PUSH2 0xD3E JUMP JUMPDEST DUP3 MSTORE POP POP JUMP JUMPDEST PUSH2 0xB84 DUP2 PUSH2 0xD3E JUMP JUMPDEST DUP3 MSTORE POP POP JUMP JUMPDEST PUSH1 0x0 PUSH1 0x20 DUP3 ADD SWAP1 POP PUSH2 0xB9F PUSH1 0x0 DUP4 ADD DUP5 PUSH2 0xA55 JUMP JUMPDEST SWAP3 SWAP2 POP POP JUMP JUMPDEST PUSH1 0x0 PUSH1 0x40 DUP3 ADD SWAP1 POP PUSH2 0xBBA PUSH1 0x0 DUP4 ADD DUP6 PUSH2 0xA55 JUMP JUMPDEST PUSH2 0xBC7 PUSH1 0x20 DUP4 ADD DUP5 PUSH2 0xB7B JUMP JUMPDEST SWAP4 SWAP3 POP POP POP JUMP JUMPDEST PUSH1 0x0 PUSH1 0x60 DUP3 ADD SWAP1 POP DUP2 DUP2 SUB PUSH1 0x0 DUP4 ADD MSTORE PUSH2 0xBE8 DUP2 DUP7 PUSH2 0xA9D JUMP JUMPDEST SWAP1 POP PUSH2 0xBF7 PUSH1 0x20 DUP4 ADD DUP6 PUSH2 0xB7B JUMP JUMPDEST PUSH2 0xC04 PUSH1 0x40 DUP4 ADD DUP5 PUSH2 0xB7B JUMP JUMPDEST SWAP5 SWAP4 POP POP POP POP JUMP JUMPDEST PUSH1 0x0 PUSH1 0x20 DUP3 ADD SWAP1 POP DUP2 DUP2 SUB PUSH1 0x0 DUP4 ADD MSTORE PUSH2 0xC25 DUP2 PUSH2 0xAD6 JUMP JUMPDEST SWAP1 POP SWAP2 SWAP1 POP JUMP JUMPDEST PUSH1 0x0 PUSH1 0x20 DUP3 ADD SWAP1 POP DUP2 DUP2 SUB PUSH1 0x0 DUP4 ADD MSTORE PUSH2 0xC45 DUP2 PUSH2 0xAF9 JUMP JUMPDEST SWAP1 POP SWAP2 SWAP1 POP JUMP JUMPDEST PUSH1 0x0 PUSH1 0x20 DUP3 ADD SWAP1 POP DUP2 DUP2 SUB PUSH1 0x0 DUP4 ADD MSTORE PUSH2 0xC66 DUP2 DUP5 PUSH2 0xB1C JUMP JUMPDEST SWAP1 POP SWAP3 SWAP2 POP POP JUMP JUMPDEST PUSH1 0x0 PUSH1 0x20 DUP3 ADD SWAP1 POP PUSH2 0xC83 PUSH1 0x0 DUP4 ADD DUP5 PUSH2 0xB7B JUMP JUMPDEST SWAP3 SWAP2 POP POP JUMP JUMPDEST PUSH1 0x0 DUP2 MLOAD SWAP1 POP SWAP2 SWAP1 POP JUMP JUMPDEST PUSH1 0x0 DUP3 DUP3 MSTORE PUSH1 0x20 DUP3 ADD SWAP1 POP SWAP3 SWAP2 POP POP JUMP JUMPDEST PUSH1 0x0 DUP3 DUP3 MSTORE PUSH1 0x20 DUP3 ADD SWAP1 POP SWAP3 SWAP2 POP POP JUMP JUMPDEST PUSH1 0x0 PUSH2 0xCC1 DUP3 PUSH2 0xD3E JUMP JUMPDEST SWAP2 POP PUSH2 0xCCC DUP4 PUSH2 0xD3E JUMP JUMPDEST SWAP3 POP DUP3 PUSH32 0xFFFFFFFFFFFFFFFFFFFFFFFFFFFFFFFFFFFFFFFFFFFFFFFFFFFFFFFFFFFFFFFF SUB DUP3 GT ISZERO PUSH2 0xD01 JUMPI PUSH2 0xD00 PUSH2 0xDAD JUMP JUMPDEST JUMPDEST DUP3 DUP3 ADD SWAP1 POP SWAP3 SWAP2 POP POP JUMP JUMPDEST PUSH1 0x0 PUSH2 0xD17 DUP3 PUSH2 0xD1E JUMP JUMPDEST SWAP1 POP SWAP2 SWAP1 POP JUMP JUMPDEST PUSH1 0x0 PUSH20 0xFFFFFFFFFFFFFFFFFFFFFFFFFFFFFFFFFFFFFFFF DUP3 AND SWAP1 POP SWAP2 SWAP1 POP JUMP JUMPDEST PUSH1 0x0 DUP2 SWAP1 POP SWAP2 SWAP1 POP JUMP JUMPDEST PUSH1 0x0 JUMPDEST DUP4 DUP2 LT ISZERO PUSH2 0xD66 JUMPI DUP1 DUP3 ADD MLOAD DUP2 DUP5 ADD MSTORE PUSH1 0x20 DUP2 ADD SWAP1 POP PUSH2 0xD4B JUMP JUMPDEST DUP4 DUP2 GT ISZERO PUSH2 0xD75 JUMPI PUSH1 0x0 DUP5 DUP5 ADD MSTORE JUMPDEST POP POP POP POP JUMP JUMPDEST PUSH1 0x0 PUSH1 0x2 DUP3 DIV SWAP1 POP PUSH1 0x1 DUP3 AND DUP1 PUSH2 0xD93 JUMPI PUSH1 0x7F DUP3 AND SWAP2 POP JUMPDEST PUSH1 0x20 DUP3 LT DUP2 EQ ISZERO PUSH2 0xDA7 JUMPI PUSH2 0xDA6 PUSH2 0xDDC JUMP JUMPDEST JUMPDEST POP SWAP2 SWAP1 POP JUMP JUMPDEST PUSH32 0x4E487B7100000000000000000000000000000000000000000000000000000000 PUSH1 0x0 MSTORE PUSH1 0x11 PUSH1 0x4 MSTORE PUSH1 0x24 PUSH1 0x0 REVERT JUMPDEST PUSH32 0x4E487B7100000000000000000000000000000000000000000000000000000000 PUSH1 0x0 MSTORE PUSH1 0x22 PUSH1 0x4 MSTORE PUSH1 0x24 PUSH1 0x0 REVERT JUMPDEST PUSH1 0x0 DUP1 REVERT JUMPDEST PUSH1 0x0 DUP1 REVERT JUMPDEST PUSH1 0x0 DUP1 REVERT JUMPDEST PUSH1 0x0 DUP1 REVERT JUMPDEST PUSH1 0x0 DUP1 REVERT JUMPDEST PUSH1 0x0 PUSH1 0x1F NOT PUSH1 0x1F DUP4 ADD AND SWAP1 POP SWAP2 SWAP1 POP JUMP JUMPDEST PUSH32 0x596F75206861766520746F206465706F73697400000000000000000000000000 PUSH1 0x0 DUP3 ADD MSTORE POP JUMP JUMPDEST PUSH32 0x4E6F74206F776E65720000000000000000000000000000000000000000000000 PUSH1 0x0 DUP3 ADD MSTORE POP JUMP JUMPDEST PUSH2 0xE90 DUP2 PUSH2 0xD0C JUMP JUMPDEST DUP2 EQ PUSH2 0xE9B JUMPI PUSH1 0x0 DUP1 REVERT JUMPDEST POP JUMP JUMPDEST PUSH2 0xEA7 DUP2 PUSH2 0xD3E JUMP JUMPDEST DUP2 EQ PUSH2 0xEB2 JUMPI PUSH1 0x0 DUP1 REVERT JUMPDEST POP JUMP INVALID LOG2 PUSH5 0x6970667358 0x22 SLT KECCAK256 PUSH1 0x25 0xCC 0x26 0xD4 SELFBALANCE PUSH17 0x592F3A5ED31514DC793F8D1594A26B4520 0xB1 PUSH6 0xD8FFF5CA78C2 PUSH5 0x736F6C6343 STOP ADDMOD SMOD STOP CALLER "
				},
				"gasEstimates": {
					"creation": {
						"codeDepositCost": "763800",
						"executionCost": "47171",
						"totalCost": "810971"
					},
					"external": {
						"addFund(uint256)": "infinite",
						"checkBalance()": "2598",
						"deposit(uint256)": "infinite",
						"getUserDetail()": "infinite",
						"owner()": "2536",
						"setUserDetails(string,uint256)": "infinite",
						"usersData(address)": "infinite",
						"withdraw()": "8742"
					}
				},
				"methodIdentifiers": {
					"addFund(uint256)": "346c96e9",
					"checkBalance()": "c71daccb",
					"deposit(uint256)": "b6b55f25",
					"getUserDetail()": "8b326ec2",
					"owner()": "8da5cb5b",
					"setUserDetails(string,uint256)": "08f6f76e",
					"usersData(address)": "0560ab69",
					"withdraw()": "3ccfd60b"
				}
			},
			"storageLayout": {
				"storage": [
					{
						"astId": 23,
						"contract": "contracts/Events.sol:Modifiers",
						"label": "Feed",
						"offset": 0,
						"slot": "0",
						"type": "t_uint256"
					},
					{
						"astId": 25,
						"contract": "contracts/Events.sol:Modifiers",
						"label": "owner",
						"offset": 0,
						"slot": "1",
						"type": "t_address"
					},
					{
						"astId": 30,
						"contract": "contracts/Events.sol:Modifiers",
						"label": "usersData",
						"offset": 0,
						"slot": "2",
						"type": "t_mapping(t_address,t_struct(User)20_storage)"
					}
				],
				"types": {
					"t_address": {
						"encoding": "inplace",
						"label": "address",
						"numberOfBytes": "20"
					},
					"t_mapping(t_address,t_struct(User)20_storage)": {
						"encoding": "mapping",
						"key": "t_address",
						"label": "mapping(address => struct Modifiers.User)",
						"numberOfBytes": "32",
						"value": "t_struct(User)20_storage"
					},
					"t_string_storage": {
						"encoding": "bytes",
						"label": "string",
						"numberOfBytes": "32"
					},
					"t_struct(User)20_storage": {
						"encoding": "inplace",
						"label": "struct Modifiers.User",
						"members": [
							{
								"astId": 15,
								"contract": "contracts/Events.sol:Modifiers",
								"label": "name",
								"offset": 0,
								"slot": "0",
								"type": "t_string_storage"
							},
							{
								"astId": 17,
								"contract": "contracts/Events.sol:Modifiers",
								"label": "age",
								"offset": 0,
								"slot": "1",
								"type": "t_uint256"
							},
							{
								"astId": 19,
								"contract": "contracts/Events.sol:Modifiers",
								"label": "balance",
								"offset": 0,
								"slot": "2",
								"type": "t_uint256"
							}
						],
						"numberOfBytes": "96"
					},
					"t_uint256": {
						"encoding": "inplace",
						"label": "uint256",
						"numberOfBytes": "32"
					}
				}
			},
			"userdoc": {
				"kind": "user",
				"methods": {},
				"version": 1
			}
		}
	}
}