{
	"contracts/Structs.sol": {
		"Structs": {
			"abi": [
				{
					"inputs": [],
					"name": "checkBalance",
					"outputs": [
						{
							"internalType": "uint256",
							"name": "",
							"type": "uint256"
						}
					],
					"stateMutability": "view",
					"type": "function"
				},
				{
					"inputs": [
						{
							"internalType": "uint256",
							"name": "amount",
							"type": "uint256"
						}
					],
					"name": "deposit",
					"outputs": [],
					"stateMutability": "nonpayable",
					"type": "function"
				},
				{
					"inputs": [],
					"name": "getUserDetail",
					"outputs": [
						{
							"components": [
								{
									"internalType": "string",
									"name": "name",
									"type": "string"
								},
								{
									"internalType": "uint256",
									"name": "age",
									"type": "uint256"
								},
								{
									"internalType": "uint256",
									"name": "balance",
									"type": "uint256"
								}
							],
							"internalType": "struct Structs.User",
							"name": "",
							"type": "tuple"
						}
					],
					"stateMutability": "view",
					"type": "function"
				},
				{
					"inputs": [
						{
							"internalType": "string",
							"name": "name",
							"type": "string"
						},
						{
							"internalType": "uint256",
							"name": "age",
							"type": "uint256"
						}
					],
					"name": "setUserDetails",
					"outputs": [],
					"stateMutability": "nonpayable",
					"type": "function"
				},
				{
					"inputs": [
						{
							"internalType": "address",
							"name": "",
							"type": "address"
						}
					],
					"name": "usersData",
					"outputs": [
						{
							"internalType": "string",
							"name": "name",
							"type": "string"
						},
						{
							"internalType": "uint256",
							"name": "age",
							"type": "uint256"
						},
						{
							"internalType": "uint256",
							"name": "balance",
							"type": "uint256"
						}
					],
					"stateMutability": "view",
					"type": "function"
				}
			],
			"devdoc": {
				"kind": "dev",
				"methods": {},
				"version": 1
			},
			"evm": {
				"assembly": "    /* \"contracts/Structs.sol\":74:746  contract Structs {\r... */\n  mstore(0x40, 0x80)\n  callvalue\n  dup1\n  iszero\n  tag_1\n  jumpi\n  0x00\n  dup1\n  revert\ntag_1:\n  pop\n  dataSize(sub_0)\n  dup1\n  dataOffset(sub_0)\n  0x00\n  codecopy\n  0x00\n  return\nstop\n\nsub_0: assembly {\n        /* \"contracts/Structs.sol\":74:746  contract Structs {\r... */\n      mstore(0x40, 0x80)\n      callvalue\n      dup1\n      iszero\n      tag_1\n      jumpi\n      0x00\n      dup1\n      revert\n    tag_1:\n      pop\n      jumpi(tag_2, lt(calldatasize, 0x04))\n      shr(0xe0, calldataload(0x00))\n      dup1\n      0x0560ab69\n      eq\n      tag_3\n      jumpi\n      dup1\n      0x08f6f76e\n      eq\n      tag_4\n      jumpi\n      dup1\n      0x8b326ec2\n      eq\n      tag_5\n      jumpi\n      dup1\n      0xb6b55f25\n      eq\n      tag_6\n      jumpi\n      dup1\n      0xc71daccb\n      eq\n      tag_7\n      jumpi\n    tag_2:\n      0x00\n      dup1\n      revert\n        /* \"contracts/Structs.sol\":196:237  mapping(address => User) public usersData */\n    tag_3:\n      tag_8\n      0x04\n      dup1\n      calldatasize\n      sub\n      dup2\n      add\n      swap1\n      tag_9\n      swap2\n      swap1\n      tag_10\n      jump\t// in\n    tag_9:\n      tag_11\n      jump\t// in\n    tag_8:\n      mload(0x40)\n      tag_12\n      swap4\n      swap3\n      swap2\n      swap1\n      tag_13\n      jump\t// in\n    tag_12:\n      mload(0x40)\n      dup1\n      swap2\n      sub\n      swap1\n      return\n        /* \"contracts/Structs.sol\":503:630  function setUserDetails(string calldata name, uint256 age) public {\r... */\n    tag_4:\n      tag_14\n      0x04\n      dup1\n      calldatasize\n      sub\n      dup2\n      add\n      swap1\n      tag_15\n      swap2\n      swap1\n      tag_16\n      jump\t// in\n    tag_15:\n      tag_17\n      jump\t// in\n    tag_14:\n      stop\n        /* \"contracts/Structs.sol\":638:743  function getUserDetail() public view returns (User memory){\r... */\n    tag_5:\n      tag_18\n      tag_19\n      jump\t// in\n    tag_18:\n      mload(0x40)\n      tag_20\n      swap2\n      swap1\n      tag_21\n      jump\t// in\n    tag_20:\n      mload(0x40)\n      dup1\n      swap2\n      sub\n      swap1\n      return\n        /* \"contracts/Structs.sol\":246:378  function deposit(uint256 amount) public {\r... */\n    tag_6:\n      tag_22\n      0x04\n      dup1\n      calldatasize\n      sub\n      dup2\n      add\n      swap1\n      tag_23\n      swap2\n      swap1\n      tag_24\n      jump\t// in\n    tag_23:\n      tag_25\n      jump\t// in\n    tag_22:\n      stop\n        /* \"contracts/Structs.sol\":386:495  function checkBalance() public view returns (uint256) {\r... */\n    tag_7:\n      tag_26\n      tag_27\n      jump\t// in\n    tag_26:\n      mload(0x40)\n      tag_28\n      swap2\n      swap1\n      tag_29\n      jump\t// in\n    tag_28:\n      mload(0x40)\n      dup1\n      swap2\n      sub\n      swap1\n      return\n        /* \"contracts/Structs.sol\":196:237  mapping(address => User) public usersData */\n    tag_11:\n      mstore(0x20, 0x00)\n      dup1\n      0x00\n      mstore\n      keccak256(0x00, 0x40)\n      0x00\n      swap2\n      pop\n      swap1\n      pop\n      dup1\n      0x00\n      add\n      dup1\n      sload\n      tag_30\n      swap1\n      tag_31\n      jump\t// in\n    tag_30:\n      dup1\n      0x1f\n      add\n      0x20\n      dup1\n      swap2\n      div\n      mul\n      0x20\n      add\n      mload(0x40)\n      swap1\n      dup2\n      add\n      0x40\n      mstore\n      dup1\n      swap3\n      swap2\n      swap1\n      dup2\n      dup2\n      mstore\n      0x20\n      add\n      dup3\n      dup1\n      sload\n      tag_32\n      swap1\n      tag_31\n      jump\t// in\n    tag_32:\n      dup1\n      iszero\n      tag_33\n      jumpi\n      dup1\n      0x1f\n      lt\n      tag_34\n      jumpi\n      0x0100\n      dup1\n      dup4\n      sload\n      div\n      mul\n      dup4\n      mstore\n      swap2\n      0x20\n      add\n      swap2\n      jump(tag_33)\n    tag_34:\n      dup3\n      add\n      swap2\n      swap1\n      0x00\n      mstore\n      keccak256(0x00, 0x20)\n      swap1\n    tag_35:\n      dup2\n      sload\n      dup2\n      mstore\n      swap1\n      0x01\n      add\n      swap1\n      0x20\n      add\n      dup1\n      dup4\n      gt\n      tag_35\n      jumpi\n      dup3\n      swap1\n      sub\n      0x1f\n      and\n      dup3\n      add\n      swap2\n    tag_33:\n      pop\n      pop\n      pop\n      pop\n      pop\n      swap1\n      dup1\n      0x01\n      add\n      sload\n      swap1\n      dup1\n      0x02\n      add\n      sload\n      swap1\n      pop\n      dup4\n      jump\t// out\n        /* \"contracts/Structs.sol\":503:630  function setUserDetails(string calldata name, uint256 age) public {\r... */\n    tag_17:\n        /* \"contracts/Structs.sol\":604:622  User(name, age, 0) */\n      mload(0x40)\n      dup1\n      0x60\n      add\n      0x40\n      mstore\n      dup1\n        /* \"contracts/Structs.sol\":609:613  name */\n      dup5\n      dup5\n        /* \"contracts/Structs.sol\":604:622  User(name, age, 0) */\n      dup1\n      dup1\n      0x1f\n      add\n      0x20\n      dup1\n      swap2\n      div\n      mul\n      0x20\n      add\n      mload(0x40)\n      swap1\n      dup2\n      add\n      0x40\n      mstore\n      dup1\n      swap4\n      swap3\n      swap2\n      swap1\n      dup2\n      dup2\n      mstore\n      0x20\n      add\n      dup4\n      dup4\n      dup1\n      dup3\n      dup5\n      calldatacopy\n      0x00\n      dup2\n      dup5\n      add\n      mstore\n      not(0x1f)\n      0x1f\n      dup3\n      add\n      and\n      swap1\n      pop\n      dup1\n      dup4\n      add\n      swap3\n      pop\n      pop\n      pop\n      pop\n      pop\n      pop\n      pop\n      dup2\n      mstore\n      0x20\n      add\n        /* \"contracts/Structs.sol\":615:618  age */\n      dup3\n        /* \"contracts/Structs.sol\":604:622  User(name, age, 0) */\n      dup2\n      mstore\n      0x20\n      add\n        /* \"contracts/Structs.sol\":620:621  0 */\n      0x00\n        /* \"contracts/Structs.sol\":604:622  User(name, age, 0) */\n      dup2\n      mstore\n      pop\n        /* \"contracts/Structs.sol\":580:589  usersData */\n      0x00\n        /* \"contracts/Structs.sol\":580:601  usersData[msg.sender] */\n      dup1\n        /* \"contracts/Structs.sol\":590:600  msg.sender */\n      caller\n        /* \"contracts/Structs.sol\":580:601  usersData[msg.sender] */\n      0xffffffffffffffffffffffffffffffffffffffff\n      and\n      0xffffffffffffffffffffffffffffffffffffffff\n      and\n      dup2\n      mstore\n      0x20\n      add\n      swap1\n      dup2\n      mstore\n      0x20\n      add\n      0x00\n      keccak256\n        /* \"contracts/Structs.sol\":580:622  usersData[msg.sender] = User(name, age, 0) */\n      0x00\n      dup3\n      add\n      mload\n      dup2\n      0x00\n      add\n      swap1\n      dup1\n      mload\n      swap1\n      0x20\n      add\n      swap1\n      tag_37\n      swap3\n      swap2\n      swap1\n      tag_38\n      jump\t// in\n    tag_37:\n      pop\n      0x20\n      dup3\n      add\n      mload\n      dup2\n      0x01\n      add\n      sstore\n      0x40\n      dup3\n      add\n      mload\n      dup2\n      0x02\n      add\n      sstore\n      swap1\n      pop\n      pop\n        /* \"contracts/Structs.sol\":503:630  function setUserDetails(string calldata name, uint256 age) public {\r... */\n      pop\n      pop\n      pop\n      jump\t// out\n        /* \"contracts/Structs.sol\":638:743  function getUserDetail() public view returns (User memory){\r... */\n    tag_19:\n        /* \"contracts/Structs.sol\":684:695  User memory */\n      tag_39\n      tag_40\n      jump\t// in\n    tag_39:\n        /* \"contracts/Structs.sol\":714:723  usersData */\n      0x00\n        /* \"contracts/Structs.sol\":714:735  usersData[msg.sender] */\n      dup1\n        /* \"contracts/Structs.sol\":724:734  msg.sender */\n      caller\n        /* \"contracts/Structs.sol\":714:735  usersData[msg.sender] */\n      0xffffffffffffffffffffffffffffffffffffffff\n      and\n      0xffffffffffffffffffffffffffffffffffffffff\n      and\n      dup2\n      mstore\n      0x20\n      add\n      swap1\n      dup2\n      mstore\n      0x20\n      add\n      0x00\n      keccak256\n        /* \"contracts/Structs.sol\":707:735  return usersData[msg.sender] */\n      mload(0x40)\n      dup1\n      0x60\n      add\n      0x40\n      mstore\n      swap1\n      dup2\n      0x00\n      dup3\n      add\n      dup1\n      sload\n      tag_42\n      swap1\n      tag_31\n      jump\t// in\n    tag_42:\n      dup1\n      0x1f\n      add\n      0x20\n      dup1\n      swap2\n      div\n      mul\n      0x20\n      add\n      mload(0x40)\n      swap1\n      dup2\n      add\n      0x40\n      mstore\n      dup1\n      swap3\n      swap2\n      swap1\n      dup2\n      dup2\n      mstore\n      0x20\n      add\n      dup3\n      dup1\n      sload\n      tag_43\n      swap1\n      tag_31\n      jump\t// in\n    tag_43:\n      dup1\n      iszero\n      tag_44\n      jumpi\n      dup1\n      0x1f\n      lt\n      tag_45\n      jumpi\n      0x0100\n      dup1\n      dup4\n      sload\n      div\n      mul\n      dup4\n      mstore\n      swap2\n      0x20\n      add\n      swap2\n      jump(tag_44)\n    tag_45:\n      dup3\n      add\n      swap2\n      swap1\n      0x00\n      mstore\n      keccak256(0x00, 0x20)\n      swap1\n    tag_46:\n      dup2\n      sload\n      dup2\n      mstore\n      swap1\n      0x01\n      add\n      swap1\n      0x20\n      add\n      dup1\n      dup4\n      gt\n      tag_46\n      jumpi\n      dup3\n      swap1\n      sub\n      0x1f\n      and\n      dup3\n      add\n      swap2\n    tag_44:\n      pop\n      pop\n      pop\n      pop\n      pop\n      dup2\n      mstore\n      0x20\n      add\n      0x01\n      dup3\n      add\n      sload\n      dup2\n      mstore\n      0x20\n      add\n      0x02\n      dup3\n      add\n      sload\n      dup2\n      mstore\n      pop\n      pop\n      swap1\n      pop\n        /* \"contracts/Structs.sol\":638:743  function getUserDetail() public view returns (User memory){\r... */\n      swap1\n      jump\t// out\n        /* \"contracts/Structs.sol\":246:378  function deposit(uint256 amount) public {\r... */\n    tag_25:\n        /* \"contracts/Structs.sol\":297:314  User storage user */\n      0x00\n        /* \"contracts/Structs.sol\":317:326  usersData */\n      dup1\n        /* \"contracts/Structs.sol\":317:338  usersData[msg.sender] */\n      0x00\n        /* \"contracts/Structs.sol\":327:337  msg.sender */\n      caller\n        /* \"contracts/Structs.sol\":317:338  usersData[msg.sender] */\n      0xffffffffffffffffffffffffffffffffffffffff\n      and\n      0xffffffffffffffffffffffffffffffffffffffff\n      and\n      dup2\n      mstore\n      0x20\n      add\n      swap1\n      dup2\n      mstore\n      0x20\n      add\n      0x00\n      keccak256\n        /* \"contracts/Structs.sol\":297:338  User storage user = usersData[msg.sender] */\n      swap1\n      pop\n        /* \"contracts/Structs.sol\":364:370  amount */\n      dup2\n        /* \"contracts/Structs.sol\":349:353  user */\n      dup2\n        /* \"contracts/Structs.sol\":349:361  user.balance */\n      0x02\n      add\n        /* \"contracts/Structs.sol\":349:370  user.balance = amount */\n      dup2\n      swap1\n      sstore\n      pop\n        /* \"contracts/Structs.sol\":286:378  {\r... */\n      pop\n        /* \"contracts/Structs.sol\":246:378  function deposit(uint256 amount) public {\r... */\n      pop\n      jump\t// out\n        /* \"contracts/Structs.sol\":386:495  function checkBalance() public view returns (uint256) {\r... */\n    tag_27:\n        /* \"contracts/Structs.sol\":431:438  uint256 */\n      0x00\n        /* \"contracts/Structs.sol\":458:467  usersData */\n      dup1\n        /* \"contracts/Structs.sol\":458:479  usersData[msg.sender] */\n      0x00\n        /* \"contracts/Structs.sol\":468:478  msg.sender */\n      caller\n        /* \"contracts/Structs.sol\":458:479  usersData[msg.sender] */\n      0xffffffffffffffffffffffffffffffffffffffff\n      and\n      0xffffffffffffffffffffffffffffffffffffffff\n      and\n      dup2\n      mstore\n      0x20\n      add\n      swap1\n      dup2\n      mstore\n      0x20\n      add\n      0x00\n      keccak256\n        /* \"contracts/Structs.sol\":458:487  usersData[msg.sender].balance */\n      0x02\n      add\n      sload\n        /* \"contracts/Structs.sol\":451:487  return usersData[msg.sender].balance */\n      swap1\n      pop\n        /* \"contracts/Structs.sol\":386:495  function checkBalance() public view returns (uint256) {\r... */\n      swap1\n      jump\t// out\n    tag_38:\n      dup3\n      dup1\n      sload\n      tag_49\n      swap1\n      tag_31\n      jump\t// in\n    tag_49:\n      swap1\n      0x00\n      mstore\n      keccak256(0x00, 0x20)\n      swap1\n      0x1f\n      add\n      0x20\n      swap1\n      div\n      dup2\n      add\n      swap3\n      dup3\n      tag_51\n      jumpi\n      0x00\n      dup6\n      sstore\n      jump(tag_50)\n    tag_51:\n      dup3\n      0x1f\n      lt\n      tag_52\n      jumpi\n      dup1\n      mload\n      not(0xff)\n      and\n      dup4\n      dup1\n      add\n      or\n      dup6\n      sstore\n      jump(tag_50)\n    tag_52:\n      dup3\n      dup1\n      add\n      0x01\n      add\n      dup6\n      sstore\n      dup3\n      iszero\n      tag_50\n      jumpi\n      swap2\n      dup3\n      add\n    tag_53:\n      dup3\n      dup2\n      gt\n      iszero\n      tag_54\n      jumpi\n      dup3\n      mload\n      dup3\n      sstore\n      swap2\n      0x20\n      add\n      swap2\n      swap1\n      0x01\n      add\n      swap1\n      jump(tag_53)\n    tag_54:\n    tag_50:\n      pop\n      swap1\n      pop\n      tag_55\n      swap2\n      swap1\n      tag_56\n      jump\t// in\n    tag_55:\n      pop\n      swap1\n      jump\t// out\n    tag_40:\n      mload(0x40)\n      dup1\n      0x60\n      add\n      0x40\n      mstore\n      dup1\n      0x60\n      dup2\n      mstore\n      0x20\n      add\n      0x00\n      dup2\n      mstore\n      0x20\n      add\n      0x00\n      dup2\n      mstore\n      pop\n      swap1\n      jump\t// out\n    tag_56:\n    tag_57:\n      dup1\n      dup3\n      gt\n      iszero\n      tag_58\n      jumpi\n      0x00\n      dup2\n      0x00\n      swap1\n      sstore\n      pop\n      0x01\n      add\n      jump(tag_57)\n    tag_58:\n      pop\n      swap1\n      jump\t// out\n        /* \"#utility.yul\":7:146   */\n    tag_60:\n        /* \"#utility.yul\":53:58   */\n      0x00\n        /* \"#utility.yul\":91:97   */\n      dup2\n        /* \"#utility.yul\":78:98   */\n      calldataload\n        /* \"#utility.yul\":69:98   */\n      swap1\n      pop\n        /* \"#utility.yul\":107:140   */\n      tag_62\n        /* \"#utility.yul\":134:139   */\n      dup2\n        /* \"#utility.yul\":107:140   */\n      tag_63\n      jump\t// in\n    tag_62:\n        /* \"#utility.yul\":7:146   */\n      swap3\n      swap2\n      pop\n      pop\n      jump\t// out\n        /* \"#utility.yul\":166:719   */\n    tag_64:\n        /* \"#utility.yul\":224:232   */\n      0x00\n        /* \"#utility.yul\":234:240   */\n      dup1\n        /* \"#utility.yul\":284:287   */\n      dup4\n        /* \"#utility.yul\":277:281   */\n      0x1f\n        /* \"#utility.yul\":269:275   */\n      dup5\n        /* \"#utility.yul\":265:282   */\n      add\n        /* \"#utility.yul\":261:288   */\n      slt\n        /* \"#utility.yul\":251:373   */\n      tag_66\n      jumpi\n        /* \"#utility.yul\":292:371   */\n      tag_67\n      tag_68\n      jump\t// in\n    tag_67:\n        /* \"#utility.yul\":251:373   */\n    tag_66:\n        /* \"#utility.yul\":405:411   */\n      dup3\n        /* \"#utility.yul\":392:412   */\n      calldataload\n        /* \"#utility.yul\":382:412   */\n      swap1\n      pop\n        /* \"#utility.yul\":435:453   */\n      0xffffffffffffffff\n        /* \"#utility.yul\":427:433   */\n      dup2\n        /* \"#utility.yul\":424:454   */\n      gt\n        /* \"#utility.yul\":421:538   */\n      iszero\n      tag_69\n      jumpi\n        /* \"#utility.yul\":457:536   */\n      tag_70\n      tag_71\n      jump\t// in\n    tag_70:\n        /* \"#utility.yul\":421:538   */\n    tag_69:\n        /* \"#utility.yul\":571:575   */\n      0x20\n        /* \"#utility.yul\":563:569   */\n      dup4\n        /* \"#utility.yul\":559:576   */\n      add\n        /* \"#utility.yul\":547:576   */\n      swap2\n      pop\n        /* \"#utility.yul\":625:628   */\n      dup4\n        /* \"#utility.yul\":617:621   */\n      0x01\n        /* \"#utility.yul\":609:615   */\n      dup3\n        /* \"#utility.yul\":605:622   */\n      mul\n        /* \"#utility.yul\":595:603   */\n      dup4\n        /* \"#utility.yul\":591:623   */\n      add\n        /* \"#utility.yul\":588:629   */\n      gt\n        /* \"#utility.yul\":585:713   */\n      iszero\n      tag_72\n      jumpi\n        /* \"#utility.yul\":632:711   */\n      tag_73\n      tag_74\n      jump\t// in\n    tag_73:\n        /* \"#utility.yul\":585:713   */\n    tag_72:\n        /* \"#utility.yul\":166:719   */\n      swap3\n      pop\n      swap3\n      swap1\n      pop\n      jump\t// out\n        /* \"#utility.yul\":725:864   */\n    tag_75:\n        /* \"#utility.yul\":771:776   */\n      0x00\n        /* \"#utility.yul\":809:815   */\n      dup2\n        /* \"#utility.yul\":796:816   */\n      calldataload\n        /* \"#utility.yul\":787:816   */\n      swap1\n      pop\n        /* \"#utility.yul\":825:858   */\n      tag_77\n        /* \"#utility.yul\":852:857   */\n      dup2\n        /* \"#utility.yul\":825:858   */\n      tag_78\n      jump\t// in\n    tag_77:\n        /* \"#utility.yul\":725:864   */\n      swap3\n      swap2\n      pop\n      pop\n      jump\t// out\n        /* \"#utility.yul\":870:1199   */\n    tag_10:\n        /* \"#utility.yul\":929:935   */\n      0x00\n        /* \"#utility.yul\":978:980   */\n      0x20\n        /* \"#utility.yul\":966:975   */\n      dup3\n        /* \"#utility.yul\":957:964   */\n      dup5\n        /* \"#utility.yul\":953:976   */\n      sub\n        /* \"#utility.yul\":949:981   */\n      slt\n        /* \"#utility.yul\":946:1065   */\n      iszero\n      tag_80\n      jumpi\n        /* \"#utility.yul\":984:1063   */\n      tag_81\n      tag_82\n      jump\t// in\n    tag_81:\n        /* \"#utility.yul\":946:1065   */\n    tag_80:\n        /* \"#utility.yul\":1104:1105   */\n      0x00\n        /* \"#utility.yul\":1129:1182   */\n      tag_83\n        /* \"#utility.yul\":1174:1181   */\n      dup5\n        /* \"#utility.yul\":1165:1171   */\n      dup3\n        /* \"#utility.yul\":1154:1163   */\n      dup6\n        /* \"#utility.yul\":1150:1172   */\n      add\n        /* \"#utility.yul\":1129:1182   */\n      tag_60\n      jump\t// in\n    tag_83:\n        /* \"#utility.yul\":1119:1182   */\n      swap2\n      pop\n        /* \"#utility.yul\":1075:1192   */\n      pop\n        /* \"#utility.yul\":870:1199   */\n      swap3\n      swap2\n      pop\n      pop\n      jump\t// out\n        /* \"#utility.yul\":1205:1879   */\n    tag_16:\n        /* \"#utility.yul\":1285:1291   */\n      0x00\n        /* \"#utility.yul\":1293:1299   */\n      dup1\n        /* \"#utility.yul\":1301:1307   */\n      0x00\n        /* \"#utility.yul\":1350:1352   */\n      0x40\n        /* \"#utility.yul\":1338:1347   */\n      dup5\n        /* \"#utility.yul\":1329:1336   */\n      dup7\n        /* \"#utility.yul\":1325:1348   */\n      sub\n        /* \"#utility.yul\":1321:1353   */\n      slt\n        /* \"#utility.yul\":1318:1437   */\n      iszero\n      tag_85\n      jumpi\n        /* \"#utility.yul\":1356:1435   */\n      tag_86\n      tag_82\n      jump\t// in\n    tag_86:\n        /* \"#utility.yul\":1318:1437   */\n    tag_85:\n        /* \"#utility.yul\":1504:1505   */\n      0x00\n        /* \"#utility.yul\":1493:1502   */\n      dup5\n        /* \"#utility.yul\":1489:1506   */\n      add\n        /* \"#utility.yul\":1476:1507   */\n      calldataload\n        /* \"#utility.yul\":1534:1552   */\n      0xffffffffffffffff\n        /* \"#utility.yul\":1526:1532   */\n      dup2\n        /* \"#utility.yul\":1523:1553   */\n      gt\n        /* \"#utility.yul\":1520:1637   */\n      iszero\n      tag_87\n      jumpi\n        /* \"#utility.yul\":1556:1635   */\n      tag_88\n      tag_89\n      jump\t// in\n    tag_88:\n        /* \"#utility.yul\":1520:1637   */\n    tag_87:\n        /* \"#utility.yul\":1669:1734   */\n      tag_90\n        /* \"#utility.yul\":1726:1733   */\n      dup7\n        /* \"#utility.yul\":1717:1723   */\n      dup3\n        /* \"#utility.yul\":1706:1715   */\n      dup8\n        /* \"#utility.yul\":1702:1724   */\n      add\n        /* \"#utility.yul\":1669:1734   */\n      tag_64\n      jump\t// in\n    tag_90:\n        /* \"#utility.yul\":1651:1734   */\n      swap4\n      pop\n      swap4\n      pop\n        /* \"#utility.yul\":1447:1744   */\n      pop\n        /* \"#utility.yul\":1783:1785   */\n      0x20\n        /* \"#utility.yul\":1809:1862   */\n      tag_91\n        /* \"#utility.yul\":1854:1861   */\n      dup7\n        /* \"#utility.yul\":1845:1851   */\n      dup3\n        /* \"#utility.yul\":1834:1843   */\n      dup8\n        /* \"#utility.yul\":1830:1852   */\n      add\n        /* \"#utility.yul\":1809:1862   */\n      tag_75\n      jump\t// in\n    tag_91:\n        /* \"#utility.yul\":1799:1862   */\n      swap2\n      pop\n        /* \"#utility.yul\":1754:1872   */\n      pop\n        /* \"#utility.yul\":1205:1879   */\n      swap3\n      pop\n      swap3\n      pop\n      swap3\n      jump\t// out\n        /* \"#utility.yul\":1885:2214   */\n    tag_24:\n        /* \"#utility.yul\":1944:1950   */\n      0x00\n        /* \"#utility.yul\":1993:1995   */\n      0x20\n        /* \"#utility.yul\":1981:1990   */\n      dup3\n        /* \"#utility.yul\":1972:1979   */\n      dup5\n        /* \"#utility.yul\":1968:1991   */\n      sub\n        /* \"#utility.yul\":1964:1996   */\n      slt\n        /* \"#utility.yul\":1961:2080   */\n      iszero\n      tag_93\n      jumpi\n        /* \"#utility.yul\":1999:2078   */\n      tag_94\n      tag_82\n      jump\t// in\n    tag_94:\n        /* \"#utility.yul\":1961:2080   */\n    tag_93:\n        /* \"#utility.yul\":2119:2120   */\n      0x00\n        /* \"#utility.yul\":2144:2197   */\n      tag_95\n        /* \"#utility.yul\":2189:2196   */\n      dup5\n        /* \"#utility.yul\":2180:2186   */\n      dup3\n        /* \"#utility.yul\":2169:2178   */\n      dup6\n        /* \"#utility.yul\":2165:2187   */\n      add\n        /* \"#utility.yul\":2144:2197   */\n      tag_75\n      jump\t// in\n    tag_95:\n        /* \"#utility.yul\":2134:2197   */\n      swap2\n      pop\n        /* \"#utility.yul\":2090:2207   */\n      pop\n        /* \"#utility.yul\":1885:2214   */\n      swap3\n      swap2\n      pop\n      pop\n      jump\t// out\n        /* \"#utility.yul\":2220:2564   */\n    tag_96:\n        /* \"#utility.yul\":2298:2301   */\n      0x00\n        /* \"#utility.yul\":2326:2365   */\n      tag_98\n        /* \"#utility.yul\":2359:2364   */\n      dup3\n        /* \"#utility.yul\":2326:2365   */\n      tag_99\n      jump\t// in\n    tag_98:\n        /* \"#utility.yul\":2381:2442   */\n      tag_100\n        /* \"#utility.yul\":2435:2441   */\n      dup2\n        /* \"#utility.yul\":2430:2433   */\n      dup6\n        /* \"#utility.yul\":2381:2442   */\n      tag_101\n      jump\t// in\n    tag_100:\n        /* \"#utility.yul\":2374:2442   */\n      swap4\n      pop\n        /* \"#utility.yul\":2451:2503   */\n      tag_102\n        /* \"#utility.yul\":2496:2502   */\n      dup2\n        /* \"#utility.yul\":2491:2494   */\n      dup6\n        /* \"#utility.yul\":2484:2488   */\n      0x20\n        /* \"#utility.yul\":2477:2482   */\n      dup7\n        /* \"#utility.yul\":2473:2489   */\n      add\n        /* \"#utility.yul\":2451:2503   */\n      tag_103\n      jump\t// in\n    tag_102:\n        /* \"#utility.yul\":2528:2557   */\n      tag_104\n        /* \"#utility.yul\":2550:2556   */\n      dup2\n        /* \"#utility.yul\":2528:2557   */\n      tag_105\n      jump\t// in\n    tag_104:\n        /* \"#utility.yul\":2523:2526   */\n      dup5\n        /* \"#utility.yul\":2519:2558   */\n      add\n        /* \"#utility.yul\":2512:2558   */\n      swap2\n      pop\n        /* \"#utility.yul\":2302:2564   */\n      pop\n        /* \"#utility.yul\":2220:2564   */\n      swap3\n      swap2\n      pop\n      pop\n      jump\t// out\n        /* \"#utility.yul\":2570:2934   */\n    tag_106:\n        /* \"#utility.yul\":2658:2661   */\n      0x00\n        /* \"#utility.yul\":2686:2725   */\n      tag_108\n        /* \"#utility.yul\":2719:2724   */\n      dup3\n        /* \"#utility.yul\":2686:2725   */\n      tag_99\n      jump\t// in\n    tag_108:\n        /* \"#utility.yul\":2741:2812   */\n      tag_109\n        /* \"#utility.yul\":2805:2811   */\n      dup2\n        /* \"#utility.yul\":2800:2803   */\n      dup6\n        /* \"#utility.yul\":2741:2812   */\n      tag_110\n      jump\t// in\n    tag_109:\n        /* \"#utility.yul\":2734:2812   */\n      swap4\n      pop\n        /* \"#utility.yul\":2821:2873   */\n      tag_111\n        /* \"#utility.yul\":2866:2872   */\n      dup2\n        /* \"#utility.yul\":2861:2864   */\n      dup6\n        /* \"#utility.yul\":2854:2858   */\n      0x20\n        /* \"#utility.yul\":2847:2852   */\n      dup7\n        /* \"#utility.yul\":2843:2859   */\n      add\n        /* \"#utility.yul\":2821:2873   */\n      tag_103\n      jump\t// in\n    tag_111:\n        /* \"#utility.yul\":2898:2927   */\n      tag_112\n        /* \"#utility.yul\":2920:2926   */\n      dup2\n        /* \"#utility.yul\":2898:2927   */\n      tag_105\n      jump\t// in\n    tag_112:\n        /* \"#utility.yul\":2893:2896   */\n      dup5\n        /* \"#utility.yul\":2889:2928   */\n      add\n        /* \"#utility.yul\":2882:2928   */\n      swap2\n      pop\n        /* \"#utility.yul\":2662:2934   */\n      pop\n        /* \"#utility.yul\":2570:2934   */\n      swap3\n      swap2\n      pop\n      pop\n      jump\t// out\n        /* \"#utility.yul\":2990:3760   */\n    tag_113:\n        /* \"#utility.yul\":3097:3100   */\n      0x00\n        /* \"#utility.yul\":3133:3137   */\n      0x60\n        /* \"#utility.yul\":3128:3131   */\n      dup4\n        /* \"#utility.yul\":3124:3138   */\n      add\n        /* \"#utility.yul\":3220:3224   */\n      0x00\n        /* \"#utility.yul\":3213:3218   */\n      dup4\n        /* \"#utility.yul\":3209:3225   */\n      add\n        /* \"#utility.yul\":3203:3226   */\n      mload\n        /* \"#utility.yul\":3273:3276   */\n      dup5\n        /* \"#utility.yul\":3267:3271   */\n      dup3\n        /* \"#utility.yul\":3263:3277   */\n      sub\n        /* \"#utility.yul\":3256:3260   */\n      0x00\n        /* \"#utility.yul\":3251:3254   */\n      dup7\n        /* \"#utility.yul\":3247:3261   */\n      add\n        /* \"#utility.yul\":3240:3278   */\n      mstore\n        /* \"#utility.yul\":3299:3372   */\n      tag_115\n        /* \"#utility.yul\":3367:3371   */\n      dup3\n        /* \"#utility.yul\":3353:3365   */\n      dup3\n        /* \"#utility.yul\":3299:3372   */\n      tag_96\n      jump\t// in\n    tag_115:\n        /* \"#utility.yul\":3291:3372   */\n      swap2\n      pop\n        /* \"#utility.yul\":3148:3383   */\n      pop\n        /* \"#utility.yul\":3464:3468   */\n      0x20\n        /* \"#utility.yul\":3457:3462   */\n      dup4\n        /* \"#utility.yul\":3453:3469   */\n      add\n        /* \"#utility.yul\":3447:3470   */\n      mload\n        /* \"#utility.yul\":3483:3546   */\n      tag_116\n        /* \"#utility.yul\":3540:3544   */\n      0x20\n        /* \"#utility.yul\":3535:3538   */\n      dup7\n        /* \"#utility.yul\":3531:3545   */\n      add\n        /* \"#utility.yul\":3517:3529   */\n      dup3\n        /* \"#utility.yul\":3483:3546   */\n      tag_117\n      jump\t// in\n    tag_116:\n        /* \"#utility.yul\":3393:3556   */\n      pop\n        /* \"#utility.yul\":3641:3645   */\n      0x40\n        /* \"#utility.yul\":3634:3639   */\n      dup4\n        /* \"#utility.yul\":3630:3646   */\n      add\n        /* \"#utility.yul\":3624:3647   */\n      mload\n        /* \"#utility.yul\":3660:3723   */\n      tag_118\n        /* \"#utility.yul\":3717:3721   */\n      0x40\n        /* \"#utility.yul\":3712:3715   */\n      dup7\n        /* \"#utility.yul\":3708:3722   */\n      add\n        /* \"#utility.yul\":3694:3706   */\n      dup3\n        /* \"#utility.yul\":3660:3723   */\n      tag_117\n      jump\t// in\n    tag_118:\n        /* \"#utility.yul\":3566:3733   */\n      pop\n        /* \"#utility.yul\":3750:3754   */\n      dup1\n        /* \"#utility.yul\":3743:3754   */\n      swap2\n      pop\n        /* \"#utility.yul\":3102:3760   */\n      pop\n        /* \"#utility.yul\":2990:3760   */\n      swap3\n      swap2\n      pop\n      pop\n      jump\t// out\n        /* \"#utility.yul\":3766:3874   */\n    tag_117:\n        /* \"#utility.yul\":3843:3867   */\n      tag_120\n        /* \"#utility.yul\":3861:3866   */\n      dup2\n        /* \"#utility.yul\":3843:3867   */\n      tag_121\n      jump\t// in\n    tag_120:\n        /* \"#utility.yul\":3838:3841   */\n      dup3\n        /* \"#utility.yul\":3831:3868   */\n      mstore\n        /* \"#utility.yul\":3766:3874   */\n      pop\n      pop\n      jump\t// out\n        /* \"#utility.yul\":3880:3998   */\n    tag_122:\n        /* \"#utility.yul\":3967:3991   */\n      tag_124\n        /* \"#utility.yul\":3985:3990   */\n      dup2\n        /* \"#utility.yul\":3967:3991   */\n      tag_121\n      jump\t// in\n    tag_124:\n        /* \"#utility.yul\":3962:3965   */\n      dup3\n        /* \"#utility.yul\":3955:3992   */\n      mstore\n        /* \"#utility.yul\":3880:3998   */\n      pop\n      pop\n      jump\t// out\n        /* \"#utility.yul\":4004:4537   */\n    tag_13:\n        /* \"#utility.yul\":4173:4177   */\n      0x00\n        /* \"#utility.yul\":4211:4213   */\n      0x60\n        /* \"#utility.yul\":4200:4209   */\n      dup3\n        /* \"#utility.yul\":4196:4214   */\n      add\n        /* \"#utility.yul\":4188:4214   */\n      swap1\n      pop\n        /* \"#utility.yul\":4260:4269   */\n      dup2\n        /* \"#utility.yul\":4254:4258   */\n      dup2\n        /* \"#utility.yul\":4250:4270   */\n      sub\n        /* \"#utility.yul\":4246:4247   */\n      0x00\n        /* \"#utility.yul\":4235:4244   */\n      dup4\n        /* \"#utility.yul\":4231:4248   */\n      add\n        /* \"#utility.yul\":4224:4271   */\n      mstore\n        /* \"#utility.yul\":4288:4366   */\n      tag_126\n        /* \"#utility.yul\":4361:4365   */\n      dup2\n        /* \"#utility.yul\":4352:4358   */\n      dup7\n        /* \"#utility.yul\":4288:4366   */\n      tag_106\n      jump\t// in\n    tag_126:\n        /* \"#utility.yul\":4280:4366   */\n      swap1\n      pop\n        /* \"#utility.yul\":4376:4448   */\n      tag_127\n        /* \"#utility.yul\":4444:4446   */\n      0x20\n        /* \"#utility.yul\":4433:4442   */\n      dup4\n        /* \"#utility.yul\":4429:4447   */\n      add\n        /* \"#utility.yul\":4420:4426   */\n      dup6\n        /* \"#utility.yul\":4376:4448   */\n      tag_122\n      jump\t// in\n    tag_127:\n        /* \"#utility.yul\":4458:4530   */\n      tag_128\n        /* \"#utility.yul\":4526:4528   */\n      0x40\n        /* \"#utility.yul\":4515:4524   */\n      dup4\n        /* \"#utility.yul\":4511:4529   */\n      add\n        /* \"#utility.yul\":4502:4508   */\n      dup5\n        /* \"#utility.yul\":4458:4530   */\n      tag_122\n      jump\t// in\n    tag_128:\n        /* \"#utility.yul\":4004:4537   */\n      swap5\n      swap4\n      pop\n      pop\n      pop\n      pop\n      jump\t// out\n        /* \"#utility.yul\":4543:4892   */\n    tag_21:\n        /* \"#utility.yul\":4674:4678   */\n      0x00\n        /* \"#utility.yul\":4712:4714   */\n      0x20\n        /* \"#utility.yul\":4701:4710   */\n      dup3\n        /* \"#utility.yul\":4697:4715   */\n      add\n        /* \"#utility.yul\":4689:4715   */\n      swap1\n      pop\n        /* \"#utility.yul\":4761:4770   */\n      dup2\n        /* \"#utility.yul\":4755:4759   */\n      dup2\n        /* \"#utility.yul\":4751:4771   */\n      sub\n        /* \"#utility.yul\":4747:4748   */\n      0x00\n        /* \"#utility.yul\":4736:4745   */\n      dup4\n        /* \"#utility.yul\":4732:4749   */\n      add\n        /* \"#utility.yul\":4725:4772   */\n      mstore\n        /* \"#utility.yul\":4789:4885   */\n      tag_130\n        /* \"#utility.yul\":4880:4884   */\n      dup2\n        /* \"#utility.yul\":4871:4877   */\n      dup5\n        /* \"#utility.yul\":4789:4885   */\n      tag_113\n      jump\t// in\n    tag_130:\n        /* \"#utility.yul\":4781:4885   */\n      swap1\n      pop\n        /* \"#utility.yul\":4543:4892   */\n      swap3\n      swap2\n      pop\n      pop\n      jump\t// out\n        /* \"#utility.yul\":4898:5120   */\n    tag_29:\n        /* \"#utility.yul\":4991:4995   */\n      0x00\n        /* \"#utility.yul\":5029:5031   */\n      0x20\n        /* \"#utility.yul\":5018:5027   */\n      dup3\n        /* \"#utility.yul\":5014:5032   */\n      add\n        /* \"#utility.yul\":5006:5032   */\n      swap1\n      pop\n        /* \"#utility.yul\":5042:5113   */\n      tag_132\n        /* \"#utility.yul\":5110:5111   */\n      0x00\n        /* \"#utility.yul\":5099:5108   */\n      dup4\n        /* \"#utility.yul\":5095:5112   */\n      add\n        /* \"#utility.yul\":5086:5092   */\n      dup5\n        /* \"#utility.yul\":5042:5113   */\n      tag_122\n      jump\t// in\n    tag_132:\n        /* \"#utility.yul\":4898:5120   */\n      swap3\n      swap2\n      pop\n      pop\n      jump\t// out\n        /* \"#utility.yul\":5207:5306   */\n    tag_99:\n        /* \"#utility.yul\":5259:5265   */\n      0x00\n        /* \"#utility.yul\":5293:5298   */\n      dup2\n        /* \"#utility.yul\":5287:5299   */\n      mload\n        /* \"#utility.yul\":5277:5299   */\n      swap1\n      pop\n        /* \"#utility.yul\":5207:5306   */\n      swap2\n      swap1\n      pop\n      jump\t// out\n        /* \"#utility.yul\":5312:5471   */\n    tag_101:\n        /* \"#utility.yul\":5386:5397   */\n      0x00\n        /* \"#utility.yul\":5420:5426   */\n      dup3\n        /* \"#utility.yul\":5415:5418   */\n      dup3\n        /* \"#utility.yul\":5408:5427   */\n      mstore\n        /* \"#utility.yul\":5460:5464   */\n      0x20\n        /* \"#utility.yul\":5455:5458   */\n      dup3\n        /* \"#utility.yul\":5451:5465   */\n      add\n        /* \"#utility.yul\":5436:5465   */\n      swap1\n      pop\n        /* \"#utility.yul\":5312:5471   */\n      swap3\n      swap2\n      pop\n      pop\n      jump\t// out\n        /* \"#utility.yul\":5477:5646   */\n    tag_110:\n        /* \"#utility.yul\":5561:5572   */\n      0x00\n        /* \"#utility.yul\":5595:5601   */\n      dup3\n        /* \"#utility.yul\":5590:5593   */\n      dup3\n        /* \"#utility.yul\":5583:5602   */\n      mstore\n        /* \"#utility.yul\":5635:5639   */\n      0x20\n        /* \"#utility.yul\":5630:5633   */\n      dup3\n        /* \"#utility.yul\":5626:5640   */\n      add\n        /* \"#utility.yul\":5611:5640   */\n      swap1\n      pop\n        /* \"#utility.yul\":5477:5646   */\n      swap3\n      swap2\n      pop\n      pop\n      jump\t// out\n        /* \"#utility.yul\":5652:5748   */\n    tag_138:\n        /* \"#utility.yul\":5689:5696   */\n      0x00\n        /* \"#utility.yul\":5718:5742   */\n      tag_140\n        /* \"#utility.yul\":5736:5741   */\n      dup3\n        /* \"#utility.yul\":5718:5742   */\n      tag_141\n      jump\t// in\n    tag_140:\n        /* \"#utility.yul\":5707:5742   */\n      swap1\n      pop\n        /* \"#utility.yul\":5652:5748   */\n      swap2\n      swap1\n      pop\n      jump\t// out\n        /* \"#utility.yul\":5754:5880   */\n    tag_141:\n        /* \"#utility.yul\":5791:5798   */\n      0x00\n        /* \"#utility.yul\":5831:5873   */\n      0xffffffffffffffffffffffffffffffffffffffff\n        /* \"#utility.yul\":5824:5829   */\n      dup3\n        /* \"#utility.yul\":5820:5874   */\n      and\n        /* \"#utility.yul\":5809:5874   */\n      swap1\n      pop\n        /* \"#utility.yul\":5754:5880   */\n      swap2\n      swap1\n      pop\n      jump\t// out\n        /* \"#utility.yul\":5886:5963   */\n    tag_121:\n        /* \"#utility.yul\":5923:5930   */\n      0x00\n        /* \"#utility.yul\":5952:5957   */\n      dup2\n        /* \"#utility.yul\":5941:5957   */\n      swap1\n      pop\n        /* \"#utility.yul\":5886:5963   */\n      swap2\n      swap1\n      pop\n      jump\t// out\n        /* \"#utility.yul\":5969:6276   */\n    tag_103:\n        /* \"#utility.yul\":6037:6038   */\n      0x00\n        /* \"#utility.yul\":6047:6160   */\n    tag_145:\n        /* \"#utility.yul\":6061:6067   */\n      dup4\n        /* \"#utility.yul\":6058:6059   */\n      dup2\n        /* \"#utility.yul\":6055:6068   */\n      lt\n        /* \"#utility.yul\":6047:6160   */\n      iszero\n      tag_147\n      jumpi\n        /* \"#utility.yul\":6146:6147   */\n      dup1\n        /* \"#utility.yul\":6141:6144   */\n      dup3\n        /* \"#utility.yul\":6137:6148   */\n      add\n        /* \"#utility.yul\":6131:6149   */\n      mload\n        /* \"#utility.yul\":6127:6128   */\n      dup2\n        /* \"#utility.yul\":6122:6125   */\n      dup5\n        /* \"#utility.yul\":6118:6129   */\n      add\n        /* \"#utility.yul\":6111:6150   */\n      mstore\n        /* \"#utility.yul\":6083:6085   */\n      0x20\n        /* \"#utility.yul\":6080:6081   */\n      dup2\n        /* \"#utility.yul\":6076:6086   */\n      add\n        /* \"#utility.yul\":6071:6086   */\n      swap1\n      pop\n        /* \"#utility.yul\":6047:6160   */\n      jump(tag_145)\n    tag_147:\n        /* \"#utility.yul\":6178:6184   */\n      dup4\n        /* \"#utility.yul\":6175:6176   */\n      dup2\n        /* \"#utility.yul\":6172:6185   */\n      gt\n        /* \"#utility.yul\":6169:6270   */\n      iszero\n      tag_148\n      jumpi\n        /* \"#utility.yul\":6258:6259   */\n      0x00\n        /* \"#utility.yul\":6249:6255   */\n      dup5\n        /* \"#utility.yul\":6244:6247   */\n      dup5\n        /* \"#utility.yul\":6240:6256   */\n      add\n        /* \"#utility.yul\":6233:6260   */\n      mstore\n        /* \"#utility.yul\":6169:6270   */\n    tag_148:\n        /* \"#utility.yul\":6018:6276   */\n      pop\n        /* \"#utility.yul\":5969:6276   */\n      pop\n      pop\n      pop\n      jump\t// out\n        /* \"#utility.yul\":6282:6602   */\n    tag_31:\n        /* \"#utility.yul\":6326:6332   */\n      0x00\n        /* \"#utility.yul\":6363:6364   */\n      0x02\n        /* \"#utility.yul\":6357:6361   */\n      dup3\n        /* \"#utility.yul\":6353:6365   */\n      div\n        /* \"#utility.yul\":6343:6365   */\n      swap1\n      pop\n        /* \"#utility.yul\":6410:6411   */\n      0x01\n        /* \"#utility.yul\":6404:6408   */\n      dup3\n        /* \"#utility.yul\":6400:6412   */\n      and\n        /* \"#utility.yul\":6431:6449   */\n      dup1\n        /* \"#utility.yul\":6421:6502   */\n      tag_150\n      jumpi\n        /* \"#utility.yul\":6487:6491   */\n      0x7f\n        /* \"#utility.yul\":6479:6485   */\n      dup3\n        /* \"#utility.yul\":6475:6492   */\n      and\n        /* \"#utility.yul\":6465:6492   */\n      swap2\n      pop\n        /* \"#utility.yul\":6421:6502   */\n    tag_150:\n        /* \"#utility.yul\":6549:6551   */\n      0x20\n        /* \"#utility.yul\":6541:6547   */\n      dup3\n        /* \"#utility.yul\":6538:6552   */\n      lt\n        /* \"#utility.yul\":6518:6536   */\n      dup2\n        /* \"#utility.yul\":6515:6553   */\n      eq\n        /* \"#utility.yul\":6512:6596   */\n      iszero\n      tag_151\n      jumpi\n        /* \"#utility.yul\":6568:6586   */\n      tag_152\n      tag_153\n      jump\t// in\n    tag_152:\n        /* \"#utility.yul\":6512:6596   */\n    tag_151:\n        /* \"#utility.yul\":6333:6602   */\n      pop\n        /* \"#utility.yul\":6282:6602   */\n      swap2\n      swap1\n      pop\n      jump\t// out\n        /* \"#utility.yul\":6608:6788   */\n    tag_153:\n        /* \"#utility.yul\":6656:6733   */\n      0x4e487b7100000000000000000000000000000000000000000000000000000000\n        /* \"#utility.yul\":6653:6654   */\n      0x00\n        /* \"#utility.yul\":6646:6734   */\n      mstore\n        /* \"#utility.yul\":6753:6757   */\n      0x22\n        /* \"#utility.yul\":6750:6751   */\n      0x04\n        /* \"#utility.yul\":6743:6758   */\n      mstore\n        /* \"#utility.yul\":6777:6781   */\n      0x24\n        /* \"#utility.yul\":6774:6775   */\n      0x00\n        /* \"#utility.yul\":6767:6782   */\n      revert\n        /* \"#utility.yul\":6794:6911   */\n    tag_71:\n        /* \"#utility.yul\":6903:6904   */\n      0x00\n        /* \"#utility.yul\":6900:6901   */\n      dup1\n        /* \"#utility.yul\":6893:6905   */\n      revert\n        /* \"#utility.yul\":6917:7034   */\n    tag_68:\n        /* \"#utility.yul\":7026:7027   */\n      0x00\n        /* \"#utility.yul\":7023:7024   */\n      dup1\n        /* \"#utility.yul\":7016:7028   */\n      revert\n        /* \"#utility.yul\":7040:7157   */\n    tag_74:\n        /* \"#utility.yul\":7149:7150   */\n      0x00\n        /* \"#utility.yul\":7146:7147   */\n      dup1\n        /* \"#utility.yul\":7139:7151   */\n      revert\n        /* \"#utility.yul\":7163:7280   */\n    tag_89:\n        /* \"#utility.yul\":7272:7273   */\n      0x00\n        /* \"#utility.yul\":7269:7270   */\n      dup1\n        /* \"#utility.yul\":7262:7274   */\n      revert\n        /* \"#utility.yul\":7286:7403   */\n    tag_82:\n        /* \"#utility.yul\":7395:7396   */\n      0x00\n        /* \"#utility.yul\":7392:7393   */\n      dup1\n        /* \"#utility.yul\":7385:7397   */\n      revert\n        /* \"#utility.yul\":7409:7511   */\n    tag_105:\n        /* \"#utility.yul\":7450:7456   */\n      0x00\n        /* \"#utility.yul\":7501:7503   */\n      0x1f\n        /* \"#utility.yul\":7497:7504   */\n      not\n        /* \"#utility.yul\":7492:7494   */\n      0x1f\n        /* \"#utility.yul\":7485:7490   */\n      dup4\n        /* \"#utility.yul\":7481:7495   */\n      add\n        /* \"#utility.yul\":7477:7505   */\n      and\n        /* \"#utility.yul\":7467:7505   */\n      swap1\n      pop\n        /* \"#utility.yul\":7409:7511   */\n      swap2\n      swap1\n      pop\n      jump\t// out\n        /* \"#utility.yul\":7517:7639   */\n    tag_63:\n        /* \"#utility.yul\":7590:7614   */\n      tag_162\n        /* \"#utility.yul\":7608:7613   */\n      dup2\n        /* \"#utility.yul\":7590:7614   */\n      tag_138\n      jump\t// in\n    tag_162:\n        /* \"#utility.yul\":7583:7588   */\n      dup2\n        /* \"#utility.yul\":7580:7615   */\n      eq\n        /* \"#utility.yul\":7570:7633   */\n      tag_163\n      jumpi\n        /* \"#utility.yul\":7629:7630   */\n      0x00\n        /* \"#utility.yul\":7626:7627   */\n      dup1\n        /* \"#utility.yul\":7619:7631   */\n      revert\n        /* \"#utility.yul\":7570:7633   */\n    tag_163:\n        /* \"#utility.yul\":7517:7639   */\n      pop\n      jump\t// out\n        /* \"#utility.yul\":7645:7767   */\n    tag_78:\n        /* \"#utility.yul\":7718:7742   */\n      tag_165\n        /* \"#utility.yul\":7736:7741   */\n      dup2\n        /* \"#utility.yul\":7718:7742   */\n      tag_121\n      jump\t// in\n    tag_165:\n        /* \"#utility.yul\":7711:7716   */\n      dup2\n        /* \"#utility.yul\":7708:7743   */\n      eq\n        /* \"#utility.yul\":7698:7761   */\n      tag_166\n      jumpi\n        /* \"#utility.yul\":7757:7758   */\n      0x00\n        /* \"#utility.yul\":7754:7755   */\n      dup1\n        /* \"#utility.yul\":7747:7759   */\n      revert\n        /* \"#utility.yul\":7698:7761   */\n    tag_166:\n        /* \"#utility.yul\":7645:7767   */\n      pop\n      jump\t// out\n\n    auxdata: 0xa2646970667358221220ef016cc88a305dbe2cf3c30d46b216eb1452d362ae240bb73dd8d53b52a9a2f064736f6c63430008070033\n}\n",
				"bytecode": {
					"linkReferences": {},
					"object": "608060405234801561001057600080fd5b50610903806100206000396000f3fe608060405234801561001057600080fd5b50600436106100575760003560e01c80630560ab691461005c57806308f6f76e1461008e5780638b326ec2146100aa578063b6b55f25146100c8578063c71daccb146100e4575b600080fd5b61007660048036038101906100719190610563565b610102565b604051610085939291906106fd565b60405180910390f35b6100a860048036038101906100a39190610590565b6101b4565b005b6100b261028b565b6040516100bf919061073b565b60405180910390f35b6100e260048036038101906100dd91906105f0565b610387565b005b6100ec6103d6565b6040516100f9919061075d565b60405180910390f35b600060205280600052604060002060009150905080600001805461012590610814565b80601f016020809104026020016040519081016040528092919081815260200182805461015190610814565b801561019e5780601f106101735761010080835404028352916020019161019e565b820191906000526020600020905b81548152906001019060200180831161018157829003601f168201915b5050505050908060010154908060020154905083565b604051806060016040528084848080601f016020809104026020016040519081016040528093929190818152602001838380828437600081840152601f19601f82011690508083019250505050505050815260200182815260200160008152506000803373ffffffffffffffffffffffffffffffffffffffff1673ffffffffffffffffffffffffffffffffffffffff168152602001908152602001600020600082015181600001908051906020019061026e92919061041f565b506020820151816001015560408201518160020155905050505050565b6102936104a5565b6000803373ffffffffffffffffffffffffffffffffffffffff1673ffffffffffffffffffffffffffffffffffffffff1681526020019081526020016000206040518060600160405290816000820180546102ec90610814565b80601f016020809104026020016040519081016040528092919081815260200182805461031890610814565b80156103655780601f1061033a57610100808354040283529160200191610365565b820191906000526020600020905b81548152906001019060200180831161034857829003601f168201915b5050505050815260200160018201548152602001600282015481525050905090565b60008060003373ffffffffffffffffffffffffffffffffffffffff1673ffffffffffffffffffffffffffffffffffffffff16815260200190815260200160002090508181600201819055505050565b60008060003373ffffffffffffffffffffffffffffffffffffffff1673ffffffffffffffffffffffffffffffffffffffff16815260200190815260200160002060020154905090565b82805461042b90610814565b90600052602060002090601f01602090048101928261044d5760008555610494565b82601f1061046657805160ff1916838001178555610494565b82800160010185558215610494579182015b82811115610493578251825591602001919060010190610478565b5b5090506104a191906104c6565b5090565b60405180606001604052806060815260200160008152602001600081525090565b5b808211156104df5760008160009055506001016104c7565b5090565b6000813590506104f28161089f565b92915050565b60008083601f84011261050e5761050d61087a565b5b8235905067ffffffffffffffff81111561052b5761052a610875565b5b6020830191508360018202830111156105475761054661087f565b5b9250929050565b60008135905061055d816108b6565b92915050565b60006020828403121561057957610578610889565b5b6000610587848285016104e3565b91505092915050565b6000806000604084860312156105a9576105a8610889565b5b600084013567ffffffffffffffff8111156105c7576105c6610884565b5b6105d3868287016104f8565b935093505060206105e68682870161054e565b9150509250925092565b60006020828403121561060657610605610889565b5b60006106148482850161054e565b91505092915050565b600061062882610778565b6106328185610783565b93506106428185602086016107e1565b61064b8161088e565b840191505092915050565b600061066182610778565b61066b8185610794565b935061067b8185602086016107e1565b6106848161088e565b840191505092915050565b600060608301600083015184820360008601526106ac828261061d565b91505060208301516106c160208601826106df565b5060408301516106d460408601826106df565b508091505092915050565b6106e8816107d7565b82525050565b6106f7816107d7565b82525050565b600060608201905081810360008301526107178186610656565b905061072660208301856106ee565b61073360408301846106ee565b949350505050565b60006020820190508181036000830152610755818461068f565b905092915050565b600060208201905061077260008301846106ee565b92915050565b600081519050919050565b600082825260208201905092915050565b600082825260208201905092915050565b60006107b0826107b7565b9050919050565b600073ffffffffffffffffffffffffffffffffffffffff82169050919050565b6000819050919050565b60005b838110156107ff5780820151818401526020810190506107e4565b8381111561080e576000848401525b50505050565b6000600282049050600182168061082c57607f821691505b602082108114156108405761083f610846565b5b50919050565b7f4e487b7100000000000000000000000000000000000000000000000000000000600052602260045260246000fd5b600080fd5b600080fd5b600080fd5b600080fd5b600080fd5b6000601f19601f8301169050919050565b6108a8816107a5565b81146108b357600080fd5b50565b6108bf816107d7565b81146108ca57600080fd5b5056fea2646970667358221220ef016cc88a305dbe2cf3c30d46b216eb1452d362ae240bb73dd8d53b52a9a2f064736f6c63430008070033",
					"opcodes": "PUSH1 0x80 PUSH1 0x40 MSTORE CALLVALUE DUP1 ISZERO PUSH2 0x10 JUMPI PUSH1 0x0 DUP1 REVERT JUMPDEST POP PUSH2 0x903 DUP1 PUSH2 0x20 PUSH1 0x0 CODECOPY PUSH1 0x0 RETURN INVALID PUSH1 0x80 PUSH1 0x40 MSTORE CALLVALUE DUP1 ISZERO PUSH2 0x10 JUMPI PUSH1 0x0 DUP1 REVERT JUMPDEST POP PUSH1 0x4 CALLDATASIZE LT PUSH2 0x57 JUMPI PUSH1 0x0 CALLDATALOAD PUSH1 0xE0 SHR DUP1 PUSH4 0x560AB69 EQ PUSH2 0x5C JUMPI DUP1 PUSH4 0x8F6F76E EQ PUSH2 0x8E JUMPI DUP1 PUSH4 0x8B326EC2 EQ PUSH2 0xAA JUMPI DUP1 PUSH4 0xB6B55F25 EQ PUSH2 0xC8 JUMPI DUP1 PUSH4 0xC71DACCB EQ PUSH2 0xE4 JUMPI JUMPDEST PUSH1 0x0 DUP1 REVERT JUMPDEST PUSH2 0x76 PUSH1 0x4 DUP1 CALLDATASIZE SUB DUP2 ADD SWAP1 PUSH2 0x71 SWAP2 SWAP1 PUSH2 0x563 JUMP JUMPDEST PUSH2 0x102 JUMP JUMPDEST PUSH1 0x40 MLOAD PUSH2 0x85 SWAP4 SWAP3 SWAP2 SWAP1 PUSH2 0x6FD JUMP JUMPDEST PUSH1 0x40 MLOAD DUP1 SWAP2 SUB SWAP1 RETURN JUMPDEST PUSH2 0xA8 PUSH1 0x4 DUP1 CALLDATASIZE SUB DUP2 ADD SWAP1 PUSH2 0xA3 SWAP2 SWAP1 PUSH2 0x590 JUMP JUMPDEST PUSH2 0x1B4 JUMP JUMPDEST STOP JUMPDEST PUSH2 0xB2 PUSH2 0x28B JUMP JUMPDEST PUSH1 0x40 MLOAD PUSH2 0xBF SWAP2 SWAP1 PUSH2 0x73B JUMP JUMPDEST PUSH1 0x40 MLOAD DUP1 SWAP2 SUB SWAP1 RETURN JUMPDEST PUSH2 0xE2 PUSH1 0x4 DUP1 CALLDATASIZE SUB DUP2 ADD SWAP1 PUSH2 0xDD SWAP2 SWAP1 PUSH2 0x5F0 JUMP JUMPDEST PUSH2 0x387 JUMP JUMPDEST STOP JUMPDEST PUSH2 0xEC PUSH2 0x3D6 JUMP JUMPDEST PUSH1 0x40 MLOAD PUSH2 0xF9 SWAP2 SWAP1 PUSH2 0x75D JUMP JUMPDEST PUSH1 0x40 MLOAD DUP1 SWAP2 SUB SWAP1 RETURN JUMPDEST PUSH1 0x0 PUSH1 0x20 MSTORE DUP1 PUSH1 0x0 MSTORE PUSH1 0x40 PUSH1 0x0 KECCAK256 PUSH1 0x0 SWAP2 POP SWAP1 POP DUP1 PUSH1 0x0 ADD DUP1 SLOAD PUSH2 0x125 SWAP1 PUSH2 0x814 JUMP JUMPDEST DUP1 PUSH1 0x1F ADD PUSH1 0x20 DUP1 SWAP2 DIV MUL PUSH1 0x20 ADD PUSH1 0x40 MLOAD SWAP1 DUP2 ADD PUSH1 0x40 MSTORE DUP1 SWAP3 SWAP2 SWAP1 DUP2 DUP2 MSTORE PUSH1 0x20 ADD DUP3 DUP1 SLOAD PUSH2 0x151 SWAP1 PUSH2 0x814 JUMP JUMPDEST DUP1 ISZERO PUSH2 0x19E JUMPI DUP1 PUSH1 0x1F LT PUSH2 0x173 JUMPI PUSH2 0x100 DUP1 DUP4 SLOAD DIV MUL DUP4 MSTORE SWAP2 PUSH1 0x20 ADD SWAP2 PUSH2 0x19E JUMP JUMPDEST DUP3 ADD SWAP2 SWAP1 PUSH1 0x0 MSTORE PUSH1 0x20 PUSH1 0x0 KECCAK256 SWAP1 JUMPDEST DUP2 SLOAD DUP2 MSTORE SWAP1 PUSH1 0x1 ADD SWAP1 PUSH1 0x20 ADD DUP1 DUP4 GT PUSH2 0x181 JUMPI DUP3 SWAP1 SUB PUSH1 0x1F AND DUP3 ADD SWAP2 JUMPDEST POP POP POP POP POP SWAP1 DUP1 PUSH1 0x1 ADD SLOAD SWAP1 DUP1 PUSH1 0x2 ADD SLOAD SWAP1 POP DUP4 JUMP JUMPDEST PUSH1 0x40 MLOAD DUP1 PUSH1 0x60 ADD PUSH1 0x40 MSTORE DUP1 DUP5 DUP5 DUP1 DUP1 PUSH1 0x1F ADD PUSH1 0x20 DUP1 SWAP2 DIV MUL PUSH1 0x20 ADD PUSH1 0x40 MLOAD SWAP1 DUP2 ADD PUSH1 0x40 MSTORE DUP1 SWAP4 SWAP3 SWAP2 SWAP1 DUP2 DUP2 MSTORE PUSH1 0x20 ADD DUP4 DUP4 DUP1 DUP3 DUP5 CALLDATACOPY PUSH1 0x0 DUP2 DUP5 ADD MSTORE PUSH1 0x1F NOT PUSH1 0x1F DUP3 ADD AND SWAP1 POP DUP1 DUP4 ADD SWAP3 POP POP POP POP POP POP POP DUP2 MSTORE PUSH1 0x20 ADD DUP3 DUP2 MSTORE PUSH1 0x20 ADD PUSH1 0x0 DUP2 MSTORE POP PUSH1 0x0 DUP1 CALLER PUSH20 0xFFFFFFFFFFFFFFFFFFFFFFFFFFFFFFFFFFFFFFFF AND PUSH20 0xFFFFFFFFFFFFFFFFFFFFFFFFFFFFFFFFFFFFFFFF AND DUP2 MSTORE PUSH1 0x20 ADD SWAP1 DUP2 MSTORE PUSH1 0x20 ADD PUSH1 0x0 KECCAK256 PUSH1 0x0 DUP3 ADD MLOAD DUP2 PUSH1 0x0 ADD SWAP1 DUP1 MLOAD SWAP1 PUSH1 0x20 ADD SWAP1 PUSH2 0x26E SWAP3 SWAP2 SWAP1 PUSH2 0x41F JUMP JUMPDEST POP PUSH1 0x20 DUP3 ADD MLOAD DUP2 PUSH1 0x1 ADD SSTORE PUSH1 0x40 DUP3 ADD MLOAD DUP2 PUSH1 0x2 ADD SSTORE SWAP1 POP POP POP POP POP JUMP JUMPDEST PUSH2 0x293 PUSH2 0x4A5 JUMP JUMPDEST PUSH1 0x0 DUP1 CALLER PUSH20 0xFFFFFFFFFFFFFFFFFFFFFFFFFFFFFFFFFFFFFFFF AND PUSH20 0xFFFFFFFFFFFFFFFFFFFFFFFFFFFFFFFFFFFFFFFF AND DUP2 MSTORE PUSH1 0x20 ADD SWAP1 DUP2 MSTORE PUSH1 0x20 ADD PUSH1 0x0 KECCAK256 PUSH1 0x40 MLOAD DUP1 PUSH1 0x60 ADD PUSH1 0x40 MSTORE SWAP1 DUP2 PUSH1 0x0 DUP3 ADD DUP1 SLOAD PUSH2 0x2EC SWAP1 PUSH2 0x814 JUMP JUMPDEST DUP1 PUSH1 0x1F ADD PUSH1 0x20 DUP1 SWAP2 DIV MUL PUSH1 0x20 ADD PUSH1 0x40 MLOAD SWAP1 DUP2 ADD PUSH1 0x40 MSTORE DUP1 SWAP3 SWAP2 SWAP1 DUP2 DUP2 MSTORE PUSH1 0x20 ADD DUP3 DUP1 SLOAD PUSH2 0x318 SWAP1 PUSH2 0x814 JUMP JUMPDEST DUP1 ISZERO PUSH2 0x365 JUMPI DUP1 PUSH1 0x1F LT PUSH2 0x33A JUMPI PUSH2 0x100 DUP1 DUP4 SLOAD DIV MUL DUP4 MSTORE SWAP2 PUSH1 0x20 ADD SWAP2 PUSH2 0x365 JUMP JUMPDEST DUP3 ADD SWAP2 SWAP1 PUSH1 0x0 MSTORE PUSH1 0x20 PUSH1 0x0 KECCAK256 SWAP1 JUMPDEST DUP2 SLOAD DUP2 MSTORE SWAP1 PUSH1 0x1 ADD SWAP1 PUSH1 0x20 ADD DUP1 DUP4 GT PUSH2 0x348 JUMPI DUP3 SWAP1 SUB PUSH1 0x1F AND DUP3 ADD SWAP2 JUMPDEST POP POP POP POP POP DUP2 MSTORE PUSH1 0x20 ADD PUSH1 0x1 DUP3 ADD SLOAD DUP2 MSTORE PUSH1 0x20 ADD PUSH1 0x2 DUP3 ADD SLOAD DUP2 MSTORE POP POP SWAP1 POP SWAP1 JUMP JUMPDEST PUSH1 0x0 DUP1 PUSH1 0x0 CALLER PUSH20 0xFFFFFFFFFFFFFFFFFFFFFFFFFFFFFFFFFFFFFFFF AND PUSH20 0xFFFFFFFFFFFFFFFFFFFFFFFFFFFFFFFFFFFFFFFF AND DUP2 MSTORE PUSH1 0x20 ADD SWAP1 DUP2 MSTORE PUSH1 0x20 ADD PUSH1 0x0 KECCAK256 SWAP1 POP DUP2 DUP2 PUSH1 0x2 ADD DUP2 SWAP1 SSTORE POP POP POP JUMP JUMPDEST PUSH1 0x0 DUP1 PUSH1 0x0 CALLER PUSH20 0xFFFFFFFFFFFFFFFFFFFFFFFFFFFFFFFFFFFFFFFF AND PUSH20 0xFFFFFFFFFFFFFFFFFFFFFFFFFFFFFFFFFFFFFFFF AND DUP2 MSTORE PUSH1 0x20 ADD SWAP1 DUP2 MSTORE PUSH1 0x20 ADD PUSH1 0x0 KECCAK256 PUSH1 0x2 ADD SLOAD SWAP1 POP SWAP1 JUMP JUMPDEST DUP3 DUP1 SLOAD PUSH2 0x42B SWAP1 PUSH2 0x814 JUMP JUMPDEST SWAP1 PUSH1 0x0 MSTORE PUSH1 0x20 PUSH1 0x0 KECCAK256 SWAP1 PUSH1 0x1F ADD PUSH1 0x20 SWAP1 DIV DUP2 ADD SWAP3 DUP3 PUSH2 0x44D JUMPI PUSH1 0x0 DUP6 SSTORE PUSH2 0x494 JUMP JUMPDEST DUP3 PUSH1 0x1F LT PUSH2 0x466 JUMPI DUP1 MLOAD PUSH1 0xFF NOT AND DUP4 DUP1 ADD OR DUP6 SSTORE PUSH2 0x494 JUMP JUMPDEST DUP3 DUP1 ADD PUSH1 0x1 ADD DUP6 SSTORE DUP3 ISZERO PUSH2 0x494 JUMPI SWAP2 DUP3 ADD JUMPDEST DUP3 DUP2 GT ISZERO PUSH2 0x493 JUMPI DUP3 MLOAD DUP3 SSTORE SWAP2 PUSH1 0x20 ADD SWAP2 SWAP1 PUSH1 0x1 ADD SWAP1 PUSH2 0x478 JUMP JUMPDEST JUMPDEST POP SWAP1 POP PUSH2 0x4A1 SWAP2 SWAP1 PUSH2 0x4C6 JUMP JUMPDEST POP SWAP1 JUMP JUMPDEST PUSH1 0x40 MLOAD DUP1 PUSH1 0x60 ADD PUSH1 0x40 MSTORE DUP1 PUSH1 0x60 DUP2 MSTORE PUSH1 0x20 ADD PUSH1 0x0 DUP2 MSTORE PUSH1 0x20 ADD PUSH1 0x0 DUP2 MSTORE POP SWAP1 JUMP JUMPDEST JUMPDEST DUP1 DUP3 GT ISZERO PUSH2 0x4DF JUMPI PUSH1 0x0 DUP2 PUSH1 0x0 SWAP1 SSTORE POP PUSH1 0x1 ADD PUSH2 0x4C7 JUMP JUMPDEST POP SWAP1 JUMP JUMPDEST PUSH1 0x0 DUP2 CALLDATALOAD SWAP1 POP PUSH2 0x4F2 DUP2 PUSH2 0x89F JUMP JUMPDEST SWAP3 SWAP2 POP POP JUMP JUMPDEST PUSH1 0x0 DUP1 DUP4 PUSH1 0x1F DUP5 ADD SLT PUSH2 0x50E JUMPI PUSH2 0x50D PUSH2 0x87A JUMP JUMPDEST JUMPDEST DUP3 CALLDATALOAD SWAP1 POP PUSH8 0xFFFFFFFFFFFFFFFF DUP2 GT ISZERO PUSH2 0x52B JUMPI PUSH2 0x52A PUSH2 0x875 JUMP JUMPDEST JUMPDEST PUSH1 0x20 DUP4 ADD SWAP2 POP DUP4 PUSH1 0x1 DUP3 MUL DUP4 ADD GT ISZERO PUSH2 0x547 JUMPI PUSH2 0x546 PUSH2 0x87F JUMP JUMPDEST JUMPDEST SWAP3 POP SWAP3 SWAP1 POP JUMP JUMPDEST PUSH1 0x0 DUP2 CALLDATALOAD SWAP1 POP PUSH2 0x55D DUP2 PUSH2 0x8B6 JUMP JUMPDEST SWAP3 SWAP2 POP POP JUMP JUMPDEST PUSH1 0x0 PUSH1 0x20 DUP3 DUP5 SUB SLT ISZERO PUSH2 0x579 JUMPI PUSH2 0x578 PUSH2 0x889 JUMP JUMPDEST JUMPDEST PUSH1 0x0 PUSH2 0x587 DUP5 DUP3 DUP6 ADD PUSH2 0x4E3 JUMP JUMPDEST SWAP2 POP POP SWAP3 SWAP2 POP POP JUMP JUMPDEST PUSH1 0x0 DUP1 PUSH1 0x0 PUSH1 0x40 DUP5 DUP7 SUB SLT ISZERO PUSH2 0x5A9 JUMPI PUSH2 0x5A8 PUSH2 0x889 JUMP JUMPDEST JUMPDEST PUSH1 0x0 DUP5 ADD CALLDATALOAD PUSH8 0xFFFFFFFFFFFFFFFF DUP2 GT ISZERO PUSH2 0x5C7 JUMPI PUSH2 0x5C6 PUSH2 0x884 JUMP JUMPDEST JUMPDEST PUSH2 0x5D3 DUP7 DUP3 DUP8 ADD PUSH2 0x4F8 JUMP JUMPDEST SWAP4 POP SWAP4 POP POP PUSH1 0x20 PUSH2 0x5E6 DUP7 DUP3 DUP8 ADD PUSH2 0x54E JUMP JUMPDEST SWAP2 POP POP SWAP3 POP SWAP3 POP SWAP3 JUMP JUMPDEST PUSH1 0x0 PUSH1 0x20 DUP3 DUP5 SUB SLT ISZERO PUSH2 0x606 JUMPI PUSH2 0x605 PUSH2 0x889 JUMP JUMPDEST JUMPDEST PUSH1 0x0 PUSH2 0x614 DUP5 DUP3 DUP6 ADD PUSH2 0x54E JUMP JUMPDEST SWAP2 POP POP SWAP3 SWAP2 POP POP JUMP JUMPDEST PUSH1 0x0 PUSH2 0x628 DUP3 PUSH2 0x778 JUMP JUMPDEST PUSH2 0x632 DUP2 DUP6 PUSH2 0x783 JUMP JUMPDEST SWAP4 POP PUSH2 0x642 DUP2 DUP6 PUSH1 0x20 DUP7 ADD PUSH2 0x7E1 JUMP JUMPDEST PUSH2 0x64B DUP2 PUSH2 0x88E JUMP JUMPDEST DUP5 ADD SWAP2 POP POP SWAP3 SWAP2 POP POP JUMP JUMPDEST PUSH1 0x0 PUSH2 0x661 DUP3 PUSH2 0x778 JUMP JUMPDEST PUSH2 0x66B DUP2 DUP6 PUSH2 0x794 JUMP JUMPDEST SWAP4 POP PUSH2 0x67B DUP2 DUP6 PUSH1 0x20 DUP7 ADD PUSH2 0x7E1 JUMP JUMPDEST PUSH2 0x684 DUP2 PUSH2 0x88E JUMP JUMPDEST DUP5 ADD SWAP2 POP POP SWAP3 SWAP2 POP POP JUMP JUMPDEST PUSH1 0x0 PUSH1 0x60 DUP4 ADD PUSH1 0x0 DUP4 ADD MLOAD DUP5 DUP3 SUB PUSH1 0x0 DUP7 ADD MSTORE PUSH2 0x6AC DUP3 DUP3 PUSH2 0x61D JUMP JUMPDEST SWAP2 POP POP PUSH1 0x20 DUP4 ADD MLOAD PUSH2 0x6C1 PUSH1 0x20 DUP7 ADD DUP3 PUSH2 0x6DF JUMP JUMPDEST POP PUSH1 0x40 DUP4 ADD MLOAD PUSH2 0x6D4 PUSH1 0x40 DUP7 ADD DUP3 PUSH2 0x6DF JUMP JUMPDEST POP DUP1 SWAP2 POP POP SWAP3 SWAP2 POP POP JUMP JUMPDEST PUSH2 0x6E8 DUP2 PUSH2 0x7D7 JUMP JUMPDEST DUP3 MSTORE POP POP JUMP JUMPDEST PUSH2 0x6F7 DUP2 PUSH2 0x7D7 JUMP JUMPDEST DUP3 MSTORE POP POP JUMP JUMPDEST PUSH1 0x0 PUSH1 0x60 DUP3 ADD SWAP1 POP DUP2 DUP2 SUB PUSH1 0x0 DUP4 ADD MSTORE PUSH2 0x717 DUP2 DUP7 PUSH2 0x656 JUMP JUMPDEST SWAP1 POP PUSH2 0x726 PUSH1 0x20 DUP4 ADD DUP6 PUSH2 0x6EE JUMP JUMPDEST PUSH2 0x733 PUSH1 0x40 DUP4 ADD DUP5 PUSH2 0x6EE JUMP JUMPDEST SWAP5 SWAP4 POP POP POP POP JUMP JUMPDEST PUSH1 0x0 PUSH1 0x20 DUP3 ADD SWAP1 POP DUP2 DUP2 SUB PUSH1 0x0 DUP4 ADD MSTORE PUSH2 0x755 DUP2 DUP5 PUSH2 0x68F JUMP JUMPDEST SWAP1 POP SWAP3 SWAP2 POP POP JUMP JUMPDEST PUSH1 0x0 PUSH1 0x20 DUP3 ADD SWAP1 POP PUSH2 0x772 PUSH1 0x0 DUP4 ADD DUP5 PUSH2 0x6EE JUMP JUMPDEST SWAP3 SWAP2 POP POP JUMP JUMPDEST PUSH1 0x0 DUP2 MLOAD SWAP1 POP SWAP2 SWAP1 POP JUMP JUMPDEST PUSH1 0x0 DUP3 DUP3 MSTORE PUSH1 0x20 DUP3 ADD SWAP1 POP SWAP3 SWAP2 POP POP JUMP JUMPDEST PUSH1 0x0 DUP3 DUP3 MSTORE PUSH1 0x20 DUP3 ADD SWAP1 POP SWAP3 SWAP2 POP POP JUMP JUMPDEST PUSH1 0x0 PUSH2 0x7B0 DUP3 PUSH2 0x7B7 JUMP JUMPDEST SWAP1 POP SWAP2 SWAP1 POP JUMP JUMPDEST PUSH1 0x0 PUSH20 0xFFFFFFFFFFFFFFFFFFFFFFFFFFFFFFFFFFFFFFFF DUP3 AND SWAP1 POP SWAP2 SWAP1 POP JUMP JUMPDEST PUSH1 0x0 DUP2 SWAP1 POP SWAP2 SWAP1 POP JUMP JUMPDEST PUSH1 0x0 JUMPDEST DUP4 DUP2 LT ISZERO PUSH2 0x7FF JUMPI DUP1 DUP3 ADD MLOAD DUP2 DUP5 ADD MSTORE PUSH1 0x20 DUP2 ADD SWAP1 POP PUSH2 0x7E4 JUMP JUMPDEST DUP4 DUP2 GT ISZERO PUSH2 0x80E JUMPI PUSH1 0x0 DUP5 DUP5 ADD MSTORE JUMPDEST POP POP POP POP JUMP JUMPDEST PUSH1 0x0 PUSH1 0x2 DUP3 DIV SWAP1 POP PUSH1 0x1 DUP3 AND DUP1 PUSH2 0x82C JUMPI PUSH1 0x7F DUP3 AND SWAP2 POP JUMPDEST PUSH1 0x20 DUP3 LT DUP2 EQ ISZERO PUSH2 0x840 JUMPI PUSH2 0x83F PUSH2 0x846 JUMP JUMPDEST JUMPDEST POP SWAP2 SWAP1 POP JUMP JUMPDEST PUSH32 0x4E487B7100000000000000000000000000000000000000000000000000000000 PUSH1 0x0 MSTORE PUSH1 0x22 PUSH1 0x4 MSTORE PUSH1 0x24 PUSH1 0x0 REVERT JUMPDEST PUSH1 0x0 DUP1 REVERT JUMPDEST PUSH1 0x0 DUP1 REVERT JUMPDEST PUSH1 0x0 DUP1 REVERT JUMPDEST PUSH1 0x0 DUP1 REVERT JUMPDEST PUSH1 0x0 DUP1 REVERT JUMPDEST PUSH1 0x0 PUSH1 0x1F NOT PUSH1 0x1F DUP4 ADD AND SWAP1 POP SWAP2 SWAP1 POP JUMP JUMPDEST PUSH2 0x8A8 DUP2 PUSH2 0x7A5 JUMP JUMPDEST DUP2 EQ PUSH2 0x8B3 JUMPI PUSH1 0x0 DUP1 REVERT JUMPDEST POP JUMP JUMPDEST PUSH2 0x8BF DUP2 PUSH2 0x7D7 JUMP JUMPDEST DUP2 EQ PUSH2 0x8CA JUMPI PUSH1 0x0 DUP1 REVERT JUMPDEST POP JUMP INVALID LOG2 PUSH5 0x6970667358 0x22 SLT KECCAK256 0xEF ADD PUSH13 0xC88A305DBE2CF3C30D46B216EB EQ MSTORE 0xD3 PUSH3 0xAE240B 0xB7 RETURNDATASIZE 0xD8 0xD5 EXTCODESIZE MSTORE 0xA9 LOG2 CREATE PUSH5 0x736F6C6343 STOP ADDMOD SMOD STOP CALLER "
				},
				"gasEstimates": {
					"creation": {
						"codeDepositCost": "461400",
						"executionCost": "499",
						"totalCost": "461899"
					},
					"external": {
						"checkBalance()": "2598",
						"deposit(uint256)": "22672",
						"getUserDetail()": "infinite",
						"setUserDetails(string,uint256)": "infinite",
						"usersData(address)": "infinite"
					}
				},
				"methodIdentifiers": {
					"checkBalance()": "c71daccb",
					"deposit(uint256)": "b6b55f25",
					"getUserDetail()": "8b326ec2",
					"setUserDetails(string,uint256)": "08f6f76e",
					"usersData(address)": "0560ab69"
				}
			},
			"storageLayout": {
				"storage": [
					{
						"astId": 13,
						"contract": "contracts/Structs.sol:Structs",
						"label": "usersData",
						"offset": 0,
						"slot": "0",
						"type": "t_mapping(t_address,t_struct(User)8_storage)"
					}
				],
				"types": {
					"t_address": {
						"encoding": "inplace",
						"label": "address",
						"numberOfBytes": "20"
					},
					"t_mapping(t_address,t_struct(User)8_storage)": {
						"encoding": "mapping",
						"key": "t_address",
						"label": "mapping(address => struct Structs.User)",
						"numberOfBytes": "32",
						"value": "t_struct(User)8_storage"
					},
					"t_string_storage": {
						"encoding": "bytes",
						"label": "string",
						"numberOfBytes": "32"
					},
					"t_struct(User)8_storage": {
						"encoding": "inplace",
						"label": "struct Structs.User",
						"members": [
							{
								"astId": 3,
								"contract": "contracts/Structs.sol:Structs",
								"label": "name",
								"offset": 0,
								"slot": "0",
								"type": "t_string_storage"
							},
							{
								"astId": 5,
								"contract": "contracts/Structs.sol:Structs",
								"label": "age",
								"offset": 0,
								"slot": "1",
								"type": "t_uint256"
							},
							{
								"astId": 7,
								"contract": "contracts/Structs.sol:Structs",
								"label": "balance",
								"offset": 0,
								"slot": "2",
								"type": "t_uint256"
							}
						],
						"numberOfBytes": "96"
					},
					"t_uint256": {
						"encoding": "inplace",
						"label": "uint256",
						"numberOfBytes": "32"
					}
				}
			},
			"userdoc": {
				"kind": "user",
				"methods": {},
				"version": 1
			}
		}
	}
}