{
	"contracts/Modifiers.sol": {
		"Modifiers": {
			"abi": [
				{
					"inputs": [],
					"stateMutability": "nonpayable",
					"type": "constructor"
				},
				{
					"inputs": [],
					"name": "AmountToSmall",
					"type": "error"
				},
				{
					"inputs": [
						{
							"internalType": "uint256",
							"name": "_amount",
							"type": "uint256"
						}
					],
					"name": "addFund",
					"outputs": [],
					"stateMutability": "nonpayable",
					"type": "function"
				},
				{
					"inputs": [],
					"name": "checkBalance",
					"outputs": [
						{
							"internalType": "uint256",
							"name": "",
							"type": "uint256"
						}
					],
					"stateMutability": "view",
					"type": "function"
				},
				{
					"inputs": [
						{
							"internalType": "uint256",
							"name": "amount",
							"type": "uint256"
						}
					],
					"name": "deposit",
					"outputs": [],
					"stateMutability": "nonpayable",
					"type": "function"
				},
				{
					"inputs": [],
					"name": "getUserDetail",
					"outputs": [
						{
							"components": [
								{
									"internalType": "string",
									"name": "name",
									"type": "string"
								},
								{
									"internalType": "uint256",
									"name": "age",
									"type": "uint256"
								},
								{
									"internalType": "uint256",
									"name": "balance",
									"type": "uint256"
								}
							],
							"internalType": "struct Modifiers.User",
							"name": "",
							"type": "tuple"
						}
					],
					"stateMutability": "view",
					"type": "function"
				},
				{
					"inputs": [],
					"name": "owner",
					"outputs": [
						{
							"internalType": "address",
							"name": "",
							"type": "address"
						}
					],
					"stateMutability": "view",
					"type": "function"
				},
				{
					"inputs": [
						{
							"internalType": "string",
							"name": "name",
							"type": "string"
						},
						{
							"internalType": "uint256",
							"name": "age",
							"type": "uint256"
						}
					],
					"name": "setUserDetails",
					"outputs": [],
					"stateMutability": "nonpayable",
					"type": "function"
				},
				{
					"inputs": [
						{
							"internalType": "address",
							"name": "",
							"type": "address"
						}
					],
					"name": "usersData",
					"outputs": [
						{
							"internalType": "string",
							"name": "name",
							"type": "string"
						},
						{
							"internalType": "uint256",
							"name": "age",
							"type": "uint256"
						},
						{
							"internalType": "uint256",
							"name": "balance",
							"type": "uint256"
						}
					],
					"stateMutability": "view",
					"type": "function"
				},
				{
					"inputs": [],
					"name": "withdraw",
					"outputs": [],
					"stateMutability": "nonpayable",
					"type": "function"
				}
			],
			"devdoc": {
				"kind": "dev",
				"methods": {},
				"version": 1
			},
			"evm": {
				"assembly": "    /* \"contracts/Modifiers.sol\":100:1883  contract Modifiers {\r... */\n  mstore(0x40, 0x80)\n    /* \"contracts/Modifiers.sol\":244:246  10 */\n  0x0a\n    /* \"contracts/Modifiers.sol\":224:246  uint private Feed = 10 */\n  0x00\n  sstore\n    /* \"contracts/Modifiers.sol\":871:921  constructor(){\r... */\n  callvalue\n  dup1\n  iszero\n  tag_1\n  jumpi\n  0x00\n  dup1\n  revert\ntag_1:\n  pop\n    /* \"contracts/Modifiers.sol\":903:913  msg.sender */\n  caller\n    /* \"contracts/Modifiers.sol\":895:900  owner */\n  0x01\n  0x00\n    /* \"contracts/Modifiers.sol\":895:913  owner = msg.sender */\n  0x0100\n  exp\n  dup2\n  sload\n  dup2\n  0xffffffffffffffffffffffffffffffffffffffff\n  mul\n  not\n  and\n  swap1\n  dup4\n  0xffffffffffffffffffffffffffffffffffffffff\n  and\n  mul\n  or\n  swap1\n  sstore\n  pop\n    /* \"contracts/Modifiers.sol\":100:1883  contract Modifiers {\r... */\n  dataSize(sub_0)\n  dup1\n  dataOffset(sub_0)\n  0x00\n  codecopy\n  0x00\n  return\nstop\n\nsub_0: assembly {\n        /* \"contracts/Modifiers.sol\":100:1883  contract Modifiers {\r... */\n      mstore(0x40, 0x80)\n      callvalue\n      dup1\n      iszero\n      tag_1\n      jumpi\n      0x00\n      dup1\n      revert\n    tag_1:\n      pop\n      jumpi(tag_2, lt(calldatasize, 0x04))\n      shr(0xe0, calldataload(0x00))\n      dup1\n      0x8b326ec2\n      gt\n      tag_11\n      jumpi\n      dup1\n      0x8b326ec2\n      eq\n      tag_7\n      jumpi\n      dup1\n      0x8da5cb5b\n      eq\n      tag_8\n      jumpi\n      dup1\n      0xb6b55f25\n      eq\n      tag_9\n      jumpi\n      dup1\n      0xc71daccb\n      eq\n      tag_10\n      jumpi\n      jump(tag_2)\n    tag_11:\n      dup1\n      0x0560ab69\n      eq\n      tag_3\n      jumpi\n      dup1\n      0x08f6f76e\n      eq\n      tag_4\n      jumpi\n      dup1\n      0x346c96e9\n      eq\n      tag_5\n      jumpi\n      dup1\n      0x3ccfd60b\n      eq\n      tag_6\n      jumpi\n    tag_2:\n      0x00\n      dup1\n      revert\n        /* \"contracts/Modifiers.sol\":282:323  mapping(address => User) public usersData */\n    tag_3:\n      tag_12\n      0x04\n      dup1\n      calldatasize\n      sub\n      dup2\n      add\n      swap1\n      tag_13\n      swap2\n      swap1\n      tag_14\n      jump\t// in\n    tag_13:\n      tag_15\n      jump\t// in\n    tag_12:\n      mload(0x40)\n      tag_16\n      swap4\n      swap3\n      swap2\n      swap1\n      tag_17\n      jump\t// in\n    tag_16:\n      mload(0x40)\n      dup1\n      swap2\n      sub\n      swap1\n      return\n        /* \"contracts/Modifiers.sol\":1186:1313  function setUserDetails(string calldata name, uint256 age) public {\r... */\n    tag_4:\n      tag_18\n      0x04\n      dup1\n      calldatasize\n      sub\n      dup2\n      add\n      swap1\n      tag_19\n      swap2\n      swap1\n      tag_20\n      jump\t// in\n    tag_19:\n      tag_21\n      jump\t// in\n    tag_18:\n      stop\n        /* \"contracts/Modifiers.sol\":1711:1879  function addFund(uint256 _amount) public hasDeposit mayorThanFee(_amount) {\r... */\n    tag_5:\n      tag_22\n      0x04\n      dup1\n      calldatasize\n      sub\n      dup2\n      add\n      swap1\n      tag_23\n      swap2\n      swap1\n      tag_24\n      jump\t// in\n    tag_23:\n      tag_25\n      jump\t// in\n    tag_22:\n      stop\n        /* \"contracts/Modifiers.sol\":1479:1603  function withdraw() public onlyOwner {\r... */\n    tag_6:\n      tag_26\n      tag_27\n      jump\t// in\n    tag_26:\n      stop\n        /* \"contracts/Modifiers.sol\":1321:1426  function getUserDetail() public view returns (User memory){\r... */\n    tag_7:\n      tag_28\n      tag_29\n      jump\t// in\n    tag_28:\n      mload(0x40)\n      tag_30\n      swap2\n      swap1\n      tag_31\n      jump\t// in\n    tag_30:\n      mload(0x40)\n      dup1\n      swap2\n      sub\n      swap1\n      return\n        /* \"contracts/Modifiers.sol\":253:273  address public owner */\n    tag_8:\n      tag_32\n      tag_33\n      jump\t// in\n    tag_32:\n      mload(0x40)\n      tag_34\n      swap2\n      swap1\n      tag_35\n      jump\t// in\n    tag_34:\n      mload(0x40)\n      dup1\n      swap2\n      sub\n      swap1\n      return\n        /* \"contracts/Modifiers.sol\":929:1061  function deposit(uint256 amount) public {\r... */\n    tag_9:\n      tag_36\n      0x04\n      dup1\n      calldatasize\n      sub\n      dup2\n      add\n      swap1\n      tag_37\n      swap2\n      swap1\n      tag_24\n      jump\t// in\n    tag_37:\n      tag_38\n      jump\t// in\n    tag_36:\n      stop\n        /* \"contracts/Modifiers.sol\":1069:1178  function checkBalance() public view returns (uint256) {\r... */\n    tag_10:\n      tag_39\n      tag_40\n      jump\t// in\n    tag_39:\n      mload(0x40)\n      tag_41\n      swap2\n      swap1\n      tag_42\n      jump\t// in\n    tag_41:\n      mload(0x40)\n      dup1\n      swap2\n      sub\n      swap1\n      return\n        /* \"contracts/Modifiers.sol\":282:323  mapping(address => User) public usersData */\n    tag_15:\n      mstore(0x20, 0x02)\n      dup1\n      0x00\n      mstore\n      keccak256(0x00, 0x40)\n      0x00\n      swap2\n      pop\n      swap1\n      pop\n      dup1\n      0x00\n      add\n      dup1\n      sload\n      tag_43\n      swap1\n      tag_44\n      jump\t// in\n    tag_43:\n      dup1\n      0x1f\n      add\n      0x20\n      dup1\n      swap2\n      div\n      mul\n      0x20\n      add\n      mload(0x40)\n      swap1\n      dup2\n      add\n      0x40\n      mstore\n      dup1\n      swap3\n      swap2\n      swap1\n      dup2\n      dup2\n      mstore\n      0x20\n      add\n      dup3\n      dup1\n      sload\n      tag_45\n      swap1\n      tag_44\n      jump\t// in\n    tag_45:\n      dup1\n      iszero\n      tag_46\n      jumpi\n      dup1\n      0x1f\n      lt\n      tag_47\n      jumpi\n      0x0100\n      dup1\n      dup4\n      sload\n      div\n      mul\n      dup4\n      mstore\n      swap2\n      0x20\n      add\n      swap2\n      jump(tag_46)\n    tag_47:\n      dup3\n      add\n      swap2\n      swap1\n      0x00\n      mstore\n      keccak256(0x00, 0x20)\n      swap1\n    tag_48:\n      dup2\n      sload\n      dup2\n      mstore\n      swap1\n      0x01\n      add\n      swap1\n      0x20\n      add\n      dup1\n      dup4\n      gt\n      tag_48\n      jumpi\n      dup3\n      swap1\n      sub\n      0x1f\n      and\n      dup3\n      add\n      swap2\n    tag_46:\n      pop\n      pop\n      pop\n      pop\n      pop\n      swap1\n      dup1\n      0x01\n      add\n      sload\n      swap1\n      dup1\n      0x02\n      add\n      sload\n      swap1\n      pop\n      dup4\n      jump\t// out\n        /* \"contracts/Modifiers.sol\":1186:1313  function setUserDetails(string calldata name, uint256 age) public {\r... */\n    tag_21:\n        /* \"contracts/Modifiers.sol\":1287:1305  User(name, age, 0) */\n      mload(0x40)\n      dup1\n      0x60\n      add\n      0x40\n      mstore\n      dup1\n        /* \"contracts/Modifiers.sol\":1292:1296  name */\n      dup5\n      dup5\n        /* \"contracts/Modifiers.sol\":1287:1305  User(name, age, 0) */\n      dup1\n      dup1\n      0x1f\n      add\n      0x20\n      dup1\n      swap2\n      div\n      mul\n      0x20\n      add\n      mload(0x40)\n      swap1\n      dup2\n      add\n      0x40\n      mstore\n      dup1\n      swap4\n      swap3\n      swap2\n      swap1\n      dup2\n      dup2\n      mstore\n      0x20\n      add\n      dup4\n      dup4\n      dup1\n      dup3\n      dup5\n      calldatacopy\n      0x00\n      dup2\n      dup5\n      add\n      mstore\n      not(0x1f)\n      0x1f\n      dup3\n      add\n      and\n      swap1\n      pop\n      dup1\n      dup4\n      add\n      swap3\n      pop\n      pop\n      pop\n      pop\n      pop\n      pop\n      pop\n      dup2\n      mstore\n      0x20\n      add\n        /* \"contracts/Modifiers.sol\":1298:1301  age */\n      dup3\n        /* \"contracts/Modifiers.sol\":1287:1305  User(name, age, 0) */\n      dup2\n      mstore\n      0x20\n      add\n        /* \"contracts/Modifiers.sol\":1303:1304  0 */\n      0x00\n        /* \"contracts/Modifiers.sol\":1287:1305  User(name, age, 0) */\n      dup2\n      mstore\n      pop\n        /* \"contracts/Modifiers.sol\":1263:1272  usersData */\n      0x02\n        /* \"contracts/Modifiers.sol\":1263:1284  usersData[msg.sender] */\n      0x00\n        /* \"contracts/Modifiers.sol\":1273:1283  msg.sender */\n      caller\n        /* \"contracts/Modifiers.sol\":1263:1284  usersData[msg.sender] */\n      0xffffffffffffffffffffffffffffffffffffffff\n      and\n      0xffffffffffffffffffffffffffffffffffffffff\n      and\n      dup2\n      mstore\n      0x20\n      add\n      swap1\n      dup2\n      mstore\n      0x20\n      add\n      0x00\n      keccak256\n        /* \"contracts/Modifiers.sol\":1263:1305  usersData[msg.sender] = User(name, age, 0) */\n      0x00\n      dup3\n      add\n      mload\n      dup2\n      0x00\n      add\n      swap1\n      dup1\n      mload\n      swap1\n      0x20\n      add\n      swap1\n      tag_50\n      swap3\n      swap2\n      swap1\n      tag_51\n      jump\t// in\n    tag_50:\n      pop\n      0x20\n      dup3\n      add\n      mload\n      dup2\n      0x01\n      add\n      sstore\n      0x40\n      dup3\n      add\n      mload\n      dup2\n      0x02\n      add\n      sstore\n      swap1\n      pop\n      pop\n        /* \"contracts/Modifiers.sol\":1186:1313  function setUserDetails(string calldata name, uint256 age) public {\r... */\n      pop\n      pop\n      pop\n      jump\t// out\n        /* \"contracts/Modifiers.sol\":1711:1879  function addFund(uint256 _amount) public hasDeposit mayorThanFee(_amount) {\r... */\n    tag_25:\n        /* \"contracts/Modifiers.sol\":520:536  User memory user */\n      0x00\n        /* \"contracts/Modifiers.sol\":539:548  usersData */\n      0x02\n        /* \"contracts/Modifiers.sol\":539:560  usersData[msg.sender] */\n      0x00\n        /* \"contracts/Modifiers.sol\":549:559  msg.sender */\n      caller\n        /* \"contracts/Modifiers.sol\":539:560  usersData[msg.sender] */\n      0xffffffffffffffffffffffffffffffffffffffff\n      and\n      0xffffffffffffffffffffffffffffffffffffffff\n      and\n      dup2\n      mstore\n      0x20\n      add\n      swap1\n      dup2\n      mstore\n      0x20\n      add\n      0x00\n      keccak256\n        /* \"contracts/Modifiers.sol\":520:560  User memory user = usersData[msg.sender] */\n      mload(0x40)\n      dup1\n      0x60\n      add\n      0x40\n      mstore\n      swap1\n      dup2\n      0x00\n      dup3\n      add\n      dup1\n      sload\n      tag_53\n      swap1\n      tag_44\n      jump\t// in\n    tag_53:\n      dup1\n      0x1f\n      add\n      0x20\n      dup1\n      swap2\n      div\n      mul\n      0x20\n      add\n      mload(0x40)\n      swap1\n      dup2\n      add\n      0x40\n      mstore\n      dup1\n      swap3\n      swap2\n      swap1\n      dup2\n      dup2\n      mstore\n      0x20\n      add\n      dup3\n      dup1\n      sload\n      tag_54\n      swap1\n      tag_44\n      jump\t// in\n    tag_54:\n      dup1\n      iszero\n      tag_55\n      jumpi\n      dup1\n      0x1f\n      lt\n      tag_56\n      jumpi\n      0x0100\n      dup1\n      dup4\n      sload\n      div\n      mul\n      dup4\n      mstore\n      swap2\n      0x20\n      add\n      swap2\n      jump(tag_55)\n    tag_56:\n      dup3\n      add\n      swap2\n      swap1\n      0x00\n      mstore\n      keccak256(0x00, 0x20)\n      swap1\n    tag_57:\n      dup2\n      sload\n      dup2\n      mstore\n      swap1\n      0x01\n      add\n      swap1\n      0x20\n      add\n      dup1\n      dup4\n      gt\n      tag_57\n      jumpi\n      dup3\n      swap1\n      sub\n      0x1f\n      and\n      dup3\n      add\n      swap2\n    tag_55:\n      pop\n      pop\n      pop\n      pop\n      pop\n      dup2\n      mstore\n      0x20\n      add\n      0x01\n      dup3\n      add\n      sload\n      dup2\n      mstore\n      0x20\n      add\n      0x02\n      dup3\n      add\n      sload\n      dup2\n      mstore\n      pop\n      pop\n      swap1\n      pop\n        /* \"contracts/Modifiers.sol\":594:595  0 */\n      0x00\n        /* \"contracts/Modifiers.sol\":579:583  user */\n      dup2\n        /* \"contracts/Modifiers.sol\":579:591  user.balance */\n      0x40\n      add\n      mload\n        /* \"contracts/Modifiers.sol\":579:595  user.balance > 0 */\n      gt\n        /* \"contracts/Modifiers.sol\":571:619  require(user.balance > 0, \"You have to deposit\") */\n      tag_58\n      jumpi\n      mload(0x40)\n      0x08c379a000000000000000000000000000000000000000000000000000000000\n      dup2\n      mstore\n      0x04\n      add\n      tag_59\n      swap1\n      tag_60\n      jump\t// in\n    tag_59:\n      mload(0x40)\n      dup1\n      swap2\n      sub\n      swap1\n      revert\n    tag_58:\n        /* \"contracts/Modifiers.sol\":1776:1783  _amount */\n      dup2\n        /* \"contracts/Modifiers.sol\":790:794  Feed */\n      sload(0x00)\n        /* \"contracts/Modifiers.sol\":779:786  _amount */\n      dup2\n        /* \"contracts/Modifiers.sol\":779:794  _amount <= Feed */\n      gt\n        /* \"contracts/Modifiers.sol\":776:844  if(_amount <= Feed){\r... */\n      tag_62\n      jumpi\n        /* \"contracts/Modifiers.sol\":817:832  AmountToSmall() */\n      mload(0x40)\n      0xe07d327100000000000000000000000000000000000000000000000000000000\n      dup2\n      mstore\n      0x04\n      add\n      mload(0x40)\n      dup1\n      swap2\n      sub\n      swap1\n      revert\n        /* \"contracts/Modifiers.sol\":776:844  if(_amount <= Feed){\r... */\n    tag_62:\n        /* \"contracts/Modifiers.sol\":1796:1813  User storage user */\n      0x00\n        /* \"contracts/Modifiers.sol\":1816:1825  usersData */\n      0x02\n        /* \"contracts/Modifiers.sol\":1816:1837  usersData[msg.sender] */\n      0x00\n        /* \"contracts/Modifiers.sol\":1826:1836  msg.sender */\n      caller\n        /* \"contracts/Modifiers.sol\":1816:1837  usersData[msg.sender] */\n      0xffffffffffffffffffffffffffffffffffffffff\n      and\n      0xffffffffffffffffffffffffffffffffffffffff\n      and\n      dup2\n      mstore\n      0x20\n      add\n      swap1\n      dup2\n      mstore\n      0x20\n      add\n      0x00\n      keccak256\n        /* \"contracts/Modifiers.sol\":1796:1837  User storage user = usersData[msg.sender] */\n      swap1\n      pop\n        /* \"contracts/Modifiers.sol\":1864:1871  _amount */\n      dup4\n        /* \"contracts/Modifiers.sol\":1848:1852  user */\n      dup2\n        /* \"contracts/Modifiers.sol\":1848:1860  user.balance */\n      0x02\n      add\n      0x00\n        /* \"contracts/Modifiers.sol\":1848:1871  user.balance += _amount */\n      dup3\n      dup3\n      sload\n      tag_64\n      swap2\n      swap1\n      tag_65\n      jump\t// in\n    tag_64:\n      swap3\n      pop\n      pop\n      dup2\n      swap1\n      sstore\n      pop\n        /* \"contracts/Modifiers.sol\":1785:1879  {\r... */\n      pop\n        /* \"contracts/Modifiers.sol\":630:631  _ */\n      pop\n        /* \"contracts/Modifiers.sol\":509:639  {\r... */\n      pop\n        /* \"contracts/Modifiers.sol\":1711:1879  function addFund(uint256 _amount) public hasDeposit mayorThanFee(_amount) {\r... */\n      pop\n      jump\t// out\n        /* \"contracts/Modifiers.sol\":1479:1603  function withdraw() public onlyOwner {\r... */\n    tag_27:\n        /* \"contracts/Modifiers.sol\":386:391  owner */\n      0x01\n      0x00\n      swap1\n      sload\n      swap1\n      0x0100\n      exp\n      swap1\n      div\n      0xffffffffffffffffffffffffffffffffffffffff\n      and\n        /* \"contracts/Modifiers.sol\":372:391  msg.sender == owner */\n      0xffffffffffffffffffffffffffffffffffffffff\n      and\n        /* \"contracts/Modifiers.sol\":372:382  msg.sender */\n      caller\n        /* \"contracts/Modifiers.sol\":372:391  msg.sender == owner */\n      0xffffffffffffffffffffffffffffffffffffffff\n      and\n      eq\n        /* \"contracts/Modifiers.sol\":364:405  require(msg.sender == owner, \"Not owner\") */\n      tag_67\n      jumpi\n      mload(0x40)\n      0x08c379a000000000000000000000000000000000000000000000000000000000\n      dup2\n      mstore\n      0x04\n      add\n      tag_68\n      swap1\n      tag_69\n      jump\t// in\n    tag_68:\n      mload(0x40)\n      dup1\n      swap2\n      sub\n      swap1\n      revert\n    tag_67:\n        /* \"contracts/Modifiers.sol\":1527:1544  User storage user */\n      0x00\n        /* \"contracts/Modifiers.sol\":1547:1556  usersData */\n      0x02\n        /* \"contracts/Modifiers.sol\":1547:1568  usersData[msg.sender] */\n      0x00\n        /* \"contracts/Modifiers.sol\":1557:1567  msg.sender */\n      caller\n        /* \"contracts/Modifiers.sol\":1547:1568  usersData[msg.sender] */\n      0xffffffffffffffffffffffffffffffffffffffff\n      and\n      0xffffffffffffffffffffffffffffffffffffffff\n      and\n      dup2\n      mstore\n      0x20\n      add\n      swap1\n      dup2\n      mstore\n      0x20\n      add\n      0x00\n      keccak256\n        /* \"contracts/Modifiers.sol\":1527:1568  User storage user = usersData[msg.sender] */\n      swap1\n      pop\n        /* \"contracts/Modifiers.sol\":1594:1595  0 */\n      0x00\n        /* \"contracts/Modifiers.sol\":1579:1583  user */\n      dup2\n        /* \"contracts/Modifiers.sol\":1579:1591  user.balance */\n      0x02\n      add\n        /* \"contracts/Modifiers.sol\":1579:1595  user.balance = 0 */\n      dup2\n      swap1\n      sstore\n      pop\n        /* \"contracts/Modifiers.sol\":1516:1603  {\r... */\n      pop\n        /* \"contracts/Modifiers.sol\":1479:1603  function withdraw() public onlyOwner {\r... */\n      jump\t// out\n        /* \"contracts/Modifiers.sol\":1321:1426  function getUserDetail() public view returns (User memory){\r... */\n    tag_29:\n        /* \"contracts/Modifiers.sol\":1367:1378  User memory */\n      tag_71\n      tag_72\n      jump\t// in\n    tag_71:\n        /* \"contracts/Modifiers.sol\":1397:1406  usersData */\n      0x02\n        /* \"contracts/Modifiers.sol\":1397:1418  usersData[msg.sender] */\n      0x00\n        /* \"contracts/Modifiers.sol\":1407:1417  msg.sender */\n      caller\n        /* \"contracts/Modifiers.sol\":1397:1418  usersData[msg.sender] */\n      0xffffffffffffffffffffffffffffffffffffffff\n      and\n      0xffffffffffffffffffffffffffffffffffffffff\n      and\n      dup2\n      mstore\n      0x20\n      add\n      swap1\n      dup2\n      mstore\n      0x20\n      add\n      0x00\n      keccak256\n        /* \"contracts/Modifiers.sol\":1390:1418  return usersData[msg.sender] */\n      mload(0x40)\n      dup1\n      0x60\n      add\n      0x40\n      mstore\n      swap1\n      dup2\n      0x00\n      dup3\n      add\n      dup1\n      sload\n      tag_74\n      swap1\n      tag_44\n      jump\t// in\n    tag_74:\n      dup1\n      0x1f\n      add\n      0x20\n      dup1\n      swap2\n      div\n      mul\n      0x20\n      add\n      mload(0x40)\n      swap1\n      dup2\n      add\n      0x40\n      mstore\n      dup1\n      swap3\n      swap2\n      swap1\n      dup2\n      dup2\n      mstore\n      0x20\n      add\n      dup3\n      dup1\n      sload\n      tag_75\n      swap1\n      tag_44\n      jump\t// in\n    tag_75:\n      dup1\n      iszero\n      tag_76\n      jumpi\n      dup1\n      0x1f\n      lt\n      tag_77\n      jumpi\n      0x0100\n      dup1\n      dup4\n      sload\n      div\n      mul\n      dup4\n      mstore\n      swap2\n      0x20\n      add\n      swap2\n      jump(tag_76)\n    tag_77:\n      dup3\n      add\n      swap2\n      swap1\n      0x00\n      mstore\n      keccak256(0x00, 0x20)\n      swap1\n    tag_78:\n      dup2\n      sload\n      dup2\n      mstore\n      swap1\n      0x01\n      add\n      swap1\n      0x20\n      add\n      dup1\n      dup4\n      gt\n      tag_78\n      jumpi\n      dup3\n      swap1\n      sub\n      0x1f\n      and\n      dup3\n      add\n      swap2\n    tag_76:\n      pop\n      pop\n      pop\n      pop\n      pop\n      dup2\n      mstore\n      0x20\n      add\n      0x01\n      dup3\n      add\n      sload\n      dup2\n      mstore\n      0x20\n      add\n      0x02\n      dup3\n      add\n      sload\n      dup2\n      mstore\n      pop\n      pop\n      swap1\n      pop\n        /* \"contracts/Modifiers.sol\":1321:1426  function getUserDetail() public view returns (User memory){\r... */\n      swap1\n      jump\t// out\n        /* \"contracts/Modifiers.sol\":253:273  address public owner */\n    tag_33:\n      0x01\n      0x00\n      swap1\n      sload\n      swap1\n      0x0100\n      exp\n      swap1\n      div\n      0xffffffffffffffffffffffffffffffffffffffff\n      and\n      dup2\n      jump\t// out\n        /* \"contracts/Modifiers.sol\":929:1061  function deposit(uint256 amount) public {\r... */\n    tag_38:\n        /* \"contracts/Modifiers.sol\":980:997  User storage user */\n      0x00\n        /* \"contracts/Modifiers.sol\":1000:1009  usersData */\n      0x02\n        /* \"contracts/Modifiers.sol\":1000:1021  usersData[msg.sender] */\n      0x00\n        /* \"contracts/Modifiers.sol\":1010:1020  msg.sender */\n      caller\n        /* \"contracts/Modifiers.sol\":1000:1021  usersData[msg.sender] */\n      0xffffffffffffffffffffffffffffffffffffffff\n      and\n      0xffffffffffffffffffffffffffffffffffffffff\n      and\n      dup2\n      mstore\n      0x20\n      add\n      swap1\n      dup2\n      mstore\n      0x20\n      add\n      0x00\n      keccak256\n        /* \"contracts/Modifiers.sol\":980:1021  User storage user = usersData[msg.sender] */\n      swap1\n      pop\n        /* \"contracts/Modifiers.sol\":1047:1053  amount */\n      dup2\n        /* \"contracts/Modifiers.sol\":1032:1036  user */\n      dup2\n        /* \"contracts/Modifiers.sol\":1032:1044  user.balance */\n      0x02\n      add\n        /* \"contracts/Modifiers.sol\":1032:1053  user.balance = amount */\n      dup2\n      swap1\n      sstore\n      pop\n        /* \"contracts/Modifiers.sol\":969:1061  {\r... */\n      pop\n        /* \"contracts/Modifiers.sol\":929:1061  function deposit(uint256 amount) public {\r... */\n      pop\n      jump\t// out\n        /* \"contracts/Modifiers.sol\":1069:1178  function checkBalance() public view returns (uint256) {\r... */\n    tag_40:\n        /* \"contracts/Modifiers.sol\":1114:1121  uint256 */\n      0x00\n        /* \"contracts/Modifiers.sol\":1141:1150  usersData */\n      0x02\n        /* \"contracts/Modifiers.sol\":1141:1162  usersData[msg.sender] */\n      0x00\n        /* \"contracts/Modifiers.sol\":1151:1161  msg.sender */\n      caller\n        /* \"contracts/Modifiers.sol\":1141:1162  usersData[msg.sender] */\n      0xffffffffffffffffffffffffffffffffffffffff\n      and\n      0xffffffffffffffffffffffffffffffffffffffff\n      and\n      dup2\n      mstore\n      0x20\n      add\n      swap1\n      dup2\n      mstore\n      0x20\n      add\n      0x00\n      keccak256\n        /* \"contracts/Modifiers.sol\":1141:1170  usersData[msg.sender].balance */\n      0x02\n      add\n      sload\n        /* \"contracts/Modifiers.sol\":1134:1170  return usersData[msg.sender].balance */\n      swap1\n      pop\n        /* \"contracts/Modifiers.sol\":1069:1178  function checkBalance() public view returns (uint256) {\r... */\n      swap1\n      jump\t// out\n    tag_51:\n      dup3\n      dup1\n      sload\n      tag_81\n      swap1\n      tag_44\n      jump\t// in\n    tag_81:\n      swap1\n      0x00\n      mstore\n      keccak256(0x00, 0x20)\n      swap1\n      0x1f\n      add\n      0x20\n      swap1\n      div\n      dup2\n      add\n      swap3\n      dup3\n      tag_83\n      jumpi\n      0x00\n      dup6\n      sstore\n      jump(tag_82)\n    tag_83:\n      dup3\n      0x1f\n      lt\n      tag_84\n      jumpi\n      dup1\n      mload\n      not(0xff)\n      and\n      dup4\n      dup1\n      add\n      or\n      dup6\n      sstore\n      jump(tag_82)\n    tag_84:\n      dup3\n      dup1\n      add\n      0x01\n      add\n      dup6\n      sstore\n      dup3\n      iszero\n      tag_82\n      jumpi\n      swap2\n      dup3\n      add\n    tag_85:\n      dup3\n      dup2\n      gt\n      iszero\n      tag_86\n      jumpi\n      dup3\n      mload\n      dup3\n      sstore\n      swap2\n      0x20\n      add\n      swap2\n      swap1\n      0x01\n      add\n      swap1\n      jump(tag_85)\n    tag_86:\n    tag_82:\n      pop\n      swap1\n      pop\n      tag_87\n      swap2\n      swap1\n      tag_88\n      jump\t// in\n    tag_87:\n      pop\n      swap1\n      jump\t// out\n    tag_72:\n      mload(0x40)\n      dup1\n      0x60\n      add\n      0x40\n      mstore\n      dup1\n      0x60\n      dup2\n      mstore\n      0x20\n      add\n      0x00\n      dup2\n      mstore\n      0x20\n      add\n      0x00\n      dup2\n      mstore\n      pop\n      swap1\n      jump\t// out\n    tag_88:\n    tag_89:\n      dup1\n      dup3\n      gt\n      iszero\n      tag_90\n      jumpi\n      0x00\n      dup2\n      0x00\n      swap1\n      sstore\n      pop\n      0x01\n      add\n      jump(tag_89)\n    tag_90:\n      pop\n      swap1\n      jump\t// out\n        /* \"#utility.yul\":7:146   */\n    tag_92:\n        /* \"#utility.yul\":53:58   */\n      0x00\n        /* \"#utility.yul\":91:97   */\n      dup2\n        /* \"#utility.yul\":78:98   */\n      calldataload\n        /* \"#utility.yul\":69:98   */\n      swap1\n      pop\n        /* \"#utility.yul\":107:140   */\n      tag_94\n        /* \"#utility.yul\":134:139   */\n      dup2\n        /* \"#utility.yul\":107:140   */\n      tag_95\n      jump\t// in\n    tag_94:\n        /* \"#utility.yul\":7:146   */\n      swap3\n      swap2\n      pop\n      pop\n      jump\t// out\n        /* \"#utility.yul\":166:719   */\n    tag_96:\n        /* \"#utility.yul\":224:232   */\n      0x00\n        /* \"#utility.yul\":234:240   */\n      dup1\n        /* \"#utility.yul\":284:287   */\n      dup4\n        /* \"#utility.yul\":277:281   */\n      0x1f\n        /* \"#utility.yul\":269:275   */\n      dup5\n        /* \"#utility.yul\":265:282   */\n      add\n        /* \"#utility.yul\":261:288   */\n      slt\n        /* \"#utility.yul\":251:373   */\n      tag_98\n      jumpi\n        /* \"#utility.yul\":292:371   */\n      tag_99\n      tag_100\n      jump\t// in\n    tag_99:\n        /* \"#utility.yul\":251:373   */\n    tag_98:\n        /* \"#utility.yul\":405:411   */\n      dup3\n        /* \"#utility.yul\":392:412   */\n      calldataload\n        /* \"#utility.yul\":382:412   */\n      swap1\n      pop\n        /* \"#utility.yul\":435:453   */\n      0xffffffffffffffff\n        /* \"#utility.yul\":427:433   */\n      dup2\n        /* \"#utility.yul\":424:454   */\n      gt\n        /* \"#utility.yul\":421:538   */\n      iszero\n      tag_101\n      jumpi\n        /* \"#utility.yul\":457:536   */\n      tag_102\n      tag_103\n      jump\t// in\n    tag_102:\n        /* \"#utility.yul\":421:538   */\n    tag_101:\n        /* \"#utility.yul\":571:575   */\n      0x20\n        /* \"#utility.yul\":563:569   */\n      dup4\n        /* \"#utility.yul\":559:576   */\n      add\n        /* \"#utility.yul\":547:576   */\n      swap2\n      pop\n        /* \"#utility.yul\":625:628   */\n      dup4\n        /* \"#utility.yul\":617:621   */\n      0x01\n        /* \"#utility.yul\":609:615   */\n      dup3\n        /* \"#utility.yul\":605:622   */\n      mul\n        /* \"#utility.yul\":595:603   */\n      dup4\n        /* \"#utility.yul\":591:623   */\n      add\n        /* \"#utility.yul\":588:629   */\n      gt\n        /* \"#utility.yul\":585:713   */\n      iszero\n      tag_104\n      jumpi\n        /* \"#utility.yul\":632:711   */\n      tag_105\n      tag_106\n      jump\t// in\n    tag_105:\n        /* \"#utility.yul\":585:713   */\n    tag_104:\n        /* \"#utility.yul\":166:719   */\n      swap3\n      pop\n      swap3\n      swap1\n      pop\n      jump\t// out\n        /* \"#utility.yul\":725:864   */\n    tag_107:\n        /* \"#utility.yul\":771:776   */\n      0x00\n        /* \"#utility.yul\":809:815   */\n      dup2\n        /* \"#utility.yul\":796:816   */\n      calldataload\n        /* \"#utility.yul\":787:816   */\n      swap1\n      pop\n        /* \"#utility.yul\":825:858   */\n      tag_109\n        /* \"#utility.yul\":852:857   */\n      dup2\n        /* \"#utility.yul\":825:858   */\n      tag_110\n      jump\t// in\n    tag_109:\n        /* \"#utility.yul\":725:864   */\n      swap3\n      swap2\n      pop\n      pop\n      jump\t// out\n        /* \"#utility.yul\":870:1199   */\n    tag_14:\n        /* \"#utility.yul\":929:935   */\n      0x00\n        /* \"#utility.yul\":978:980   */\n      0x20\n        /* \"#utility.yul\":966:975   */\n      dup3\n        /* \"#utility.yul\":957:964   */\n      dup5\n        /* \"#utility.yul\":953:976   */\n      sub\n        /* \"#utility.yul\":949:981   */\n      slt\n        /* \"#utility.yul\":946:1065   */\n      iszero\n      tag_112\n      jumpi\n        /* \"#utility.yul\":984:1063   */\n      tag_113\n      tag_114\n      jump\t// in\n    tag_113:\n        /* \"#utility.yul\":946:1065   */\n    tag_112:\n        /* \"#utility.yul\":1104:1105   */\n      0x00\n        /* \"#utility.yul\":1129:1182   */\n      tag_115\n        /* \"#utility.yul\":1174:1181   */\n      dup5\n        /* \"#utility.yul\":1165:1171   */\n      dup3\n        /* \"#utility.yul\":1154:1163   */\n      dup6\n        /* \"#utility.yul\":1150:1172   */\n      add\n        /* \"#utility.yul\":1129:1182   */\n      tag_92\n      jump\t// in\n    tag_115:\n        /* \"#utility.yul\":1119:1182   */\n      swap2\n      pop\n        /* \"#utility.yul\":1075:1192   */\n      pop\n        /* \"#utility.yul\":870:1199   */\n      swap3\n      swap2\n      pop\n      pop\n      jump\t// out\n        /* \"#utility.yul\":1205:1879   */\n    tag_20:\n        /* \"#utility.yul\":1285:1291   */\n      0x00\n        /* \"#utility.yul\":1293:1299   */\n      dup1\n        /* \"#utility.yul\":1301:1307   */\n      0x00\n        /* \"#utility.yul\":1350:1352   */\n      0x40\n        /* \"#utility.yul\":1338:1347   */\n      dup5\n        /* \"#utility.yul\":1329:1336   */\n      dup7\n        /* \"#utility.yul\":1325:1348   */\n      sub\n        /* \"#utility.yul\":1321:1353   */\n      slt\n        /* \"#utility.yul\":1318:1437   */\n      iszero\n      tag_117\n      jumpi\n        /* \"#utility.yul\":1356:1435   */\n      tag_118\n      tag_114\n      jump\t// in\n    tag_118:\n        /* \"#utility.yul\":1318:1437   */\n    tag_117:\n        /* \"#utility.yul\":1504:1505   */\n      0x00\n        /* \"#utility.yul\":1493:1502   */\n      dup5\n        /* \"#utility.yul\":1489:1506   */\n      add\n        /* \"#utility.yul\":1476:1507   */\n      calldataload\n        /* \"#utility.yul\":1534:1552   */\n      0xffffffffffffffff\n        /* \"#utility.yul\":1526:1532   */\n      dup2\n        /* \"#utility.yul\":1523:1553   */\n      gt\n        /* \"#utility.yul\":1520:1637   */\n      iszero\n      tag_119\n      jumpi\n        /* \"#utility.yul\":1556:1635   */\n      tag_120\n      tag_121\n      jump\t// in\n    tag_120:\n        /* \"#utility.yul\":1520:1637   */\n    tag_119:\n        /* \"#utility.yul\":1669:1734   */\n      tag_122\n        /* \"#utility.yul\":1726:1733   */\n      dup7\n        /* \"#utility.yul\":1717:1723   */\n      dup3\n        /* \"#utility.yul\":1706:1715   */\n      dup8\n        /* \"#utility.yul\":1702:1724   */\n      add\n        /* \"#utility.yul\":1669:1734   */\n      tag_96\n      jump\t// in\n    tag_122:\n        /* \"#utility.yul\":1651:1734   */\n      swap4\n      pop\n      swap4\n      pop\n        /* \"#utility.yul\":1447:1744   */\n      pop\n        /* \"#utility.yul\":1783:1785   */\n      0x20\n        /* \"#utility.yul\":1809:1862   */\n      tag_123\n        /* \"#utility.yul\":1854:1861   */\n      dup7\n        /* \"#utility.yul\":1845:1851   */\n      dup3\n        /* \"#utility.yul\":1834:1843   */\n      dup8\n        /* \"#utility.yul\":1830:1852   */\n      add\n        /* \"#utility.yul\":1809:1862   */\n      tag_107\n      jump\t// in\n    tag_123:\n        /* \"#utility.yul\":1799:1862   */\n      swap2\n      pop\n        /* \"#utility.yul\":1754:1872   */\n      pop\n        /* \"#utility.yul\":1205:1879   */\n      swap3\n      pop\n      swap3\n      pop\n      swap3\n      jump\t// out\n        /* \"#utility.yul\":1885:2214   */\n    tag_24:\n        /* \"#utility.yul\":1944:1950   */\n      0x00\n        /* \"#utility.yul\":1993:1995   */\n      0x20\n        /* \"#utility.yul\":1981:1990   */\n      dup3\n        /* \"#utility.yul\":1972:1979   */\n      dup5\n        /* \"#utility.yul\":1968:1991   */\n      sub\n        /* \"#utility.yul\":1964:1996   */\n      slt\n        /* \"#utility.yul\":1961:2080   */\n      iszero\n      tag_125\n      jumpi\n        /* \"#utility.yul\":1999:2078   */\n      tag_126\n      tag_114\n      jump\t// in\n    tag_126:\n        /* \"#utility.yul\":1961:2080   */\n    tag_125:\n        /* \"#utility.yul\":2119:2120   */\n      0x00\n        /* \"#utility.yul\":2144:2197   */\n      tag_127\n        /* \"#utility.yul\":2189:2196   */\n      dup5\n        /* \"#utility.yul\":2180:2186   */\n      dup3\n        /* \"#utility.yul\":2169:2178   */\n      dup6\n        /* \"#utility.yul\":2165:2187   */\n      add\n        /* \"#utility.yul\":2144:2197   */\n      tag_107\n      jump\t// in\n    tag_127:\n        /* \"#utility.yul\":2134:2197   */\n      swap2\n      pop\n        /* \"#utility.yul\":2090:2207   */\n      pop\n        /* \"#utility.yul\":1885:2214   */\n      swap3\n      swap2\n      pop\n      pop\n      jump\t// out\n        /* \"#utility.yul\":2220:2338   */\n    tag_128:\n        /* \"#utility.yul\":2307:2331   */\n      tag_130\n        /* \"#utility.yul\":2325:2330   */\n      dup2\n        /* \"#utility.yul\":2307:2331   */\n      tag_131\n      jump\t// in\n    tag_130:\n        /* \"#utility.yul\":2302:2305   */\n      dup3\n        /* \"#utility.yul\":2295:2332   */\n      mstore\n        /* \"#utility.yul\":2220:2338   */\n      pop\n      pop\n      jump\t// out\n        /* \"#utility.yul\":2344:2688   */\n    tag_132:\n        /* \"#utility.yul\":2422:2425   */\n      0x00\n        /* \"#utility.yul\":2450:2489   */\n      tag_134\n        /* \"#utility.yul\":2483:2488   */\n      dup3\n        /* \"#utility.yul\":2450:2489   */\n      tag_135\n      jump\t// in\n    tag_134:\n        /* \"#utility.yul\":2505:2566   */\n      tag_136\n        /* \"#utility.yul\":2559:2565   */\n      dup2\n        /* \"#utility.yul\":2554:2557   */\n      dup6\n        /* \"#utility.yul\":2505:2566   */\n      tag_137\n      jump\t// in\n    tag_136:\n        /* \"#utility.yul\":2498:2566   */\n      swap4\n      pop\n        /* \"#utility.yul\":2575:2627   */\n      tag_138\n        /* \"#utility.yul\":2620:2626   */\n      dup2\n        /* \"#utility.yul\":2615:2618   */\n      dup6\n        /* \"#utility.yul\":2608:2612   */\n      0x20\n        /* \"#utility.yul\":2601:2606   */\n      dup7\n        /* \"#utility.yul\":2597:2613   */\n      add\n        /* \"#utility.yul\":2575:2627   */\n      tag_139\n      jump\t// in\n    tag_138:\n        /* \"#utility.yul\":2652:2681   */\n      tag_140\n        /* \"#utility.yul\":2674:2680   */\n      dup2\n        /* \"#utility.yul\":2652:2681   */\n      tag_141\n      jump\t// in\n    tag_140:\n        /* \"#utility.yul\":2647:2650   */\n      dup5\n        /* \"#utility.yul\":2643:2682   */\n      add\n        /* \"#utility.yul\":2636:2682   */\n      swap2\n      pop\n        /* \"#utility.yul\":2426:2688   */\n      pop\n        /* \"#utility.yul\":2344:2688   */\n      swap3\n      swap2\n      pop\n      pop\n      jump\t// out\n        /* \"#utility.yul\":2694:3058   */\n    tag_142:\n        /* \"#utility.yul\":2782:2785   */\n      0x00\n        /* \"#utility.yul\":2810:2849   */\n      tag_144\n        /* \"#utility.yul\":2843:2848   */\n      dup3\n        /* \"#utility.yul\":2810:2849   */\n      tag_135\n      jump\t// in\n    tag_144:\n        /* \"#utility.yul\":2865:2936   */\n      tag_145\n        /* \"#utility.yul\":2929:2935   */\n      dup2\n        /* \"#utility.yul\":2924:2927   */\n      dup6\n        /* \"#utility.yul\":2865:2936   */\n      tag_146\n      jump\t// in\n    tag_145:\n        /* \"#utility.yul\":2858:2936   */\n      swap4\n      pop\n        /* \"#utility.yul\":2945:2997   */\n      tag_147\n        /* \"#utility.yul\":2990:2996   */\n      dup2\n        /* \"#utility.yul\":2985:2988   */\n      dup6\n        /* \"#utility.yul\":2978:2982   */\n      0x20\n        /* \"#utility.yul\":2971:2976   */\n      dup7\n        /* \"#utility.yul\":2967:2983   */\n      add\n        /* \"#utility.yul\":2945:2997   */\n      tag_139\n      jump\t// in\n    tag_147:\n        /* \"#utility.yul\":3022:3051   */\n      tag_148\n        /* \"#utility.yul\":3044:3050   */\n      dup2\n        /* \"#utility.yul\":3022:3051   */\n      tag_141\n      jump\t// in\n    tag_148:\n        /* \"#utility.yul\":3017:3020   */\n      dup5\n        /* \"#utility.yul\":3013:3052   */\n      add\n        /* \"#utility.yul\":3006:3052   */\n      swap2\n      pop\n        /* \"#utility.yul\":2786:3058   */\n      pop\n        /* \"#utility.yul\":2694:3058   */\n      swap3\n      swap2\n      pop\n      pop\n      jump\t// out\n        /* \"#utility.yul\":3064:3430   */\n    tag_149:\n        /* \"#utility.yul\":3206:3209   */\n      0x00\n        /* \"#utility.yul\":3227:3294   */\n      tag_151\n        /* \"#utility.yul\":3291:3293   */\n      0x13\n        /* \"#utility.yul\":3286:3289   */\n      dup4\n        /* \"#utility.yul\":3227:3294   */\n      tag_146\n      jump\t// in\n    tag_151:\n        /* \"#utility.yul\":3220:3294   */\n      swap2\n      pop\n        /* \"#utility.yul\":3303:3396   */\n      tag_152\n        /* \"#utility.yul\":3392:3395   */\n      dup3\n        /* \"#utility.yul\":3303:3396   */\n      tag_153\n      jump\t// in\n    tag_152:\n        /* \"#utility.yul\":3421:3423   */\n      0x20\n        /* \"#utility.yul\":3416:3419   */\n      dup3\n        /* \"#utility.yul\":3412:3424   */\n      add\n        /* \"#utility.yul\":3405:3424   */\n      swap1\n      pop\n        /* \"#utility.yul\":3064:3430   */\n      swap2\n      swap1\n      pop\n      jump\t// out\n        /* \"#utility.yul\":3436:3801   */\n    tag_154:\n        /* \"#utility.yul\":3578:3581   */\n      0x00\n        /* \"#utility.yul\":3599:3665   */\n      tag_156\n        /* \"#utility.yul\":3663:3664   */\n      0x09\n        /* \"#utility.yul\":3658:3661   */\n      dup4\n        /* \"#utility.yul\":3599:3665   */\n      tag_146\n      jump\t// in\n    tag_156:\n        /* \"#utility.yul\":3592:3665   */\n      swap2\n      pop\n        /* \"#utility.yul\":3674:3767   */\n      tag_157\n        /* \"#utility.yul\":3763:3766   */\n      dup3\n        /* \"#utility.yul\":3674:3767   */\n      tag_158\n      jump\t// in\n    tag_157:\n        /* \"#utility.yul\":3792:3794   */\n      0x20\n        /* \"#utility.yul\":3787:3790   */\n      dup3\n        /* \"#utility.yul\":3783:3795   */\n      add\n        /* \"#utility.yul\":3776:3795   */\n      swap1\n      pop\n        /* \"#utility.yul\":3436:3801   */\n      swap2\n      swap1\n      pop\n      jump\t// out\n        /* \"#utility.yul\":3861:4633   */\n    tag_159:\n        /* \"#utility.yul\":3970:3973   */\n      0x00\n        /* \"#utility.yul\":4006:4010   */\n      0x60\n        /* \"#utility.yul\":4001:4004   */\n      dup4\n        /* \"#utility.yul\":3997:4011   */\n      add\n        /* \"#utility.yul\":4093:4097   */\n      0x00\n        /* \"#utility.yul\":4086:4091   */\n      dup4\n        /* \"#utility.yul\":4082:4098   */\n      add\n        /* \"#utility.yul\":4076:4099   */\n      mload\n        /* \"#utility.yul\":4146:4149   */\n      dup5\n        /* \"#utility.yul\":4140:4144   */\n      dup3\n        /* \"#utility.yul\":4136:4150   */\n      sub\n        /* \"#utility.yul\":4129:4133   */\n      0x00\n        /* \"#utility.yul\":4124:4127   */\n      dup7\n        /* \"#utility.yul\":4120:4134   */\n      add\n        /* \"#utility.yul\":4113:4151   */\n      mstore\n        /* \"#utility.yul\":4172:4245   */\n      tag_161\n        /* \"#utility.yul\":4240:4244   */\n      dup3\n        /* \"#utility.yul\":4226:4238   */\n      dup3\n        /* \"#utility.yul\":4172:4245   */\n      tag_132\n      jump\t// in\n    tag_161:\n        /* \"#utility.yul\":4164:4245   */\n      swap2\n      pop\n        /* \"#utility.yul\":4021:4256   */\n      pop\n        /* \"#utility.yul\":4337:4341   */\n      0x20\n        /* \"#utility.yul\":4330:4335   */\n      dup4\n        /* \"#utility.yul\":4326:4342   */\n      add\n        /* \"#utility.yul\":4320:4343   */\n      mload\n        /* \"#utility.yul\":4356:4419   */\n      tag_162\n        /* \"#utility.yul\":4413:4417   */\n      0x20\n        /* \"#utility.yul\":4408:4411   */\n      dup7\n        /* \"#utility.yul\":4404:4418   */\n      add\n        /* \"#utility.yul\":4390:4402   */\n      dup3\n        /* \"#utility.yul\":4356:4419   */\n      tag_163\n      jump\t// in\n    tag_162:\n        /* \"#utility.yul\":4266:4429   */\n      pop\n        /* \"#utility.yul\":4514:4518   */\n      0x40\n        /* \"#utility.yul\":4507:4512   */\n      dup4\n        /* \"#utility.yul\":4503:4519   */\n      add\n        /* \"#utility.yul\":4497:4520   */\n      mload\n        /* \"#utility.yul\":4533:4596   */\n      tag_164\n        /* \"#utility.yul\":4590:4594   */\n      0x40\n        /* \"#utility.yul\":4585:4588   */\n      dup7\n        /* \"#utility.yul\":4581:4595   */\n      add\n        /* \"#utility.yul\":4567:4579   */\n      dup3\n        /* \"#utility.yul\":4533:4596   */\n      tag_163\n      jump\t// in\n    tag_164:\n        /* \"#utility.yul\":4439:4606   */\n      pop\n        /* \"#utility.yul\":4623:4627   */\n      dup1\n        /* \"#utility.yul\":4616:4627   */\n      swap2\n      pop\n        /* \"#utility.yul\":3975:4633   */\n      pop\n        /* \"#utility.yul\":3861:4633   */\n      swap3\n      swap2\n      pop\n      pop\n      jump\t// out\n        /* \"#utility.yul\":4639:4747   */\n    tag_163:\n        /* \"#utility.yul\":4716:4740   */\n      tag_166\n        /* \"#utility.yul\":4734:4739   */\n      dup2\n        /* \"#utility.yul\":4716:4740   */\n      tag_167\n      jump\t// in\n    tag_166:\n        /* \"#utility.yul\":4711:4714   */\n      dup3\n        /* \"#utility.yul\":4704:4741   */\n      mstore\n        /* \"#utility.yul\":4639:4747   */\n      pop\n      pop\n      jump\t// out\n        /* \"#utility.yul\":4753:4871   */\n    tag_168:\n        /* \"#utility.yul\":4840:4864   */\n      tag_170\n        /* \"#utility.yul\":4858:4863   */\n      dup2\n        /* \"#utility.yul\":4840:4864   */\n      tag_167\n      jump\t// in\n    tag_170:\n        /* \"#utility.yul\":4835:4838   */\n      dup3\n        /* \"#utility.yul\":4828:4865   */\n      mstore\n        /* \"#utility.yul\":4753:4871   */\n      pop\n      pop\n      jump\t// out\n        /* \"#utility.yul\":4877:5099   */\n    tag_35:\n        /* \"#utility.yul\":4970:4974   */\n      0x00\n        /* \"#utility.yul\":5008:5010   */\n      0x20\n        /* \"#utility.yul\":4997:5006   */\n      dup3\n        /* \"#utility.yul\":4993:5011   */\n      add\n        /* \"#utility.yul\":4985:5011   */\n      swap1\n      pop\n        /* \"#utility.yul\":5021:5092   */\n      tag_172\n        /* \"#utility.yul\":5089:5090   */\n      0x00\n        /* \"#utility.yul\":5078:5087   */\n      dup4\n        /* \"#utility.yul\":5074:5091   */\n      add\n        /* \"#utility.yul\":5065:5071   */\n      dup5\n        /* \"#utility.yul\":5021:5092   */\n      tag_128\n      jump\t// in\n    tag_172:\n        /* \"#utility.yul\":4877:5099   */\n      swap3\n      swap2\n      pop\n      pop\n      jump\t// out\n        /* \"#utility.yul\":5105:5638   */\n    tag_17:\n        /* \"#utility.yul\":5274:5278   */\n      0x00\n        /* \"#utility.yul\":5312:5314   */\n      0x60\n        /* \"#utility.yul\":5301:5310   */\n      dup3\n        /* \"#utility.yul\":5297:5315   */\n      add\n        /* \"#utility.yul\":5289:5315   */\n      swap1\n      pop\n        /* \"#utility.yul\":5361:5370   */\n      dup2\n        /* \"#utility.yul\":5355:5359   */\n      dup2\n        /* \"#utility.yul\":5351:5371   */\n      sub\n        /* \"#utility.yul\":5347:5348   */\n      0x00\n        /* \"#utility.yul\":5336:5345   */\n      dup4\n        /* \"#utility.yul\":5332:5349   */\n      add\n        /* \"#utility.yul\":5325:5372   */\n      mstore\n        /* \"#utility.yul\":5389:5467   */\n      tag_174\n        /* \"#utility.yul\":5462:5466   */\n      dup2\n        /* \"#utility.yul\":5453:5459   */\n      dup7\n        /* \"#utility.yul\":5389:5467   */\n      tag_142\n      jump\t// in\n    tag_174:\n        /* \"#utility.yul\":5381:5467   */\n      swap1\n      pop\n        /* \"#utility.yul\":5477:5549   */\n      tag_175\n        /* \"#utility.yul\":5545:5547   */\n      0x20\n        /* \"#utility.yul\":5534:5543   */\n      dup4\n        /* \"#utility.yul\":5530:5548   */\n      add\n        /* \"#utility.yul\":5521:5527   */\n      dup6\n        /* \"#utility.yul\":5477:5549   */\n      tag_168\n      jump\t// in\n    tag_175:\n        /* \"#utility.yul\":5559:5631   */\n      tag_176\n        /* \"#utility.yul\":5627:5629   */\n      0x40\n        /* \"#utility.yul\":5616:5625   */\n      dup4\n        /* \"#utility.yul\":5612:5630   */\n      add\n        /* \"#utility.yul\":5603:5609   */\n      dup5\n        /* \"#utility.yul\":5559:5631   */\n      tag_168\n      jump\t// in\n    tag_176:\n        /* \"#utility.yul\":5105:5638   */\n      swap5\n      swap4\n      pop\n      pop\n      pop\n      pop\n      jump\t// out\n        /* \"#utility.yul\":5644:6063   */\n    tag_60:\n        /* \"#utility.yul\":5810:5814   */\n      0x00\n        /* \"#utility.yul\":5848:5850   */\n      0x20\n        /* \"#utility.yul\":5837:5846   */\n      dup3\n        /* \"#utility.yul\":5833:5851   */\n      add\n        /* \"#utility.yul\":5825:5851   */\n      swap1\n      pop\n        /* \"#utility.yul\":5897:5906   */\n      dup2\n        /* \"#utility.yul\":5891:5895   */\n      dup2\n        /* \"#utility.yul\":5887:5907   */\n      sub\n        /* \"#utility.yul\":5883:5884   */\n      0x00\n        /* \"#utility.yul\":5872:5881   */\n      dup4\n        /* \"#utility.yul\":5868:5885   */\n      add\n        /* \"#utility.yul\":5861:5908   */\n      mstore\n        /* \"#utility.yul\":5925:6056   */\n      tag_178\n        /* \"#utility.yul\":6051:6055   */\n      dup2\n        /* \"#utility.yul\":5925:6056   */\n      tag_149\n      jump\t// in\n    tag_178:\n        /* \"#utility.yul\":5917:6056   */\n      swap1\n      pop\n        /* \"#utility.yul\":5644:6063   */\n      swap2\n      swap1\n      pop\n      jump\t// out\n        /* \"#utility.yul\":6069:6488   */\n    tag_69:\n        /* \"#utility.yul\":6235:6239   */\n      0x00\n        /* \"#utility.yul\":6273:6275   */\n      0x20\n        /* \"#utility.yul\":6262:6271   */\n      dup3\n        /* \"#utility.yul\":6258:6276   */\n      add\n        /* \"#utility.yul\":6250:6276   */\n      swap1\n      pop\n        /* \"#utility.yul\":6322:6331   */\n      dup2\n        /* \"#utility.yul\":6316:6320   */\n      dup2\n        /* \"#utility.yul\":6312:6332   */\n      sub\n        /* \"#utility.yul\":6308:6309   */\n      0x00\n        /* \"#utility.yul\":6297:6306   */\n      dup4\n        /* \"#utility.yul\":6293:6310   */\n      add\n        /* \"#utility.yul\":6286:6333   */\n      mstore\n        /* \"#utility.yul\":6350:6481   */\n      tag_180\n        /* \"#utility.yul\":6476:6480   */\n      dup2\n        /* \"#utility.yul\":6350:6481   */\n      tag_154\n      jump\t// in\n    tag_180:\n        /* \"#utility.yul\":6342:6481   */\n      swap1\n      pop\n        /* \"#utility.yul\":6069:6488   */\n      swap2\n      swap1\n      pop\n      jump\t// out\n        /* \"#utility.yul\":6494:6847   */\n    tag_31:\n        /* \"#utility.yul\":6627:6631   */\n      0x00\n        /* \"#utility.yul\":6665:6667   */\n      0x20\n        /* \"#utility.yul\":6654:6663   */\n      dup3\n        /* \"#utility.yul\":6650:6668   */\n      add\n        /* \"#utility.yul\":6642:6668   */\n      swap1\n      pop\n        /* \"#utility.yul\":6714:6723   */\n      dup2\n        /* \"#utility.yul\":6708:6712   */\n      dup2\n        /* \"#utility.yul\":6704:6724   */\n      sub\n        /* \"#utility.yul\":6700:6701   */\n      0x00\n        /* \"#utility.yul\":6689:6698   */\n      dup4\n        /* \"#utility.yul\":6685:6702   */\n      add\n        /* \"#utility.yul\":6678:6725   */\n      mstore\n        /* \"#utility.yul\":6742:6840   */\n      tag_182\n        /* \"#utility.yul\":6835:6839   */\n      dup2\n        /* \"#utility.yul\":6826:6832   */\n      dup5\n        /* \"#utility.yul\":6742:6840   */\n      tag_159\n      jump\t// in\n    tag_182:\n        /* \"#utility.yul\":6734:6840   */\n      swap1\n      pop\n        /* \"#utility.yul\":6494:6847   */\n      swap3\n      swap2\n      pop\n      pop\n      jump\t// out\n        /* \"#utility.yul\":6853:7075   */\n    tag_42:\n        /* \"#utility.yul\":6946:6950   */\n      0x00\n        /* \"#utility.yul\":6984:6986   */\n      0x20\n        /* \"#utility.yul\":6973:6982   */\n      dup3\n        /* \"#utility.yul\":6969:6987   */\n      add\n        /* \"#utility.yul\":6961:6987   */\n      swap1\n      pop\n        /* \"#utility.yul\":6997:7068   */\n      tag_184\n        /* \"#utility.yul\":7065:7066   */\n      0x00\n        /* \"#utility.yul\":7054:7063   */\n      dup4\n        /* \"#utility.yul\":7050:7067   */\n      add\n        /* \"#utility.yul\":7041:7047   */\n      dup5\n        /* \"#utility.yul\":6997:7068   */\n      tag_168\n      jump\t// in\n    tag_184:\n        /* \"#utility.yul\":6853:7075   */\n      swap3\n      swap2\n      pop\n      pop\n      jump\t// out\n        /* \"#utility.yul\":7162:7261   */\n    tag_135:\n        /* \"#utility.yul\":7214:7220   */\n      0x00\n        /* \"#utility.yul\":7248:7253   */\n      dup2\n        /* \"#utility.yul\":7242:7254   */\n      mload\n        /* \"#utility.yul\":7232:7254   */\n      swap1\n      pop\n        /* \"#utility.yul\":7162:7261   */\n      swap2\n      swap1\n      pop\n      jump\t// out\n        /* \"#utility.yul\":7267:7426   */\n    tag_137:\n        /* \"#utility.yul\":7341:7352   */\n      0x00\n        /* \"#utility.yul\":7375:7381   */\n      dup3\n        /* \"#utility.yul\":7370:7373   */\n      dup3\n        /* \"#utility.yul\":7363:7382   */\n      mstore\n        /* \"#utility.yul\":7415:7419   */\n      0x20\n        /* \"#utility.yul\":7410:7413   */\n      dup3\n        /* \"#utility.yul\":7406:7420   */\n      add\n        /* \"#utility.yul\":7391:7420   */\n      swap1\n      pop\n        /* \"#utility.yul\":7267:7426   */\n      swap3\n      swap2\n      pop\n      pop\n      jump\t// out\n        /* \"#utility.yul\":7432:7601   */\n    tag_146:\n        /* \"#utility.yul\":7516:7527   */\n      0x00\n        /* \"#utility.yul\":7550:7556   */\n      dup3\n        /* \"#utility.yul\":7545:7548   */\n      dup3\n        /* \"#utility.yul\":7538:7557   */\n      mstore\n        /* \"#utility.yul\":7590:7594   */\n      0x20\n        /* \"#utility.yul\":7585:7588   */\n      dup3\n        /* \"#utility.yul\":7581:7595   */\n      add\n        /* \"#utility.yul\":7566:7595   */\n      swap1\n      pop\n        /* \"#utility.yul\":7432:7601   */\n      swap3\n      swap2\n      pop\n      pop\n      jump\t// out\n        /* \"#utility.yul\":7607:7912   */\n    tag_65:\n        /* \"#utility.yul\":7647:7650   */\n      0x00\n        /* \"#utility.yul\":7666:7686   */\n      tag_191\n        /* \"#utility.yul\":7684:7685   */\n      dup3\n        /* \"#utility.yul\":7666:7686   */\n      tag_167\n      jump\t// in\n    tag_191:\n        /* \"#utility.yul\":7661:7686   */\n      swap2\n      pop\n        /* \"#utility.yul\":7700:7720   */\n      tag_192\n        /* \"#utility.yul\":7718:7719   */\n      dup4\n        /* \"#utility.yul\":7700:7720   */\n      tag_167\n      jump\t// in\n    tag_192:\n        /* \"#utility.yul\":7695:7720   */\n      swap3\n      pop\n        /* \"#utility.yul\":7854:7855   */\n      dup3\n        /* \"#utility.yul\":7786:7852   */\n      0xffffffffffffffffffffffffffffffffffffffffffffffffffffffffffffffff\n        /* \"#utility.yul\":7782:7856   */\n      sub\n        /* \"#utility.yul\":7779:7780   */\n      dup3\n        /* \"#utility.yul\":7776:7857   */\n      gt\n        /* \"#utility.yul\":7773:7880   */\n      iszero\n      tag_193\n      jumpi\n        /* \"#utility.yul\":7860:7878   */\n      tag_194\n      tag_195\n      jump\t// in\n    tag_194:\n        /* \"#utility.yul\":7773:7880   */\n    tag_193:\n        /* \"#utility.yul\":7904:7905   */\n      dup3\n        /* \"#utility.yul\":7901:7902   */\n      dup3\n        /* \"#utility.yul\":7897:7906   */\n      add\n        /* \"#utility.yul\":7890:7906   */\n      swap1\n      pop\n        /* \"#utility.yul\":7607:7912   */\n      swap3\n      swap2\n      pop\n      pop\n      jump\t// out\n        /* \"#utility.yul\":7918:8014   */\n    tag_131:\n        /* \"#utility.yul\":7955:7962   */\n      0x00\n        /* \"#utility.yul\":7984:8008   */\n      tag_197\n        /* \"#utility.yul\":8002:8007   */\n      dup3\n        /* \"#utility.yul\":7984:8008   */\n      tag_198\n      jump\t// in\n    tag_197:\n        /* \"#utility.yul\":7973:8008   */\n      swap1\n      pop\n        /* \"#utility.yul\":7918:8014   */\n      swap2\n      swap1\n      pop\n      jump\t// out\n        /* \"#utility.yul\":8020:8146   */\n    tag_198:\n        /* \"#utility.yul\":8057:8064   */\n      0x00\n        /* \"#utility.yul\":8097:8139   */\n      0xffffffffffffffffffffffffffffffffffffffff\n        /* \"#utility.yul\":8090:8095   */\n      dup3\n        /* \"#utility.yul\":8086:8140   */\n      and\n        /* \"#utility.yul\":8075:8140   */\n      swap1\n      pop\n        /* \"#utility.yul\":8020:8146   */\n      swap2\n      swap1\n      pop\n      jump\t// out\n        /* \"#utility.yul\":8152:8229   */\n    tag_167:\n        /* \"#utility.yul\":8189:8196   */\n      0x00\n        /* \"#utility.yul\":8218:8223   */\n      dup2\n        /* \"#utility.yul\":8207:8223   */\n      swap1\n      pop\n        /* \"#utility.yul\":8152:8229   */\n      swap2\n      swap1\n      pop\n      jump\t// out\n        /* \"#utility.yul\":8235:8542   */\n    tag_139:\n        /* \"#utility.yul\":8303:8304   */\n      0x00\n        /* \"#utility.yul\":8313:8426   */\n    tag_202:\n        /* \"#utility.yul\":8327:8333   */\n      dup4\n        /* \"#utility.yul\":8324:8325   */\n      dup2\n        /* \"#utility.yul\":8321:8334   */\n      lt\n        /* \"#utility.yul\":8313:8426   */\n      iszero\n      tag_204\n      jumpi\n        /* \"#utility.yul\":8412:8413   */\n      dup1\n        /* \"#utility.yul\":8407:8410   */\n      dup3\n        /* \"#utility.yul\":8403:8414   */\n      add\n        /* \"#utility.yul\":8397:8415   */\n      mload\n        /* \"#utility.yul\":8393:8394   */\n      dup2\n        /* \"#utility.yul\":8388:8391   */\n      dup5\n        /* \"#utility.yul\":8384:8395   */\n      add\n        /* \"#utility.yul\":8377:8416   */\n      mstore\n        /* \"#utility.yul\":8349:8351   */\n      0x20\n        /* \"#utility.yul\":8346:8347   */\n      dup2\n        /* \"#utility.yul\":8342:8352   */\n      add\n        /* \"#utility.yul\":8337:8352   */\n      swap1\n      pop\n        /* \"#utility.yul\":8313:8426   */\n      jump(tag_202)\n    tag_204:\n        /* \"#utility.yul\":8444:8450   */\n      dup4\n        /* \"#utility.yul\":8441:8442   */\n      dup2\n        /* \"#utility.yul\":8438:8451   */\n      gt\n        /* \"#utility.yul\":8435:8536   */\n      iszero\n      tag_205\n      jumpi\n        /* \"#utility.yul\":8524:8525   */\n      0x00\n        /* \"#utility.yul\":8515:8521   */\n      dup5\n        /* \"#utility.yul\":8510:8513   */\n      dup5\n        /* \"#utility.yul\":8506:8522   */\n      add\n        /* \"#utility.yul\":8499:8526   */\n      mstore\n        /* \"#utility.yul\":8435:8536   */\n    tag_205:\n        /* \"#utility.yul\":8284:8542   */\n      pop\n        /* \"#utility.yul\":8235:8542   */\n      pop\n      pop\n      pop\n      jump\t// out\n        /* \"#utility.yul\":8548:8868   */\n    tag_44:\n        /* \"#utility.yul\":8592:8598   */\n      0x00\n        /* \"#utility.yul\":8629:8630   */\n      0x02\n        /* \"#utility.yul\":8623:8627   */\n      dup3\n        /* \"#utility.yul\":8619:8631   */\n      div\n        /* \"#utility.yul\":8609:8631   */\n      swap1\n      pop\n        /* \"#utility.yul\":8676:8677   */\n      0x01\n        /* \"#utility.yul\":8670:8674   */\n      dup3\n        /* \"#utility.yul\":8666:8678   */\n      and\n        /* \"#utility.yul\":8697:8715   */\n      dup1\n        /* \"#utility.yul\":8687:8768   */\n      tag_207\n      jumpi\n        /* \"#utility.yul\":8753:8757   */\n      0x7f\n        /* \"#utility.yul\":8745:8751   */\n      dup3\n        /* \"#utility.yul\":8741:8758   */\n      and\n        /* \"#utility.yul\":8731:8758   */\n      swap2\n      pop\n        /* \"#utility.yul\":8687:8768   */\n    tag_207:\n        /* \"#utility.yul\":8815:8817   */\n      0x20\n        /* \"#utility.yul\":8807:8813   */\n      dup3\n        /* \"#utility.yul\":8804:8818   */\n      lt\n        /* \"#utility.yul\":8784:8802   */\n      dup2\n        /* \"#utility.yul\":8781:8819   */\n      eq\n        /* \"#utility.yul\":8778:8862   */\n      iszero\n      tag_208\n      jumpi\n        /* \"#utility.yul\":8834:8852   */\n      tag_209\n      tag_210\n      jump\t// in\n    tag_209:\n        /* \"#utility.yul\":8778:8862   */\n    tag_208:\n        /* \"#utility.yul\":8599:8868   */\n      pop\n        /* \"#utility.yul\":8548:8868   */\n      swap2\n      swap1\n      pop\n      jump\t// out\n        /* \"#utility.yul\":8874:9054   */\n    tag_195:\n        /* \"#utility.yul\":8922:8999   */\n      0x4e487b7100000000000000000000000000000000000000000000000000000000\n        /* \"#utility.yul\":8919:8920   */\n      0x00\n        /* \"#utility.yul\":8912:9000   */\n      mstore\n        /* \"#utility.yul\":9019:9023   */\n      0x11\n        /* \"#utility.yul\":9016:9017   */\n      0x04\n        /* \"#utility.yul\":9009:9024   */\n      mstore\n        /* \"#utility.yul\":9043:9047   */\n      0x24\n        /* \"#utility.yul\":9040:9041   */\n      0x00\n        /* \"#utility.yul\":9033:9048   */\n      revert\n        /* \"#utility.yul\":9060:9240   */\n    tag_210:\n        /* \"#utility.yul\":9108:9185   */\n      0x4e487b7100000000000000000000000000000000000000000000000000000000\n        /* \"#utility.yul\":9105:9106   */\n      0x00\n        /* \"#utility.yul\":9098:9186   */\n      mstore\n        /* \"#utility.yul\":9205:9209   */\n      0x22\n        /* \"#utility.yul\":9202:9203   */\n      0x04\n        /* \"#utility.yul\":9195:9210   */\n      mstore\n        /* \"#utility.yul\":9229:9233   */\n      0x24\n        /* \"#utility.yul\":9226:9227   */\n      0x00\n        /* \"#utility.yul\":9219:9234   */\n      revert\n        /* \"#utility.yul\":9246:9363   */\n    tag_103:\n        /* \"#utility.yul\":9355:9356   */\n      0x00\n        /* \"#utility.yul\":9352:9353   */\n      dup1\n        /* \"#utility.yul\":9345:9357   */\n      revert\n        /* \"#utility.yul\":9369:9486   */\n    tag_100:\n        /* \"#utility.yul\":9478:9479   */\n      0x00\n        /* \"#utility.yul\":9475:9476   */\n      dup1\n        /* \"#utility.yul\":9468:9480   */\n      revert\n        /* \"#utility.yul\":9492:9609   */\n    tag_106:\n        /* \"#utility.yul\":9601:9602   */\n      0x00\n        /* \"#utility.yul\":9598:9599   */\n      dup1\n        /* \"#utility.yul\":9591:9603   */\n      revert\n        /* \"#utility.yul\":9615:9732   */\n    tag_121:\n        /* \"#utility.yul\":9724:9725   */\n      0x00\n        /* \"#utility.yul\":9721:9722   */\n      dup1\n        /* \"#utility.yul\":9714:9726   */\n      revert\n        /* \"#utility.yul\":9738:9855   */\n    tag_114:\n        /* \"#utility.yul\":9847:9848   */\n      0x00\n        /* \"#utility.yul\":9844:9845   */\n      dup1\n        /* \"#utility.yul\":9837:9849   */\n      revert\n        /* \"#utility.yul\":9861:9963   */\n    tag_141:\n        /* \"#utility.yul\":9902:9908   */\n      0x00\n        /* \"#utility.yul\":9953:9955   */\n      0x1f\n        /* \"#utility.yul\":9949:9956   */\n      not\n        /* \"#utility.yul\":9944:9946   */\n      0x1f\n        /* \"#utility.yul\":9937:9942   */\n      dup4\n        /* \"#utility.yul\":9933:9947   */\n      add\n        /* \"#utility.yul\":9929:9957   */\n      and\n        /* \"#utility.yul\":9919:9957   */\n      swap1\n      pop\n        /* \"#utility.yul\":9861:9963   */\n      swap2\n      swap1\n      pop\n      jump\t// out\n        /* \"#utility.yul\":9969:10138   */\n    tag_153:\n        /* \"#utility.yul\":10109:10130   */\n      0x596f75206861766520746f206465706f73697400000000000000000000000000\n        /* \"#utility.yul\":10105:10106   */\n      0x00\n        /* \"#utility.yul\":10097:10103   */\n      dup3\n        /* \"#utility.yul\":10093:10107   */\n      add\n        /* \"#utility.yul\":10086:10131   */\n      mstore\n        /* \"#utility.yul\":9969:10138   */\n      pop\n      jump\t// out\n        /* \"#utility.yul\":10144:10303   */\n    tag_158:\n        /* \"#utility.yul\":10284:10295   */\n      0x4e6f74206f776e65720000000000000000000000000000000000000000000000\n        /* \"#utility.yul\":10280:10281   */\n      0x00\n        /* \"#utility.yul\":10272:10278   */\n      dup3\n        /* \"#utility.yul\":10268:10282   */\n      add\n        /* \"#utility.yul\":10261:10296   */\n      mstore\n        /* \"#utility.yul\":10144:10303   */\n      pop\n      jump\t// out\n        /* \"#utility.yul\":10309:10431   */\n    tag_95:\n        /* \"#utility.yul\":10382:10406   */\n      tag_222\n        /* \"#utility.yul\":10400:10405   */\n      dup2\n        /* \"#utility.yul\":10382:10406   */\n      tag_131\n      jump\t// in\n    tag_222:\n        /* \"#utility.yul\":10375:10380   */\n      dup2\n        /* \"#utility.yul\":10372:10407   */\n      eq\n        /* \"#utility.yul\":10362:10425   */\n      tag_223\n      jumpi\n        /* \"#utility.yul\":10421:10422   */\n      0x00\n        /* \"#utility.yul\":10418:10419   */\n      dup1\n        /* \"#utility.yul\":10411:10423   */\n      revert\n        /* \"#utility.yul\":10362:10425   */\n    tag_223:\n        /* \"#utility.yul\":10309:10431   */\n      pop\n      jump\t// out\n        /* \"#utility.yul\":10437:10559   */\n    tag_110:\n        /* \"#utility.yul\":10510:10534   */\n      tag_225\n        /* \"#utility.yul\":10528:10533   */\n      dup2\n        /* \"#utility.yul\":10510:10534   */\n      tag_167\n      jump\t// in\n    tag_225:\n        /* \"#utility.yul\":10503:10508   */\n      dup2\n        /* \"#utility.yul\":10500:10535   */\n      eq\n        /* \"#utility.yul\":10490:10553   */\n      tag_226\n      jumpi\n        /* \"#utility.yul\":10549:10550   */\n      0x00\n        /* \"#utility.yul\":10546:10547   */\n      dup1\n        /* \"#utility.yul\":10539:10551   */\n      revert\n        /* \"#utility.yul\":10490:10553   */\n    tag_226:\n        /* \"#utility.yul\":10437:10559   */\n      pop\n      jump\t// out\n\n    auxdata: 0xa2646970667358221220642751463d87dff2220e1f7902cfcf76f9addfc8b3849ed80b3a4ac11b3bcbe364736f6c63430008070033\n}\n",
				"bytecode": {
					"linkReferences": {},
					"object": "6080604052600a60005534801561001557600080fd5b5033600160006101000a81548173ffffffffffffffffffffffffffffffffffffffff021916908373ffffffffffffffffffffffffffffffffffffffff160217905550610de4806100666000396000f3fe608060405234801561001057600080fd5b50600436106100885760003560e01c80638b326ec21161005b5780638b326ec2146101015780638da5cb5b1461011f578063b6b55f251461013d578063c71daccb1461015957610088565b80630560ab691461008d57806308f6f76e146100bf578063346c96e9146100db5780633ccfd60b146100f7575b600080fd5b6100a760048036038101906100a291906108bd565b610177565b6040516100b693929190610ac7565b60405180910390f35b6100d960048036038101906100d491906108ea565b610229565b005b6100f560048036038101906100f0919061094a565b610301565b005b6100ff6104dc565b005b6101096105bc565b6040516101169190610b45565b60405180910390f35b6101276106b9565b6040516101349190610aac565b60405180910390f35b6101576004803603810190610152919061094a565b6106df565b005b61016161072f565b60405161016e9190610b67565b60405180910390f35b600260205280600052604060002060009150905080600001805461019a90610c74565b80601f01602080910402602001604051908101604052809291908181526020018280546101c690610c74565b80156102135780601f106101e857610100808354040283529160200191610213565b820191906000526020600020905b8154815290600101906020018083116101f657829003601f168201915b5050505050908060010154908060020154905083565b604051806060016040528084848080601f016020809104026020016040519081016040528093929190818152602001838380828437600081840152601f19601f8201169050808301925050505050505081526020018281526020016000815250600260003373ffffffffffffffffffffffffffffffffffffffff1673ffffffffffffffffffffffffffffffffffffffff16815260200190815260200160002060008201518160000190805190602001906102e4929190610779565b506020820151816001015560408201518160020155905050505050565b6000600260003373ffffffffffffffffffffffffffffffffffffffff1673ffffffffffffffffffffffffffffffffffffffff16815260200190815260200160002060405180606001604052908160008201805461035d90610c74565b80601f016020809104026020016040519081016040528092919081815260200182805461038990610c74565b80156103d65780601f106103ab576101008083540402835291602001916103d6565b820191906000526020600020905b8154815290600101906020018083116103b957829003601f168201915b50505050508152602001600182015481526020016002820154815250509050600081604001511161043c576040517f08c379a000000000000000000000000000000000000000000000000000000000815260040161043390610b05565b60405180910390fd5b816000548111610478576040517fe07d327100000000000000000000000000000000000000000000000000000000815260040160405180910390fd5b6000600260003373ffffffffffffffffffffffffffffffffffffffff1673ffffffffffffffffffffffffffffffffffffffff1681526020019081526020016000209050838160020160008282546104cf9190610baf565b9250508190555050505050565b600160009054906101000a900473ffffffffffffffffffffffffffffffffffffffff1673ffffffffffffffffffffffffffffffffffffffff163373ffffffffffffffffffffffffffffffffffffffff161461056c576040517f08c379a000000000000000000000000000000000000000000000000000000000815260040161056390610b25565b60405180910390fd5b6000600260003373ffffffffffffffffffffffffffffffffffffffff1673ffffffffffffffffffffffffffffffffffffffff16815260200190815260200160002090506000816002018190555050565b6105c46107ff565b600260003373ffffffffffffffffffffffffffffffffffffffff1673ffffffffffffffffffffffffffffffffffffffff16815260200190815260200160002060405180606001604052908160008201805461061e90610c74565b80601f016020809104026020016040519081016040528092919081815260200182805461064a90610c74565b80156106975780601f1061066c57610100808354040283529160200191610697565b820191906000526020600020905b81548152906001019060200180831161067a57829003601f168201915b5050505050815260200160018201548152602001600282015481525050905090565b600160009054906101000a900473ffffffffffffffffffffffffffffffffffffffff1681565b6000600260003373ffffffffffffffffffffffffffffffffffffffff1673ffffffffffffffffffffffffffffffffffffffff16815260200190815260200160002090508181600201819055505050565b6000600260003373ffffffffffffffffffffffffffffffffffffffff1673ffffffffffffffffffffffffffffffffffffffff16815260200190815260200160002060020154905090565b82805461078590610c74565b90600052602060002090601f0160209004810192826107a757600085556107ee565b82601f106107c057805160ff19168380011785556107ee565b828001600101855582156107ee579182015b828111156107ed5782518255916020019190600101906107d2565b5b5090506107fb9190610820565b5090565b60405180606001604052806060815260200160008152602001600081525090565b5b80821115610839576000816000905550600101610821565b5090565b60008135905061084c81610d80565b92915050565b60008083601f84011261086857610867610d09565b5b8235905067ffffffffffffffff81111561088557610884610d04565b5b6020830191508360018202830111156108a1576108a0610d0e565b5b9250929050565b6000813590506108b781610d97565b92915050565b6000602082840312156108d3576108d2610d18565b5b60006108e18482850161083d565b91505092915050565b60008060006040848603121561090357610902610d18565b5b600084013567ffffffffffffffff81111561092157610920610d13565b5b61092d86828701610852565b93509350506020610940868287016108a8565b9150509250925092565b6000602082840312156109605761095f610d18565b5b600061096e848285016108a8565b91505092915050565b61098081610c05565b82525050565b600061099182610b82565b61099b8185610b8d565b93506109ab818560208601610c41565b6109b481610d1d565b840191505092915050565b60006109ca82610b82565b6109d48185610b9e565b93506109e4818560208601610c41565b6109ed81610d1d565b840191505092915050565b6000610a05601383610b9e565b9150610a1082610d2e565b602082019050919050565b6000610a28600983610b9e565b9150610a3382610d57565b602082019050919050565b60006060830160008301518482036000860152610a5b8282610986565b9150506020830151610a706020860182610a8e565b506040830151610a836040860182610a8e565b508091505092915050565b610a9781610c37565b82525050565b610aa681610c37565b82525050565b6000602082019050610ac16000830184610977565b92915050565b60006060820190508181036000830152610ae181866109bf565b9050610af06020830185610a9d565b610afd6040830184610a9d565b949350505050565b60006020820190508181036000830152610b1e816109f8565b9050919050565b60006020820190508181036000830152610b3e81610a1b565b9050919050565b60006020820190508181036000830152610b5f8184610a3e565b905092915050565b6000602082019050610b7c6000830184610a9d565b92915050565b600081519050919050565b600082825260208201905092915050565b600082825260208201905092915050565b6000610bba82610c37565b9150610bc583610c37565b9250827fffffffffffffffffffffffffffffffffffffffffffffffffffffffffffffffff03821115610bfa57610bf9610ca6565b5b828201905092915050565b6000610c1082610c17565b9050919050565b600073ffffffffffffffffffffffffffffffffffffffff82169050919050565b6000819050919050565b60005b83811015610c5f578082015181840152602081019050610c44565b83811115610c6e576000848401525b50505050565b60006002820490506001821680610c8c57607f821691505b60208210811415610ca057610c9f610cd5565b5b50919050565b7f4e487b7100000000000000000000000000000000000000000000000000000000600052601160045260246000fd5b7f4e487b7100000000000000000000000000000000000000000000000000000000600052602260045260246000fd5b600080fd5b600080fd5b600080fd5b600080fd5b600080fd5b6000601f19601f8301169050919050565b7f596f75206861766520746f206465706f73697400000000000000000000000000600082015250565b7f4e6f74206f776e65720000000000000000000000000000000000000000000000600082015250565b610d8981610c05565b8114610d9457600080fd5b50565b610da081610c37565b8114610dab57600080fd5b5056fea2646970667358221220642751463d87dff2220e1f7902cfcf76f9addfc8b3849ed80b3a4ac11b3bcbe364736f6c63430008070033",
					"opcodes": "PUSH1 0x80 PUSH1 0x40 MSTORE PUSH1 0xA PUSH1 0x0 SSTORE CALLVALUE DUP1 ISZERO PUSH2 0x15 JUMPI PUSH1 0x0 DUP1 REVERT JUMPDEST POP CALLER PUSH1 0x1 PUSH1 0x0 PUSH2 0x100 EXP DUP2 SLOAD DUP2 PUSH20 0xFFFFFFFFFFFFFFFFFFFFFFFFFFFFFFFFFFFFFFFF MUL NOT AND SWAP1 DUP4 PUSH20 0xFFFFFFFFFFFFFFFFFFFFFFFFFFFFFFFFFFFFFFFF AND MUL OR SWAP1 SSTORE POP PUSH2 0xDE4 DUP1 PUSH2 0x66 PUSH1 0x0 CODECOPY PUSH1 0x0 RETURN INVALID PUSH1 0x80 PUSH1 0x40 MSTORE CALLVALUE DUP1 ISZERO PUSH2 0x10 JUMPI PUSH1 0x0 DUP1 REVERT JUMPDEST POP PUSH1 0x4 CALLDATASIZE LT PUSH2 0x88 JUMPI PUSH1 0x0 CALLDATALOAD PUSH1 0xE0 SHR DUP1 PUSH4 0x8B326EC2 GT PUSH2 0x5B JUMPI DUP1 PUSH4 0x8B326EC2 EQ PUSH2 0x101 JUMPI DUP1 PUSH4 0x8DA5CB5B EQ PUSH2 0x11F JUMPI DUP1 PUSH4 0xB6B55F25 EQ PUSH2 0x13D JUMPI DUP1 PUSH4 0xC71DACCB EQ PUSH2 0x159 JUMPI PUSH2 0x88 JUMP JUMPDEST DUP1 PUSH4 0x560AB69 EQ PUSH2 0x8D JUMPI DUP1 PUSH4 0x8F6F76E EQ PUSH2 0xBF JUMPI DUP1 PUSH4 0x346C96E9 EQ PUSH2 0xDB JUMPI DUP1 PUSH4 0x3CCFD60B EQ PUSH2 0xF7 JUMPI JUMPDEST PUSH1 0x0 DUP1 REVERT JUMPDEST PUSH2 0xA7 PUSH1 0x4 DUP1 CALLDATASIZE SUB DUP2 ADD SWAP1 PUSH2 0xA2 SWAP2 SWAP1 PUSH2 0x8BD JUMP JUMPDEST PUSH2 0x177 JUMP JUMPDEST PUSH1 0x40 MLOAD PUSH2 0xB6 SWAP4 SWAP3 SWAP2 SWAP1 PUSH2 0xAC7 JUMP JUMPDEST PUSH1 0x40 MLOAD DUP1 SWAP2 SUB SWAP1 RETURN JUMPDEST PUSH2 0xD9 PUSH1 0x4 DUP1 CALLDATASIZE SUB DUP2 ADD SWAP1 PUSH2 0xD4 SWAP2 SWAP1 PUSH2 0x8EA JUMP JUMPDEST PUSH2 0x229 JUMP JUMPDEST STOP JUMPDEST PUSH2 0xF5 PUSH1 0x4 DUP1 CALLDATASIZE SUB DUP2 ADD SWAP1 PUSH2 0xF0 SWAP2 SWAP1 PUSH2 0x94A JUMP JUMPDEST PUSH2 0x301 JUMP JUMPDEST STOP JUMPDEST PUSH2 0xFF PUSH2 0x4DC JUMP JUMPDEST STOP JUMPDEST PUSH2 0x109 PUSH2 0x5BC JUMP JUMPDEST PUSH1 0x40 MLOAD PUSH2 0x116 SWAP2 SWAP1 PUSH2 0xB45 JUMP JUMPDEST PUSH1 0x40 MLOAD DUP1 SWAP2 SUB SWAP1 RETURN JUMPDEST PUSH2 0x127 PUSH2 0x6B9 JUMP JUMPDEST PUSH1 0x40 MLOAD PUSH2 0x134 SWAP2 SWAP1 PUSH2 0xAAC JUMP JUMPDEST PUSH1 0x40 MLOAD DUP1 SWAP2 SUB SWAP1 RETURN JUMPDEST PUSH2 0x157 PUSH1 0x4 DUP1 CALLDATASIZE SUB DUP2 ADD SWAP1 PUSH2 0x152 SWAP2 SWAP1 PUSH2 0x94A JUMP JUMPDEST PUSH2 0x6DF JUMP JUMPDEST STOP JUMPDEST PUSH2 0x161 PUSH2 0x72F JUMP JUMPDEST PUSH1 0x40 MLOAD PUSH2 0x16E SWAP2 SWAP1 PUSH2 0xB67 JUMP JUMPDEST PUSH1 0x40 MLOAD DUP1 SWAP2 SUB SWAP1 RETURN JUMPDEST PUSH1 0x2 PUSH1 0x20 MSTORE DUP1 PUSH1 0x0 MSTORE PUSH1 0x40 PUSH1 0x0 KECCAK256 PUSH1 0x0 SWAP2 POP SWAP1 POP DUP1 PUSH1 0x0 ADD DUP1 SLOAD PUSH2 0x19A SWAP1 PUSH2 0xC74 JUMP JUMPDEST DUP1 PUSH1 0x1F ADD PUSH1 0x20 DUP1 SWAP2 DIV MUL PUSH1 0x20 ADD PUSH1 0x40 MLOAD SWAP1 DUP2 ADD PUSH1 0x40 MSTORE DUP1 SWAP3 SWAP2 SWAP1 DUP2 DUP2 MSTORE PUSH1 0x20 ADD DUP3 DUP1 SLOAD PUSH2 0x1C6 SWAP1 PUSH2 0xC74 JUMP JUMPDEST DUP1 ISZERO PUSH2 0x213 JUMPI DUP1 PUSH1 0x1F LT PUSH2 0x1E8 JUMPI PUSH2 0x100 DUP1 DUP4 SLOAD DIV MUL DUP4 MSTORE SWAP2 PUSH1 0x20 ADD SWAP2 PUSH2 0x213 JUMP JUMPDEST DUP3 ADD SWAP2 SWAP1 PUSH1 0x0 MSTORE PUSH1 0x20 PUSH1 0x0 KECCAK256 SWAP1 JUMPDEST DUP2 SLOAD DUP2 MSTORE SWAP1 PUSH1 0x1 ADD SWAP1 PUSH1 0x20 ADD DUP1 DUP4 GT PUSH2 0x1F6 JUMPI DUP3 SWAP1 SUB PUSH1 0x1F AND DUP3 ADD SWAP2 JUMPDEST POP POP POP POP POP SWAP1 DUP1 PUSH1 0x1 ADD SLOAD SWAP1 DUP1 PUSH1 0x2 ADD SLOAD SWAP1 POP DUP4 JUMP JUMPDEST PUSH1 0x40 MLOAD DUP1 PUSH1 0x60 ADD PUSH1 0x40 MSTORE DUP1 DUP5 DUP5 DUP1 DUP1 PUSH1 0x1F ADD PUSH1 0x20 DUP1 SWAP2 DIV MUL PUSH1 0x20 ADD PUSH1 0x40 MLOAD SWAP1 DUP2 ADD PUSH1 0x40 MSTORE DUP1 SWAP4 SWAP3 SWAP2 SWAP1 DUP2 DUP2 MSTORE PUSH1 0x20 ADD DUP4 DUP4 DUP1 DUP3 DUP5 CALLDATACOPY PUSH1 0x0 DUP2 DUP5 ADD MSTORE PUSH1 0x1F NOT PUSH1 0x1F DUP3 ADD AND SWAP1 POP DUP1 DUP4 ADD SWAP3 POP POP POP POP POP POP POP DUP2 MSTORE PUSH1 0x20 ADD DUP3 DUP2 MSTORE PUSH1 0x20 ADD PUSH1 0x0 DUP2 MSTORE POP PUSH1 0x2 PUSH1 0x0 CALLER PUSH20 0xFFFFFFFFFFFFFFFFFFFFFFFFFFFFFFFFFFFFFFFF AND PUSH20 0xFFFFFFFFFFFFFFFFFFFFFFFFFFFFFFFFFFFFFFFF AND DUP2 MSTORE PUSH1 0x20 ADD SWAP1 DUP2 MSTORE PUSH1 0x20 ADD PUSH1 0x0 KECCAK256 PUSH1 0x0 DUP3 ADD MLOAD DUP2 PUSH1 0x0 ADD SWAP1 DUP1 MLOAD SWAP1 PUSH1 0x20 ADD SWAP1 PUSH2 0x2E4 SWAP3 SWAP2 SWAP1 PUSH2 0x779 JUMP JUMPDEST POP PUSH1 0x20 DUP3 ADD MLOAD DUP2 PUSH1 0x1 ADD SSTORE PUSH1 0x40 DUP3 ADD MLOAD DUP2 PUSH1 0x2 ADD SSTORE SWAP1 POP POP POP POP POP JUMP JUMPDEST PUSH1 0x0 PUSH1 0x2 PUSH1 0x0 CALLER PUSH20 0xFFFFFFFFFFFFFFFFFFFFFFFFFFFFFFFFFFFFFFFF AND PUSH20 0xFFFFFFFFFFFFFFFFFFFFFFFFFFFFFFFFFFFFFFFF AND DUP2 MSTORE PUSH1 0x20 ADD SWAP1 DUP2 MSTORE PUSH1 0x20 ADD PUSH1 0x0 KECCAK256 PUSH1 0x40 MLOAD DUP1 PUSH1 0x60 ADD PUSH1 0x40 MSTORE SWAP1 DUP2 PUSH1 0x0 DUP3 ADD DUP1 SLOAD PUSH2 0x35D SWAP1 PUSH2 0xC74 JUMP JUMPDEST DUP1 PUSH1 0x1F ADD PUSH1 0x20 DUP1 SWAP2 DIV MUL PUSH1 0x20 ADD PUSH1 0x40 MLOAD SWAP1 DUP2 ADD PUSH1 0x40 MSTORE DUP1 SWAP3 SWAP2 SWAP1 DUP2 DUP2 MSTORE PUSH1 0x20 ADD DUP3 DUP1 SLOAD PUSH2 0x389 SWAP1 PUSH2 0xC74 JUMP JUMPDEST DUP1 ISZERO PUSH2 0x3D6 JUMPI DUP1 PUSH1 0x1F LT PUSH2 0x3AB JUMPI PUSH2 0x100 DUP1 DUP4 SLOAD DIV MUL DUP4 MSTORE SWAP2 PUSH1 0x20 ADD SWAP2 PUSH2 0x3D6 JUMP JUMPDEST DUP3 ADD SWAP2 SWAP1 PUSH1 0x0 MSTORE PUSH1 0x20 PUSH1 0x0 KECCAK256 SWAP1 JUMPDEST DUP2 SLOAD DUP2 MSTORE SWAP1 PUSH1 0x1 ADD SWAP1 PUSH1 0x20 ADD DUP1 DUP4 GT PUSH2 0x3B9 JUMPI DUP3 SWAP1 SUB PUSH1 0x1F AND DUP3 ADD SWAP2 JUMPDEST POP POP POP POP POP DUP2 MSTORE PUSH1 0x20 ADD PUSH1 0x1 DUP3 ADD SLOAD DUP2 MSTORE PUSH1 0x20 ADD PUSH1 0x2 DUP3 ADD SLOAD DUP2 MSTORE POP POP SWAP1 POP PUSH1 0x0 DUP2 PUSH1 0x40 ADD MLOAD GT PUSH2 0x43C JUMPI PUSH1 0x40 MLOAD PUSH32 0x8C379A000000000000000000000000000000000000000000000000000000000 DUP2 MSTORE PUSH1 0x4 ADD PUSH2 0x433 SWAP1 PUSH2 0xB05 JUMP JUMPDEST PUSH1 0x40 MLOAD DUP1 SWAP2 SUB SWAP1 REVERT JUMPDEST DUP2 PUSH1 0x0 SLOAD DUP2 GT PUSH2 0x478 JUMPI PUSH1 0x40 MLOAD PUSH32 0xE07D327100000000000000000000000000000000000000000000000000000000 DUP2 MSTORE PUSH1 0x4 ADD PUSH1 0x40 MLOAD DUP1 SWAP2 SUB SWAP1 REVERT JUMPDEST PUSH1 0x0 PUSH1 0x2 PUSH1 0x0 CALLER PUSH20 0xFFFFFFFFFFFFFFFFFFFFFFFFFFFFFFFFFFFFFFFF AND PUSH20 0xFFFFFFFFFFFFFFFFFFFFFFFFFFFFFFFFFFFFFFFF AND DUP2 MSTORE PUSH1 0x20 ADD SWAP1 DUP2 MSTORE PUSH1 0x20 ADD PUSH1 0x0 KECCAK256 SWAP1 POP DUP4 DUP2 PUSH1 0x2 ADD PUSH1 0x0 DUP3 DUP3 SLOAD PUSH2 0x4CF SWAP2 SWAP1 PUSH2 0xBAF JUMP JUMPDEST SWAP3 POP POP DUP2 SWAP1 SSTORE POP POP POP POP POP JUMP JUMPDEST PUSH1 0x1 PUSH1 0x0 SWAP1 SLOAD SWAP1 PUSH2 0x100 EXP SWAP1 DIV PUSH20 0xFFFFFFFFFFFFFFFFFFFFFFFFFFFFFFFFFFFFFFFF AND PUSH20 0xFFFFFFFFFFFFFFFFFFFFFFFFFFFFFFFFFFFFFFFF AND CALLER PUSH20 0xFFFFFFFFFFFFFFFFFFFFFFFFFFFFFFFFFFFFFFFF AND EQ PUSH2 0x56C JUMPI PUSH1 0x40 MLOAD PUSH32 0x8C379A000000000000000000000000000000000000000000000000000000000 DUP2 MSTORE PUSH1 0x4 ADD PUSH2 0x563 SWAP1 PUSH2 0xB25 JUMP JUMPDEST PUSH1 0x40 MLOAD DUP1 SWAP2 SUB SWAP1 REVERT JUMPDEST PUSH1 0x0 PUSH1 0x2 PUSH1 0x0 CALLER PUSH20 0xFFFFFFFFFFFFFFFFFFFFFFFFFFFFFFFFFFFFFFFF AND PUSH20 0xFFFFFFFFFFFFFFFFFFFFFFFFFFFFFFFFFFFFFFFF AND DUP2 MSTORE PUSH1 0x20 ADD SWAP1 DUP2 MSTORE PUSH1 0x20 ADD PUSH1 0x0 KECCAK256 SWAP1 POP PUSH1 0x0 DUP2 PUSH1 0x2 ADD DUP2 SWAP1 SSTORE POP POP JUMP JUMPDEST PUSH2 0x5C4 PUSH2 0x7FF JUMP JUMPDEST PUSH1 0x2 PUSH1 0x0 CALLER PUSH20 0xFFFFFFFFFFFFFFFFFFFFFFFFFFFFFFFFFFFFFFFF AND PUSH20 0xFFFFFFFFFFFFFFFFFFFFFFFFFFFFFFFFFFFFFFFF AND DUP2 MSTORE PUSH1 0x20 ADD SWAP1 DUP2 MSTORE PUSH1 0x20 ADD PUSH1 0x0 KECCAK256 PUSH1 0x40 MLOAD DUP1 PUSH1 0x60 ADD PUSH1 0x40 MSTORE SWAP1 DUP2 PUSH1 0x0 DUP3 ADD DUP1 SLOAD PUSH2 0x61E SWAP1 PUSH2 0xC74 JUMP JUMPDEST DUP1 PUSH1 0x1F ADD PUSH1 0x20 DUP1 SWAP2 DIV MUL PUSH1 0x20 ADD PUSH1 0x40 MLOAD SWAP1 DUP2 ADD PUSH1 0x40 MSTORE DUP1 SWAP3 SWAP2 SWAP1 DUP2 DUP2 MSTORE PUSH1 0x20 ADD DUP3 DUP1 SLOAD PUSH2 0x64A SWAP1 PUSH2 0xC74 JUMP JUMPDEST DUP1 ISZERO PUSH2 0x697 JUMPI DUP1 PUSH1 0x1F LT PUSH2 0x66C JUMPI PUSH2 0x100 DUP1 DUP4 SLOAD DIV MUL DUP4 MSTORE SWAP2 PUSH1 0x20 ADD SWAP2 PUSH2 0x697 JUMP JUMPDEST DUP3 ADD SWAP2 SWAP1 PUSH1 0x0 MSTORE PUSH1 0x20 PUSH1 0x0 KECCAK256 SWAP1 JUMPDEST DUP2 SLOAD DUP2 MSTORE SWAP1 PUSH1 0x1 ADD SWAP1 PUSH1 0x20 ADD DUP1 DUP4 GT PUSH2 0x67A JUMPI DUP3 SWAP1 SUB PUSH1 0x1F AND DUP3 ADD SWAP2 JUMPDEST POP POP POP POP POP DUP2 MSTORE PUSH1 0x20 ADD PUSH1 0x1 DUP3 ADD SLOAD DUP2 MSTORE PUSH1 0x20 ADD PUSH1 0x2 DUP3 ADD SLOAD DUP2 MSTORE POP POP SWAP1 POP SWAP1 JUMP JUMPDEST PUSH1 0x1 PUSH1 0x0 SWAP1 SLOAD SWAP1 PUSH2 0x100 EXP SWAP1 DIV PUSH20 0xFFFFFFFFFFFFFFFFFFFFFFFFFFFFFFFFFFFFFFFF AND DUP2 JUMP JUMPDEST PUSH1 0x0 PUSH1 0x2 PUSH1 0x0 CALLER PUSH20 0xFFFFFFFFFFFFFFFFFFFFFFFFFFFFFFFFFFFFFFFF AND PUSH20 0xFFFFFFFFFFFFFFFFFFFFFFFFFFFFFFFFFFFFFFFF AND DUP2 MSTORE PUSH1 0x20 ADD SWAP1 DUP2 MSTORE PUSH1 0x20 ADD PUSH1 0x0 KECCAK256 SWAP1 POP DUP2 DUP2 PUSH1 0x2 ADD DUP2 SWAP1 SSTORE POP POP POP JUMP JUMPDEST PUSH1 0x0 PUSH1 0x2 PUSH1 0x0 CALLER PUSH20 0xFFFFFFFFFFFFFFFFFFFFFFFFFFFFFFFFFFFFFFFF AND PUSH20 0xFFFFFFFFFFFFFFFFFFFFFFFFFFFFFFFFFFFFFFFF AND DUP2 MSTORE PUSH1 0x20 ADD SWAP1 DUP2 MSTORE PUSH1 0x20 ADD PUSH1 0x0 KECCAK256 PUSH1 0x2 ADD SLOAD SWAP1 POP SWAP1 JUMP JUMPDEST DUP3 DUP1 SLOAD PUSH2 0x785 SWAP1 PUSH2 0xC74 JUMP JUMPDEST SWAP1 PUSH1 0x0 MSTORE PUSH1 0x20 PUSH1 0x0 KECCAK256 SWAP1 PUSH1 0x1F ADD PUSH1 0x20 SWAP1 DIV DUP2 ADD SWAP3 DUP3 PUSH2 0x7A7 JUMPI PUSH1 0x0 DUP6 SSTORE PUSH2 0x7EE JUMP JUMPDEST DUP3 PUSH1 0x1F LT PUSH2 0x7C0 JUMPI DUP1 MLOAD PUSH1 0xFF NOT AND DUP4 DUP1 ADD OR DUP6 SSTORE PUSH2 0x7EE JUMP JUMPDEST DUP3 DUP1 ADD PUSH1 0x1 ADD DUP6 SSTORE DUP3 ISZERO PUSH2 0x7EE JUMPI SWAP2 DUP3 ADD JUMPDEST DUP3 DUP2 GT ISZERO PUSH2 0x7ED JUMPI DUP3 MLOAD DUP3 SSTORE SWAP2 PUSH1 0x20 ADD SWAP2 SWAP1 PUSH1 0x1 ADD SWAP1 PUSH2 0x7D2 JUMP JUMPDEST JUMPDEST POP SWAP1 POP PUSH2 0x7FB SWAP2 SWAP1 PUSH2 0x820 JUMP JUMPDEST POP SWAP1 JUMP JUMPDEST PUSH1 0x40 MLOAD DUP1 PUSH1 0x60 ADD PUSH1 0x40 MSTORE DUP1 PUSH1 0x60 DUP2 MSTORE PUSH1 0x20 ADD PUSH1 0x0 DUP2 MSTORE PUSH1 0x20 ADD PUSH1 0x0 DUP2 MSTORE POP SWAP1 JUMP JUMPDEST JUMPDEST DUP1 DUP3 GT ISZERO PUSH2 0x839 JUMPI PUSH1 0x0 DUP2 PUSH1 0x0 SWAP1 SSTORE POP PUSH1 0x1 ADD PUSH2 0x821 JUMP JUMPDEST POP SWAP1 JUMP JUMPDEST PUSH1 0x0 DUP2 CALLDATALOAD SWAP1 POP PUSH2 0x84C DUP2 PUSH2 0xD80 JUMP JUMPDEST SWAP3 SWAP2 POP POP JUMP JUMPDEST PUSH1 0x0 DUP1 DUP4 PUSH1 0x1F DUP5 ADD SLT PUSH2 0x868 JUMPI PUSH2 0x867 PUSH2 0xD09 JUMP JUMPDEST JUMPDEST DUP3 CALLDATALOAD SWAP1 POP PUSH8 0xFFFFFFFFFFFFFFFF DUP2 GT ISZERO PUSH2 0x885 JUMPI PUSH2 0x884 PUSH2 0xD04 JUMP JUMPDEST JUMPDEST PUSH1 0x20 DUP4 ADD SWAP2 POP DUP4 PUSH1 0x1 DUP3 MUL DUP4 ADD GT ISZERO PUSH2 0x8A1 JUMPI PUSH2 0x8A0 PUSH2 0xD0E JUMP JUMPDEST JUMPDEST SWAP3 POP SWAP3 SWAP1 POP JUMP JUMPDEST PUSH1 0x0 DUP2 CALLDATALOAD SWAP1 POP PUSH2 0x8B7 DUP2 PUSH2 0xD97 JUMP JUMPDEST SWAP3 SWAP2 POP POP JUMP JUMPDEST PUSH1 0x0 PUSH1 0x20 DUP3 DUP5 SUB SLT ISZERO PUSH2 0x8D3 JUMPI PUSH2 0x8D2 PUSH2 0xD18 JUMP JUMPDEST JUMPDEST PUSH1 0x0 PUSH2 0x8E1 DUP5 DUP3 DUP6 ADD PUSH2 0x83D JUMP JUMPDEST SWAP2 POP POP SWAP3 SWAP2 POP POP JUMP JUMPDEST PUSH1 0x0 DUP1 PUSH1 0x0 PUSH1 0x40 DUP5 DUP7 SUB SLT ISZERO PUSH2 0x903 JUMPI PUSH2 0x902 PUSH2 0xD18 JUMP JUMPDEST JUMPDEST PUSH1 0x0 DUP5 ADD CALLDATALOAD PUSH8 0xFFFFFFFFFFFFFFFF DUP2 GT ISZERO PUSH2 0x921 JUMPI PUSH2 0x920 PUSH2 0xD13 JUMP JUMPDEST JUMPDEST PUSH2 0x92D DUP7 DUP3 DUP8 ADD PUSH2 0x852 JUMP JUMPDEST SWAP4 POP SWAP4 POP POP PUSH1 0x20 PUSH2 0x940 DUP7 DUP3 DUP8 ADD PUSH2 0x8A8 JUMP JUMPDEST SWAP2 POP POP SWAP3 POP SWAP3 POP SWAP3 JUMP JUMPDEST PUSH1 0x0 PUSH1 0x20 DUP3 DUP5 SUB SLT ISZERO PUSH2 0x960 JUMPI PUSH2 0x95F PUSH2 0xD18 JUMP JUMPDEST JUMPDEST PUSH1 0x0 PUSH2 0x96E DUP5 DUP3 DUP6 ADD PUSH2 0x8A8 JUMP JUMPDEST SWAP2 POP POP SWAP3 SWAP2 POP POP JUMP JUMPDEST PUSH2 0x980 DUP2 PUSH2 0xC05 JUMP JUMPDEST DUP3 MSTORE POP POP JUMP JUMPDEST PUSH1 0x0 PUSH2 0x991 DUP3 PUSH2 0xB82 JUMP JUMPDEST PUSH2 0x99B DUP2 DUP6 PUSH2 0xB8D JUMP JUMPDEST SWAP4 POP PUSH2 0x9AB DUP2 DUP6 PUSH1 0x20 DUP7 ADD PUSH2 0xC41 JUMP JUMPDEST PUSH2 0x9B4 DUP2 PUSH2 0xD1D JUMP JUMPDEST DUP5 ADD SWAP2 POP POP SWAP3 SWAP2 POP POP JUMP JUMPDEST PUSH1 0x0 PUSH2 0x9CA DUP3 PUSH2 0xB82 JUMP JUMPDEST PUSH2 0x9D4 DUP2 DUP6 PUSH2 0xB9E JUMP JUMPDEST SWAP4 POP PUSH2 0x9E4 DUP2 DUP6 PUSH1 0x20 DUP7 ADD PUSH2 0xC41 JUMP JUMPDEST PUSH2 0x9ED DUP2 PUSH2 0xD1D JUMP JUMPDEST DUP5 ADD SWAP2 POP POP SWAP3 SWAP2 POP POP JUMP JUMPDEST PUSH1 0x0 PUSH2 0xA05 PUSH1 0x13 DUP4 PUSH2 0xB9E JUMP JUMPDEST SWAP2 POP PUSH2 0xA10 DUP3 PUSH2 0xD2E JUMP JUMPDEST PUSH1 0x20 DUP3 ADD SWAP1 POP SWAP2 SWAP1 POP JUMP JUMPDEST PUSH1 0x0 PUSH2 0xA28 PUSH1 0x9 DUP4 PUSH2 0xB9E JUMP JUMPDEST SWAP2 POP PUSH2 0xA33 DUP3 PUSH2 0xD57 JUMP JUMPDEST PUSH1 0x20 DUP3 ADD SWAP1 POP SWAP2 SWAP1 POP JUMP JUMPDEST PUSH1 0x0 PUSH1 0x60 DUP4 ADD PUSH1 0x0 DUP4 ADD MLOAD DUP5 DUP3 SUB PUSH1 0x0 DUP7 ADD MSTORE PUSH2 0xA5B DUP3 DUP3 PUSH2 0x986 JUMP JUMPDEST SWAP2 POP POP PUSH1 0x20 DUP4 ADD MLOAD PUSH2 0xA70 PUSH1 0x20 DUP7 ADD DUP3 PUSH2 0xA8E JUMP JUMPDEST POP PUSH1 0x40 DUP4 ADD MLOAD PUSH2 0xA83 PUSH1 0x40 DUP7 ADD DUP3 PUSH2 0xA8E JUMP JUMPDEST POP DUP1 SWAP2 POP POP SWAP3 SWAP2 POP POP JUMP JUMPDEST PUSH2 0xA97 DUP2 PUSH2 0xC37 JUMP JUMPDEST DUP3 MSTORE POP POP JUMP JUMPDEST PUSH2 0xAA6 DUP2 PUSH2 0xC37 JUMP JUMPDEST DUP3 MSTORE POP POP JUMP JUMPDEST PUSH1 0x0 PUSH1 0x20 DUP3 ADD SWAP1 POP PUSH2 0xAC1 PUSH1 0x0 DUP4 ADD DUP5 PUSH2 0x977 JUMP JUMPDEST SWAP3 SWAP2 POP POP JUMP JUMPDEST PUSH1 0x0 PUSH1 0x60 DUP3 ADD SWAP1 POP DUP2 DUP2 SUB PUSH1 0x0 DUP4 ADD MSTORE PUSH2 0xAE1 DUP2 DUP7 PUSH2 0x9BF JUMP JUMPDEST SWAP1 POP PUSH2 0xAF0 PUSH1 0x20 DUP4 ADD DUP6 PUSH2 0xA9D JUMP JUMPDEST PUSH2 0xAFD PUSH1 0x40 DUP4 ADD DUP5 PUSH2 0xA9D JUMP JUMPDEST SWAP5 SWAP4 POP POP POP POP JUMP JUMPDEST PUSH1 0x0 PUSH1 0x20 DUP3 ADD SWAP1 POP DUP2 DUP2 SUB PUSH1 0x0 DUP4 ADD MSTORE PUSH2 0xB1E DUP2 PUSH2 0x9F8 JUMP JUMPDEST SWAP1 POP SWAP2 SWAP1 POP JUMP JUMPDEST PUSH1 0x0 PUSH1 0x20 DUP3 ADD SWAP1 POP DUP2 DUP2 SUB PUSH1 0x0 DUP4 ADD MSTORE PUSH2 0xB3E DUP2 PUSH2 0xA1B JUMP JUMPDEST SWAP1 POP SWAP2 SWAP1 POP JUMP JUMPDEST PUSH1 0x0 PUSH1 0x20 DUP3 ADD SWAP1 POP DUP2 DUP2 SUB PUSH1 0x0 DUP4 ADD MSTORE PUSH2 0xB5F DUP2 DUP5 PUSH2 0xA3E JUMP JUMPDEST SWAP1 POP SWAP3 SWAP2 POP POP JUMP JUMPDEST PUSH1 0x0 PUSH1 0x20 DUP3 ADD SWAP1 POP PUSH2 0xB7C PUSH1 0x0 DUP4 ADD DUP5 PUSH2 0xA9D JUMP JUMPDEST SWAP3 SWAP2 POP POP JUMP JUMPDEST PUSH1 0x0 DUP2 MLOAD SWAP1 POP SWAP2 SWAP1 POP JUMP JUMPDEST PUSH1 0x0 DUP3 DUP3 MSTORE PUSH1 0x20 DUP3 ADD SWAP1 POP SWAP3 SWAP2 POP POP JUMP JUMPDEST PUSH1 0x0 DUP3 DUP3 MSTORE PUSH1 0x20 DUP3 ADD SWAP1 POP SWAP3 SWAP2 POP POP JUMP JUMPDEST PUSH1 0x0 PUSH2 0xBBA DUP3 PUSH2 0xC37 JUMP JUMPDEST SWAP2 POP PUSH2 0xBC5 DUP4 PUSH2 0xC37 JUMP JUMPDEST SWAP3 POP DUP3 PUSH32 0xFFFFFFFFFFFFFFFFFFFFFFFFFFFFFFFFFFFFFFFFFFFFFFFFFFFFFFFFFFFFFFFF SUB DUP3 GT ISZERO PUSH2 0xBFA JUMPI PUSH2 0xBF9 PUSH2 0xCA6 JUMP JUMPDEST JUMPDEST DUP3 DUP3 ADD SWAP1 POP SWAP3 SWAP2 POP POP JUMP JUMPDEST PUSH1 0x0 PUSH2 0xC10 DUP3 PUSH2 0xC17 JUMP JUMPDEST SWAP1 POP SWAP2 SWAP1 POP JUMP JUMPDEST PUSH1 0x0 PUSH20 0xFFFFFFFFFFFFFFFFFFFFFFFFFFFFFFFFFFFFFFFF DUP3 AND SWAP1 POP SWAP2 SWAP1 POP JUMP JUMPDEST PUSH1 0x0 DUP2 SWAP1 POP SWAP2 SWAP1 POP JUMP JUMPDEST PUSH1 0x0 JUMPDEST DUP4 DUP2 LT ISZERO PUSH2 0xC5F JUMPI DUP1 DUP3 ADD MLOAD DUP2 DUP5 ADD MSTORE PUSH1 0x20 DUP2 ADD SWAP1 POP PUSH2 0xC44 JUMP JUMPDEST DUP4 DUP2 GT ISZERO PUSH2 0xC6E JUMPI PUSH1 0x0 DUP5 DUP5 ADD MSTORE JUMPDEST POP POP POP POP JUMP JUMPDEST PUSH1 0x0 PUSH1 0x2 DUP3 DIV SWAP1 POP PUSH1 0x1 DUP3 AND DUP1 PUSH2 0xC8C JUMPI PUSH1 0x7F DUP3 AND SWAP2 POP JUMPDEST PUSH1 0x20 DUP3 LT DUP2 EQ ISZERO PUSH2 0xCA0 JUMPI PUSH2 0xC9F PUSH2 0xCD5 JUMP JUMPDEST JUMPDEST POP SWAP2 SWAP1 POP JUMP JUMPDEST PUSH32 0x4E487B7100000000000000000000000000000000000000000000000000000000 PUSH1 0x0 MSTORE PUSH1 0x11 PUSH1 0x4 MSTORE PUSH1 0x24 PUSH1 0x0 REVERT JUMPDEST PUSH32 0x4E487B7100000000000000000000000000000000000000000000000000000000 PUSH1 0x0 MSTORE PUSH1 0x22 PUSH1 0x4 MSTORE PUSH1 0x24 PUSH1 0x0 REVERT JUMPDEST PUSH1 0x0 DUP1 REVERT JUMPDEST PUSH1 0x0 DUP1 REVERT JUMPDEST PUSH1 0x0 DUP1 REVERT JUMPDEST PUSH1 0x0 DUP1 REVERT JUMPDEST PUSH1 0x0 DUP1 REVERT JUMPDEST PUSH1 0x0 PUSH1 0x1F NOT PUSH1 0x1F DUP4 ADD AND SWAP1 POP SWAP2 SWAP1 POP JUMP JUMPDEST PUSH32 0x596F75206861766520746F206465706F73697400000000000000000000000000 PUSH1 0x0 DUP3 ADD MSTORE POP JUMP JUMPDEST PUSH32 0x4E6F74206F776E65720000000000000000000000000000000000000000000000 PUSH1 0x0 DUP3 ADD MSTORE POP JUMP JUMPDEST PUSH2 0xD89 DUP2 PUSH2 0xC05 JUMP JUMPDEST DUP2 EQ PUSH2 0xD94 JUMPI PUSH1 0x0 DUP1 REVERT JUMPDEST POP JUMP JUMPDEST PUSH2 0xDA0 DUP2 PUSH2 0xC37 JUMP JUMPDEST DUP2 EQ PUSH2 0xDAB JUMPI PUSH1 0x0 DUP1 REVERT JUMPDEST POP JUMP INVALID LOG2 PUSH5 0x6970667358 0x22 SLT KECCAK256 PUSH5 0x2751463D87 0xDF CALLCODE 0x22 0xE 0x1F PUSH26 0x2CFCF76F9ADDFC8B3849ED80B3A4AC11B3BCBE364736F6C6343 STOP ADDMOD SMOD STOP CALLER "
				},
				"gasEstimates": {
					"creation": {
						"codeDepositCost": "711200",
						"executionCost": "47119",
						"totalCost": "758319"
					},
					"external": {
						"addFund(uint256)": "infinite",
						"checkBalance()": "2598",
						"deposit(uint256)": "22672",
						"getUserDetail()": "infinite",
						"owner()": "2536",
						"setUserDetails(string,uint256)": "infinite",
						"usersData(address)": "infinite",
						"withdraw()": "7503"
					}
				},
				"methodIdentifiers": {
					"addFund(uint256)": "346c96e9",
					"checkBalance()": "c71daccb",
					"deposit(uint256)": "b6b55f25",
					"getUserDetail()": "8b326ec2",
					"owner()": "8da5cb5b",
					"setUserDetails(string,uint256)": "08f6f76e",
					"usersData(address)": "0560ab69",
					"withdraw()": "3ccfd60b"
				}
			},
			"storageLayout": {
				"storage": [
					{
						"astId": 13,
						"contract": "contracts/Modifiers.sol:Modifiers",
						"label": "Feed",
						"offset": 0,
						"slot": "0",
						"type": "t_uint256"
					},
					{
						"astId": 15,
						"contract": "contracts/Modifiers.sol:Modifiers",
						"label": "owner",
						"offset": 0,
						"slot": "1",
						"type": "t_address"
					},
					{
						"astId": 20,
						"contract": "contracts/Modifiers.sol:Modifiers",
						"label": "usersData",
						"offset": 0,
						"slot": "2",
						"type": "t_mapping(t_address,t_struct(User)10_storage)"
					}
				],
				"types": {
					"t_address": {
						"encoding": "inplace",
						"label": "address",
						"numberOfBytes": "20"
					},
					"t_mapping(t_address,t_struct(User)10_storage)": {
						"encoding": "mapping",
						"key": "t_address",
						"label": "mapping(address => struct Modifiers.User)",
						"numberOfBytes": "32",
						"value": "t_struct(User)10_storage"
					},
					"t_string_storage": {
						"encoding": "bytes",
						"label": "string",
						"numberOfBytes": "32"
					},
					"t_struct(User)10_storage": {
						"encoding": "inplace",
						"label": "struct Modifiers.User",
						"members": [
							{
								"astId": 5,
								"contract": "contracts/Modifiers.sol:Modifiers",
								"label": "name",
								"offset": 0,
								"slot": "0",
								"type": "t_string_storage"
							},
							{
								"astId": 7,
								"contract": "contracts/Modifiers.sol:Modifiers",
								"label": "age",
								"offset": 0,
								"slot": "1",
								"type": "t_uint256"
							},
							{
								"astId": 9,
								"contract": "contracts/Modifiers.sol:Modifiers",
								"label": "balance",
								"offset": 0,
								"slot": "2",
								"type": "t_uint256"
							}
						],
						"numberOfBytes": "96"
					},
					"t_uint256": {
						"encoding": "inplace",
						"label": "uint256",
						"numberOfBytes": "32"
					}
				}
			},
			"userdoc": {
				"kind": "user",
				"methods": {},
				"version": 1
			}
		}
	}
}